:020000040000FA
:10000000307101203D430000AB3B04002943000058
:100010002943000029430000294300002943000030
:10002000000000000000000000000000FD4400008F
:100030002943000000000000BD44000029430000E7
:100040008146000081460000814600008146000094
:100050008146000081460000814600008146000084
:100060008146000081460000814600008146000074
:100070008146000081460000814600008146000064
:100080008146000081460000814600008146000054
:100090008146000081460000814600008146000044
:1000A0008146000081460000814600008146000034
:1000B0008146000081460000814600008146000024
:1000C0008146000081460000814600008146000014
:1000D0008146000081460000814600008146000004
:1000E00081460000814600008146000081460000F4
:1000F00081460000814600008146000081460000E4
:1001000081460000814600008146000081460000D3
:1001100081460000814600008146000081460000C3
:1001200081460000814600008146000081460000B3
:1001300081460000814600008146000081460000A3
:100140008146000081460000814600008146000093
:1001500081460000FFFFFFFF81F0004102E000BF89
:1001600083F0004330B54FEA41044FEA430594EA77
:10017000050F08BF90EA020F1FBF54EA000C55EAB2
:10018000020C7FEA645C7FEA655C00F0E2804FEA83
:100190005454D4EB5555B8BF6D420CDD2C4480EA65
:1001A000020281EA030382EA000083EA010180EA95
:1001B000020281EA0303362D88BF30BD11F0004FE3
:1001C0004FEA01314FF4801C4CEA113102D0404219
:1001D00061EB410113F0004F4FEA03334CEA133354
:1001E00002D0524263EB430394EA050F00F0A7806C
:1001F000A4F10104D5F1200E0DDB02FA0EFC22FA67
:1002000005F2801841F1000103FA0EF2801843FA5A
:1002100005F359410EE0A5F120050EF1200E012A4B
:1002200003FA0EFC28BF4CF0020C43FA05F3C01889
:1002300051EBE37101F0004507D54FF0000EDCF102
:10024000000C7EEB00006EEB0101B1F5801F1BD3AB
:10025000B1F5001F0CD349085FEA30004FEA3C0CAF
:1002600004F101044FEA445212F5800F80F09A80A5
:10027000BCF1004F08BF5FEA500C50F1000041EBA9
:10028000045141EA050130BD5FEA4C0C404141EBAD
:100290000101013C28BFB1F5801FE9D291F0000FA8
:1002A00004BF01460020B1FA81F308BF2033A3F157
:1002B0000B03B3F120020CDA0C3208DD02F1140C4E
:1002C000C2F10C0201FA0CF021FA02F10CE002F189
:1002D0001402D8BFC2F1200C01FA02F120FA0CFC82
:1002E000DCBF41EA0C019040E41AA2BF01EB0451CB
:1002F000294330BD6FEA04041F3C1CDA0C340EDCC9
:1003000004F11404C4F1200220FA04F001FA02F30B
:1003100040EA030021FA04F345EA030130BDC4F1C9
:100320000C04C4F1200220FA02F001FA04F340EABE
:100330000300294630BD21FA04F0294630BD94F06F
:10034000000F83F4801306BF81F480110134013D56
:100350004EE77FEA645C18BF7FEA655C29D094EAC7
:10036000050F08BF90EA020F05D054EA000C04BF45
:100370001946104630BD91EA030F1EBF0021002030
:1003800030BD5FEA545C05D14000494128BF41F0CF
:10039000004130BD14F580043CBF01F5801130BD33
:1003A00001F0004545F0FE4141F470014FF00000BE
:1003B00030BD7FEA645C1ABF194610467FEA655C6F
:1003C0001CBF0B46024650EA013406BF52EA033511
:1003D00091EA030F41F4002130BD00BF90F0000FFF
:1003E00004BF0021704730B54FF4806404F132043B
:1003F0004FF000054FF0000150E700BF90F0000FF4
:1004000004BF0021704730B54FF4806404F132041A
:1004100010F0004548BF40424FF000013EE700BFEA
:1004200042004FEAE2014FEA31014FEA02701FBF7A
:1004300012F07F4393F07F4F81F06051704732F0AC
:100440007F4208BF704793F07F4F04BF41F4002103
:10045000704730B54FF4607401F0004521F0004161
:100460001CE700BF50EA010208BF704730B54FF0EB
:1004700000050AE050EA010208BF704730B511F0EC
:10048000004502D5404261EB41014FF4806404F124
:1004900032045FEA915C3FF4D8AE4FF003025FEAAA
:1004A000DC0C18BF03325FEADC0C18BF033202EB2E
:1004B000DC02C2F1200300FA03FC20FA02F001FA88
:1004C00003FE40EA0E0021FA02F11444BDE600BF2B
:1004D00070B54FF0FF0C4CF4E06C1CEA11541DBFDA
:1004E0001CEA135594EA0C0F95EA0C0F00F0DEF8A5
:1004F0002C4481EA030621EA4C5123EA4C5350EA8A
:10050000013518BF52EA033541F4801143F48013DA
:1005100038D0A0FB02CE4FF00005E1FB02E506F06B
:100520000042E0FB03E54FF00006E1FB03569CF0C0
:10053000000F18BF4EF0010EA4F1FF04B6F5007FC6
:1005400064F5407404D25FEA4E0E6D4146EB060638
:1005500042EAC62141EA55514FEAC52040EA5E50C1
:100560004FEACE2EB4F1FD0C88BFBCF5E06F1ED86B
:10057000BEF1004F08BF5FEA500E50F1000041EBA2
:10058000045170BD06F0004646EA010140EA02004F
:1005900081EA0301B4EB5C04C2BFD4EB0C0541EA71
:1005A000045170BD41F480114FF0000E013C00F386
:1005B000AB8014F1360FDEBF002001F0004170BDAA
:1005C000C4F10004203C35DA0C341BDC04F11404C3
:1005D000C4F1200500FA05F320FA04F001FA05F24F
:1005E00040EA020001F0004221F0004110EBD3701C
:1005F00021FA04F642EB06015EEA430E08BF20EA48
:10060000D37070BDC4F10C04C4F1200500FA04F3EA
:1006100020FA05F001FA04F240EA020001F000417C
:1006200010EBD37041F100015EEA430E08BF20EAEF
:10063000D37070BDC4F1200500FA05F24EEA020E37
:1006400020FA04F301FA05F243EA020321FA04F066
:1006500001F0004121FA04F220EA020000EBD3701D
:100660005EEA430E08BF20EAD37070BD94F0000F1D
:100670000FD101F00046400041EB010111F4801F51
:1006800008BF013CF7D041EA060195F0000F18BF02
:10069000704703F00046520043EB030313F4801F3E
:1006A00008BF013DF7D043EA0603704794EA0C0FF8
:1006B0000CEA135518BF95EA0C0F0CD050EA41060E
:1006C00018BF52EA4306D1D181EA030101F000418B
:1006D0004FF0000070BD50EA410606BF10461946B3
:1006E00052EA430619D094EA0C0F02D150EA0136BF
:1006F00013D195EA0C0F05D152EA03361CBF104600
:1007000019460AD181EA030101F0004141F0FE419E
:1007100041F470014FF0000070BD41F0FE4141F422
:10072000780170BD70B54FF0FF0C4CF4E06C1CEA22
:1007300011541DBF1CEA135594EA0C0F95EA0C0FD7
:1007400000F0A7F8A4EB050481EA030E52EA033592
:100750004FEA013100F088804FEA03334FF08055B3
:1007600045EA131343EA12634FEA022245EA1115E0
:1007700045EA10654FEA00260EF000419D4208BF91
:10078000964244F1FD0404F5407402D25B084FEA3E
:100790003202B61A65EB03055B084FEA32024FF4EA
:1007A00080104FF4002CB6EB020E75EB030E22BF47
:1007B000B61A754640EA0C005B084FEA3202B6EB07
:1007C000020E75EB030E22BFB61A754640EA5C00B6
:1007D0005B084FEA3202B6EB020E75EB030E22BF46
:1007E000B61A754640EA9C005B084FEA3202B6EB47
:1007F000020E75EB030E22BFB61A754640EADC0006
:1008000055EA060E18D04FEA051545EA16754FEA67
:1008100006164FEAC30343EA52734FEAC2025FEA85
:100820001C1CC0D111F4801F0BD141EA00014FF014
:1008300000004FF0004CB6E711F4801F04BF0143E5
:100840000020B4F1FD0C88BFBCF5E06F3FF6AFAE01
:10085000B5EB030C04BFB6EB020C5FEA500C50F191
:10086000000041EB045170BD0EF0004E4EEA113114
:1008700014EB5C04C2BFD4EB0C0541EA045170BD1B
:1008800041F480114FF0000E013C90E645EA060E5F
:100890008DE60CEA135594EA0C0F08BF95EA0C0F8D
:1008A0003FF43BAF94EA0C0F0AD150EA01347FF4D5
:1008B00034AF95EA0C0F7FF425AF104619462CE7AC
:1008C00095EA0C0F06D152EA03353FF4FDAE10460F
:1008D000194622E750EA410618BF52EA43067FF460
:1008E000C5AE50EA41047FF40DAF52EA43057FF4F0
:1008F000EBAE12E74FF0FF3C06E000BF4FF0010CFB
:1009000002E000BF4FF0010C4DF804CD4FEA410C5E
:100910007FEA6C5C4FEA430C18BF7FEA6C5C1BD02B
:1009200001B050EA410C0CBF52EA430C91EA030FAC
:1009300002BF90EA020F0020704710F1000F91EA09
:10094000030F58BF994208BF90422CBFD8176FEAD7
:10095000E37040F0010070474FEA410C7FEA6C5CA5
:1009600002D150EA013C07D14FEA430C7FEA6C5CAC
:10097000D6D152EA033CD3D05DF8040B704700BFD8
:100980008446104662468C461946634600E000BF26
:1009900001B5FFF7B7FF002848BF10F1000F01BDF8
:1009A0004DF808EDFFF7F4FF0CBF012000205DF8C3
:1009B00008FB00BF4DF808EDFFF7EAFF34BF012048
:1009C00000205DF808FB00BF4DF808EDFFF7E0FFE1
:1009D00094BF012000205DF808FB00BF4DF808ED32
:1009E000FFF7CEFF94BF012000205DF808FB00BF99
:1009F0004DF808EDFFF7C4FF34BF012000205DF87B
:100A000008FB00BF4A0011D212F5001211D20DD519
:100A10006FF47873B3EB62520ED44FEAC12343F004
:100A2000004343EA505323FA02F070474FF00000AE
:100A3000704750EA013002D14FF0FF3070474FF05D
:100A4000000070477BB972B90029BEBF00204FF08B
:100A5000004106E008BF00281CBF6FF000414FF0C6
:100A6000FF3000F075B8ADF1080C6DE904CE002937
:100A700009DB002B1ADB00F00BFFDDF804E0DDE9F9
:100A8000022304B07047404261EB4101002B1BDBA5
:100A900000F0FEFEDDF804E0DDE9022304B0404290
:100AA00061EB4101524263EB43037047524263EBF7
:100AB000430300F0EDFEDDF804E0DDE9022304B0BD
:100AC000404261EB41017047524263EB430300F047
:100AD000DFFEDDF804E0DDE9022304B0524263EBFF
:100AE0004303704753B94AB9002908BF00281CBF07
:100AF0004FF0FF314FF0FF3000F02AB8ADF1080C95
:100B00006DE904CE00F0C4FEDDF804E0DDE9022367
:100B100004B07047D0B500220B4B06460F46FFF7D6
:100B2000D7FCFFF76FFF0446FFF758FC0022074B86
:100B3000FFF7CEFC02460B4630463946FFF710FB66
:100B4000FFF760FF2146D0BD0000F03D0000F041FE
:100B5000704700BF2DE9F14F03F11C0402EB840C38
:100B60004FEA930B8A68CB680868496800F046F939
:100B70003CE9F0006040694072407B400BF1060E9A
:100B80004EE083EA134480EA134582EA134746BAEB
:100B900096EA3444604000F00F1684EA063420F0F0
:100BA0000F1684EA161054BA94EA0106724002F055
:100BB0000F1486EA043622F00F1486EA14124CBA97
:100BC0006540694001F00F1485EA043521F00F14E7
:100BD00085EA14115CBA67407B4003F00F1487EA82
:100BE000043723F00F1487EA141344BA44404DBA73
:100BF0004D4056BA56405FBA5F4087EA174886EACA
:100C0000174B84EA17464FEA38488BEA1B4485EABB
:100C10001B4788EA1B4580EA3440694072407B40AC
:100C200000F0703400F0803500F00F3040EA4400EE
:100C300040EAD50080EA900404F0332480EA84007E
:100C4000604001F0703401F0803501F00F3141EA6D
:100C5000440141EAD50181EA910404F0332481EA98
:100C60008401614002F0703402F0803502F00F32EE
:100C700042EA440242EAD50282EA920404F03324B2
:100C800082EA8402624003F0703403F0803503F09E
:100C90000F3343EA440343EAD50383EA930404F0A1
:100CA000332483EA84036340C943DB4381EA0004BD
:100CB00083EA044686EA020183EA014382EA334575
:100CC00083EA14435C4084EA00077FEA040A8AEA64
:100CD000024A8AEA010B87EA11488AEA374A80EA1F
:100CE000060181EA1A418AEA030A04EA0A00454039
:100CF00088EA040707EA0B0041408AEA0B0608EA83
:100D0000060084EA34428AEA3A4602EA0603584078
:100D10004540414087EA37438BEA3B4003EA0009FC
:100D200085EA090582EA0309464006EA0906714098
:100D300085EA010005EA3546464006EA314181EA86
:100D4000304181EA364606EA304686EA3546344086
:100D50000F4086EA010508EA050886EA36400240A7
:100D600088EA020881EA314213405C4080EA0203CB
:100D700009EA030987EA0907674088EA040806EADE
:100D80000A0601EA0B018AEA0B0425408AEA3A4482
:100D9000204045408BEA3B4B02EA0B02564084EA76
:100DA0000B04234059406E40694087EA364080EA90
:100DB000384080EA060380EA104481EA134585EA58
:100DC000344585EA17427D4082EA354180EA054094
:100DD0003CE9F0006040694072407B40BEF1010E8A
:100DE0003FF6CFAE20BC00F05FF828606960AA60D3
:100DF000EB60BDE8F08F00BF00F000BA80EA10148D
:100E000004F0F01480EA0410604081EA111404F048
:100E1000F01481EA0411614082EA121404F0F01423
:100E200082EA0412624083EA131404F0F01483EAA5
:100E30000413634080EA102404F47F4480EA042011
:100E4000604081EA112404F47F4481EA0421614076
:100E500082EA122404F47F4482EA0422624083EA94
:100E6000132404F47F4483EA0423634081EA50049A
:100E700004F0553480EA4400614083EA520404F0EF
:100E8000553482EA4402634082EA900404F0333429
:100E900080EA8400624083EA910404F0333481EAFA
:100EA00084016340704700BF82EA900404F0333449
:100EB00080EA8400624083EA910404F0333481EADA
:100EC0008401634081EA500404F0553480EA440010
:100ED000614083EA520404F0553482EA44026340DC
:100EE00080EA102404F47F4480EA0420604081EA10
:100EF000112404F47F4481EA0421614082EA12242F
:100F000004F47F4482EA0422624083EA132404F456
:100F10007F4483EA0423634080EA101404F0F01451
:100F200080EA0410604081EA111404F0F01481EAB0
:100F30000411614082EA121404F0F01482EA0412EF
:100F4000624083EA131404F0F01483EA041363404C
:100F5000704700BF2DE9F14F94464FEA930B8A6822
:100F6000CB6808684968FFF749FF0BF1060E33E0CC
:100F700083EA134480EA134582EA134746BA96EAA5
:100F80003444604000F00F1684EA063420F00F1657
:100F900084EA161054BA94EA0106724002F00F1463
:100FA00086EA043622F00F1486EA14124CBA654021
:100FB000694001F00F1485EA043521F00F1485EA29
:100FC00014115CBA67407B4003F00F1487EA0437C2
:100FD00023F00F1487EA1413BCE8F0006040694066
:100FE00072407B4000F0E03400F0103500F00F302C
:100FF00040EA540040EAC50080EA900404F033243B
:1010000080EA8400604001F0E03401F0103501F026
:101010000F3141EA540141EAC50181EA910404F02B
:10102000332481EA8401614002F0E03402F010359B
:1010300002F00F3242EA540242EAC50282EA920406
:1010400004F0332482EA8402624003F0E03403F0C7
:10105000103503F00F3343EA540343EAC50383EA30
:10106000930404F0332483EA8403634081EA324723
:1010700087EA134581EA354690EA060484EA034B81
:1010800082EA1B4280EA044484EA054483EA144A63
:1010900085EA14448BEA044B84EA374481EA0B4125
:1010A00081EA164104EA0A00454082EA04082BEA74
:1010B000080041408AEA0B0602EA060084EA34434B
:1010C0008AEA3A4603EA060778404540414088EA02
:1010D00038478BEA3B4007EA000985EA090583EABD
:1010E0000709464006EA0906714085EA010005EA5B
:1010F0003546464006EA314181EA304181EA3646CA
:1011000006EA304686EA3546344008EA010886EAAF
:1011100001052A4086EA364003405A4081EA3143BD
:101120001F407C4080EA030709EA070988EA0908AA
:10113000544088EA020806EA0A0601EA0B018AEA34
:101140000B0215408AEA3A42104045408BEA3B4088
:1011500003405E404240174079404D404E40E443DA
:10116000F64386EA18435D4085EA054083EA134367
:1011700086EA034183EA384284EA114383EA04435E
:101180005FEA3343BEF1010E3FF6F2AE1ED4BCE877
:10119000F0006040694072407B4020BCFFF784FE55
:1011A00028606960AA60EB60BDE8F08F2DE9E0413E
:1011B0004FF2F00280EA1031114080EA01304840DD
:1011C00041088208C3084FF0000E4FE700F01130CD
:1011D00001F0113102F0113203F0113340EA410005
:1011E00040EA820040EAC3004FF2F00280EA103188
:1011F000114080EA01304840BDE8E0812DE9F04F20
:1012000002F11C050646074600EB850851F8040B61
:10121000043A46F8040BF9D14FF0010CFFF7C6FF72
:101220005FEA302080EA0C001ECF41404A40534024
:101230005C401EC62000464517D04FEA4C0C1CF4FB
:10124000807F18BFACF1E50C2C2DE7D03C2D06D1EA
:10125000FFF7ACFF06CF41404A4006C6100006CF5C
:1012600041404A4006C61000D8E736E90F00FFF7B4
:10127000C5FD043D86E80F00F7D1BDE8F08F00BF43
:101280002DE9F04FB0E8FE0783B02DE9010790E8A3
:10129000005F4FF00A0006900198DB199CEA030CEE
:1012A00018EB3C4897EA080713EB375393EA3C4C9A
:1012B00018EB3C6898EA375724189EEA040E19EB9D
:1012C0003E4990EA090014EB305494EA3E4E19EB83
:1012D0003E6999EA3050CDE90489DDE9028949196E
:1012E0009AEA010A18EB3A4895EA080511EB3551DC
:1012F00091EA3A4A18EB3A6898EA355592199BEA0E
:10130000020B19EB3B4996EA090612EB365292EAB8
:101310003B4B19EB3B6999EA365613EB706393EA42
:101320003B6B18EB3B4898EA706013EB305393EA41
:101330003B4B5FEA3B6B18EB0B0898EA30505FEAD7
:10134000706014EB756494EA3C6C19EB3C4999EAC3
:10135000756514EB355494EA3C4C5FEA3C6C19EB30
:101360000C0999EA35555FEA7565CDE90289DDE931
:10137000048911EB766191EA3E6E18EB3E4898EADB
:10138000766611EB365191EA3E4E5FEA3E6E18EBFF
:101390000E0898EA36565FEA766612EB776292EAB2
:1013A0003A6A19EB3A4999EA776712EB375292EAAF
:1013B0003A4A5FEA3A6A19EB0A0999EA37575FEA4B
:1013C00077670190069801387FF465AF01BC80E82B
:1013D000005FBDE8000700E9FE0703B0BDE8F08F3D
:1013E00030B44FF0000310F8014B11F8015B013AE3
:1013F00084EA050443EA0403F5D1A3F101034FEAAB
:10140000D37030BC704700BF4FF0000310F8012BC1
:10141000013943EA0203F9D1A3F101034FEAD37082
:10142000704700BF30B411F8014B12F8015B6C40FB
:1014300000F8014B013BF6D130BC70472DE9F14F6C
:10144000F8C892E8005E19EB03095AEB040A5BEB5B
:10145000050B5CEB060C4EEB070E91E8E001A9FBD7
:101460000502AAFB0543E9FB6624EAFB6634A9FBF7
:101470000765E9FB6845B1E80003EBFB6836ECFB68
:101480006846EEFB6856ABFB0987ECFB6957EEFB41
:10149000696791E80202EAFB6148EBFB6158ECFBEB
:1014A0006168EEFB61784FF00001EAFB0951EBFB4C
:1014B0006961ECFB6971EEFB69814FF4A03C4FEA76
:1014C000154949EA06495FF0000AE9FB0C0A4FEAB0
:1014D000164646EA0746E6FB6C2A4FEA174747EAF4
:1014E0000847E7FB6C3A4FEA184848EA0148E8FB2E
:1014F0006C4AADB25544AF0805F0030507EB87070A
:10150000C01952F1000153F1000254F1000345F1FA
:10151000000420BC1FC5BDE8F08F00BF30B490E8C8
:101520003C10511D53F1000154F1000155F100012F
:101530004CF100014FEA9101494201F005015218B6
:1015400053F1000354F1000455F100054CF1000C77
:101550000CF0030C80E83C1030BC70472DE9F04FD4
:1015600090E8F00F00F140004FF0040E59E0F0B4A5
:10157000826BC36B04680525242687593C444FEAD7
:10158000724787EAF24787EA92273C4442684FEA6B
:10159000F21787EAB24787EAD2073C4440F8044B87
:1015A000032D08BF6FF01B0687593A444FEA734773
:1015B00087EAF34787EA93273A4443684FEAF317E9
:1015C00087EAB34787EAD3073A4440F8042B8759A0
:1015D0003B444FEA744787EAF44787EA94273B4441
:1015E00044684FEAF41787EAB44787EAD4073B44D4
:1015F00040F8043B013DC0D1A0F13C00076A3C44E7
:101600004FEA724787EAF24787EA92273C4402682A
:101610004FEAF21787EAB24787EAD2073C44C4632D
:10162000F0BC4FF0020288EA781C8CEAF84C0BEB15
:10163000BC1C8AEA090303EA080383EA0A039C4400
:1016400050F8043B9C4451F8043B9C44674444EAF2
:10165000050B0BEA060B04EA05034BEA030BE34414
:1016600084EAF42383EA34530BEBB30B87EA771C49
:101670008CEAF74C0AEBBC1C89EA080303EA07036F
:1016800083EA09039C4450F8043B9C4451F8043B12
:101690009C4466444BEA040A0AEA050A0BEA04037E
:1016A0004AEA030AE2448BEAFB2383EA3B530AEB50
:1016B000B30A86EA761C8CEAF64C09EBBC1C88EA75
:1016C000070303EA060383EA08039C4450F8043B3B
:1016D0009C4451F8043B9C4465444AEA0B0909EADE
:1016E00004090AEA0B0349EA0309E1448AEAFA23F6
:1016F00083EA3A5309EBB30985EA751C8CEAF54C89
:1017000008EBBC1C87EA060303EA050383EA070328
:101710009C4450F8043B9C4451F8043B9C44644472
:1017200049EA0A0808EA0B0809EA0A0348EA030832
:10173000E04489EAF92383EA395308EBB30884EAE1
:10174000741C8CEAF44C07EBBC1C86EA050303EA24
:10175000040383EA06039C4450F8043B9C4451F87C
:10176000043B9C44E34448EA090707EA0A0708EAFD
:10177000090347EA0307674488EAF82383EA3853F2
:1017800007EBB3078BEA7B1C8CEAFB4C06EBBC1C1B
:1017900085EA040303EA0B0383EA05039C4450F83B
:1017A000043B9C4451F8043B9C44E24447EA08064D
:1017B00006EA090607EA080346EA0306664487EADA
:1017C000F72383EA375306EBB3068AEA7A1C8CEADE
:1017D000FA4C05EBBC1C84EA0B0303EA0A0383EA18
:1017E00004039C4450F8043B9C4451F8043B9C4443
:1017F000E14446EA070505EA080506EA070345EA63
:101800000305654486EAF62383EA365305EBB30500
:1018100089EA791C8CEAF94C04EBBC1C8BEA0A03BC
:1018200003EA090383EA0B039C4450F8043B9C44FD
:1018300051F8043B9C44E04445EA060404EA0704EA
:1018400005EA060344EA0304644485EAF52383EACF
:10185000355304EBB304013A7FF4E5AEA0F1400048
:10186000BEF1010E7FF483AEA0F1400C9CE80F00A6
:10187000001949199219DB19ACE80F009CE80F0018
:101880004044494452445B44ACE80F00BDE8F08F4B
:101890002DE9F04786468C460846089E1546744654
:1018A0001946002B40F0C1808542B2FA82F245D938
:1018B0004AB1C2F1200300FA02FC954094402EFA8E
:1018C00003F343EA0C0C4FEA154EA8B2230CBCFB01
:1018D000FEF80EFB18CC08FB00F943EA0C439945CF
:1018E00028D9EB1808F1FF3704D2994502D9A8F19D
:1018F00002072B44A3EB0903A4B2B3FBFEFC0EFBCF
:101900001C330CFB00F044EA0344A04214D92C1908
:101910000CF1FF3304D2A04202D9ACF102032C44F3
:10192000241A43EA07401EB1D44000233460736098
:10193000BDE8F0874746DDE76346F1E792BB431B0E
:1019400001214FEA154EAFB2200CB3FBFEFC0EFB9B
:101950001C330CFB07F840EA0343984561D9EB18A8
:101960000CF1FF3004D2984502D9ACF102002B44AF
:10197000A3EB0803A4B2B3FBFEFC0EFB1C330CFB71
:1019800007F744EA0344A7424DD92C190CF1FF3361
:1019900004D2A74202D9ACF102032C44E41B43EA6F
:1019A0000040C0E7C2F120039540944020FA03F1C3
:1019B0002EFA03F34FEA154E9040AFB20343B1FB4A
:1019C000FEFC0EFB1C10190C0CFB07F841EA004151
:1019D000884522D969180CF1FF3004D2884502D914
:1019E000ACF102002944A1EB08019BB2B1FBFEFC63
:1019F0000EFB1C110CFB07F743EA01439F420ED973
:101A0000EB180CF1FF3104D29F4202D9ACF1020174
:101A10002B44DB1B41EA004193E76046E3E7614664
:101A2000F7E76046A4E76346B8E7834206D916B9EC
:101A3000002108467CE7C6E900E0F9E7B3FA83F73E
:101A40008FB9834201D3724508D8BEEB020460EB24
:101A5000030301209C461EB9002169E73846FAE7D6
:101A6000C6E9004CF8E7C7F1200CBB400EFA07F5B9
:101A700022FA0CF42EFA0CF1BA401C4320FA0CF3B3
:101A8000B8404FEA144901431FFA84FEB3FBF9F84A
:101A900009FB18300B0C08FB0EFA43EA00439A4589
:101AA00040D9E31808F1FF3004D29A4502D9A8F1D1
:101AB00002002344A3EB0A0389B2B3FBF9F809FB44
:101AC000183308FB0EFE41EA03418E452CD96118FC
:101AD00008F1FF3304D28E4502D9A8F10203214454
:101AE00043EA0040A1EB0E01A0FB02984145CE461F
:101AF000434602D306D14D4504D20138B9EB020E5C
:101B000068EB0403002EA7D0B5EB0E0261EB0301D6
:101B100001FA0CFC22FA07F3F9404CEA0303C6E988
:101B2000003199E74046C5E74346D9E710F8012B55
:101B300011F8013B012A28BF9A42F7D0D01A70470A
:101B4000034611F8012B03F8012B002AF9D1704745
:101B5000034613F8012B002AFBD1181A01387047ED
:101B60002DE9F04F8846D0F8201182460B6B1646BF
:101B70008FB053B10622183106F1200058F0A0FDB5
:101B800018B901200FB0BDE8F08F504604A9D8F86D
:101B90006050D8F88040D6F880704CF02FF80028BC
:101BA00052D1DDF820B0BBF1000F04D1DDF81CB03C
:101BB000BBF1000F27D042F20F71099B049A8B42B0
:101BC0000AD16FF47A63D31840F2657293428CBFE6
:101BD0006FF058036FF05B034046ABEB03094AF02C
:101BE00007FAD8F88C20034608F194010AB9D8F80E
:101BF0009020D8F850005D46CDE9009050461EF088
:101C000063FCCB46044604F59C530833BB42B8D36F
:101C1000336DB3F57A6F1ADDD8F85030B3F57A6FBB
:101C2000ACBF4FF0000A4FF0010A002D12DB07F5A0
:101C30009C5308339C4200F2CB80BBF1190F00F398
:101C4000C7804FF0020B3AE04FF0000BDBE74FF09C
:101C5000000AEAE7336E03EB4A03AB4215DA384673
:101C6000FEF7BCFB804620468946FEF7B7FB4FF0E7
:101C700033325B4BFEF72CFC02460B46404649468E
:101C8000FEF798FE002840F0A38007F59C53083328
:101C9000A342C0F09D80BBF1190F00F3998015F1AC
:101CA000550F31DB15F1500FCBDB15F14B0F2EDB50
:101CB00015F1460FB4BF4FF0040B4FF0050B204653
:101CC000FEF78CFB804638468946FEF787FB0246C6
:101CD0000B46CDE902230022424BFEF7F9FB0246F8
:101CE0000B4640464946FEF783FE98B10BF10A0BBE
:101CF000BAF1000F01D0ABF1020B306E401B58451A
:101D0000B4BF002001203DE74FF0010BD7E74FF0B3
:101D1000030BD4E74FF03332DDE90201304BFEF71D
:101D2000D7FB02460B4640464946FEF761FE10B11E
:101D30000BF1050BDCE728A3D3E90023DDE9020161
:101D4000FEF7C6FB02460B4640464946FEF750FEEC
:101D500010B10BF1020BCBE7BC4202D90BF1010B26
:101D6000C6E700221F4B40464946FEF7B1FB02463C
:101D70000B46DDE90201FEF73BFE10B1ABF10A0BA9
:101D8000B6E74FF03332164B40464946FEF7A0FB0C
:101D900002460B46DDE90201FEF72AFE10B1ABF167
:101DA000050BA5E70CA3D3E9002340464946FEF7FF
:101DB0008FFB02460B46DDE90201FEF719FE10B16A
:101DC000ABF1020B94E7BC4238BF0BF1FF3B8FE74E
:101DD0000020D7E6AFF300809A9999999999F13F3D
:101DE0003333F33F0000F83F2DE9F04F01298446DB
:101DF0008E4687B064D8002942D033A3D3E90023AC
:101E000033A7D7E9006734A5D5E900450FF2D00B19
:101E1000DBE900AB34A1D1E90001CDE9042334A30F
:101E2000D3E90023CDE9002333A3D3E90023CDE98F
:101E3000022333A3D3E900234FF000084FF0000939
:101E4000CCE90A01DDE90401CCE90C01DDE900017E
:101E5000CCE90E01DDE90201CCE910010020CCE95A
:101E60000089CCE90289CCE90467CCE90645CCE9D4
:101E700008ABCCE91223CCF8D0E007B0BDE8F08F76
:101E800021A3D3E9002322A7D7E90067CDE90423E2
:101E900021A5D5E9004522A3D3E900230FF2880B41
:101EA000DBE900ABCDE9002321A1D1E9000122A3A8
:101EB000D3E90023CDE9022321A3D3E90023BBE723
:101EC0006FF07400D9E700BF310BC0FF672633679E
:101ED000D89E05C15D9DBBCB07D57C362A299A6269
:101EE00017DD70305A01599139590EF7D8EC2F157A
:101EF00011155868874AB48EA78FF9640D2E0CDB34
:101F0000A44FFABE1D48B547D182E6AD7F520E51AF
:101F100008C9BCF367E6096A3BA7CA8485AE67BBFC
:101F20001F6C3E2B8C68059B2BF894FE72F36E3C65
:101F3000F1361D5F3AF54FA56BBD41FBABD9831F51
:101F400079217E1319CDE05B024B1870024837F0FF
:101F5000F7BB00BFCC560020500E002090B5104BB0
:101F6000A1B0994200AF18D18168283180233A4648
:101F7000012008F0CFFB6C4688B06A46094B4FF44D
:101F8000E651C2E905374FF400739383064B0748C7
:101F900042F8103F40F099FDA5468437BD4690BDFC
:101FA000080004E052F8060003000001F8AF050045
:101FB00008B50C4D0C4C2B79DA070AD5A3685B6980
:101FC000402120469847002140F6CD4038F0CCF91A
:101FD000F1E723691B685B06A36854BF1B69DB68D4
:101FE000EEE700BF682A002054AB050010B5114C85
:101FF000204654F0A6FB30B9BDE8104001210E4A3E
:102000000E4840F060BD2269A1681368204623F0A5
:10201000400313600B684FF4202206219847031EEB
:1020200006DABDE810400121054A044841F005BD2B
:10203000FFF7BEFF54AB050066F80600F8AF0500D9
:102040007EF806002DE9F04397B000AF06F07CFC67
:1020500004464422002107F1140058F09BFC44235D
:102060002146614807F1140242F028FC40B10321E7
:102070005E4A5F4840F027FD5C37BD46BDE8F0830F
:1020800003215C4A5A4840F01EFD387D06F0E8F80E
:102090006D4688B06A464FF40079574BDFF85C8193
:1020A000C2E90530A2F81C904FF4E651504842F8BE
:1020B000108F40F00AFD7B69AD46052BDCDD97F8FB
:1020C000480006F0D9F888B06A464D4BA2F81C903B
:1020D000C2E905304FF4E65142F8108F444840F011
:1020E000F4FCAD4697F8490006F0D2F888B06C468B
:1020F0002646444BA4F81C90C4E9053046F8108FDE
:1021000032464FF4E6513A4840F0DFFCAD46A54672
:102110003D4B3246636107F11C03A3614FF4E65166
:102120003348A4F81C90C4F8108040F0CEFC122371
:10213000AD463A46062107F13C0008F0BFFAA54635
:10214000324B3246C4E905304FF4E6512848A4F832
:102150001C90C4F8108040F0B8FCAD4697F84200DF
:1021600006F072F8A5462A4B3246C4E905304FF412
:10217000E6511F48A4F81C90C4F8108040F0A5FC5C
:10218000AD467B6C0321234A194841F056FC97F871
:102190004A0006F041F8A5461F4B3246C4E9053017
:1021A0004FF4E6511248A4F81C90C4F8108040F097
:1021B0008CFCAD4697F84B0006F03AF8A546174B55
:1021C0003246C4E905304FF4E6510948A4F81C90A2
:1021D000C4F8108040F079FCAD46FB6C0321104A36
:1021E000034841F02AFC47E706005651A4F80600D0
:1021F000F8AF0500BAF80600CDF8060003000001AC
:10220000D7F80600EAF80600F8F8060004F9060018
:102210000EF9060017F9060023F9060030F906004A
:1022200038F90600B0B52A4B00AF994204D001330B
:1022300099421CD0BD46B0BD264C2379D907F9D4AC
:1022400083681B684BB10121234A244841F0F5FB08
:10225000237943F002032371ECE70321204A1F484E
:1022600040F031FC237943F001032371F0E7194C6E
:102270002379DA07DED513F0040582681FD01168D0
:10228000184B194A6D468AB0002908BF13466A46A2
:102290001648D161C2E905034FF400731384144B4F
:1022A0004FF4135142F8103F0C4840F00EFCAD467D
:1022B00023796FF382032371FFF7C4FEBAE703218A
:1022C0000C4A064840F0FFFB237965F30003F2E770
:1022D000030056D1682A002046F90600F8AF050031
:1022E0005DF906001490070041F9060067F9060041
:1022F0000400000185F90600F0B583B0032100AFAA
:10230000394A3A4840F0DFFB6C468CB06A46384B9D
:10231000384D5361384B9361384BD361384B3B6038
:1023200040F20243BB80374B136207F1080313E905
:102330000300354B506211852C484FF4535142F83D
:10234000103F40F0C2FBA5460321304A274840F029
:10235000BAFB4FF0FF324FF0FF332D4837F016FA3B
:10236000044660BB2B4E2C4B1B782BB903212B4A08
:102370001E4840F0A8FBE7E707F0DAFF2B7901469B
:1023800023F003032B71002330461A4611F026FA7E
:10239000F8B10121224A154840F095FB2B799A07A4
:1023A0001AD5DB07D0D5FFF74DFE4FF0FF324FF0C7
:1023B000FF33174837F0EAF904460028D3D001214B
:1023C0002346184A094841F038FB20460C37BD46E1
:1023D000F0BD0321144ADEE7FFF734FE002142F28C
:1023E000676037F0C1FFD9E79BF90600F8AF050039
:1023F000B4F90600682A0020E1F90600EEF90600AB
:1024000000020103FCF906000500000308FA0600BB
:10241000500E00206E005651CC56002043FA0600A4
:1024200056FA060026FA060070FA0600002298B551
:10243000184B1948C3E90022184B00AF4360184BF2
:102440006C46036108F044FC1648174B4360174B79
:10245000036108F03DFC164B164A1B688AB0B3FBBB
:10246000F2F36A461449154851611549C2E9061349
:102470004FF400731384134B4FF4135142F8103F81
:1024800040F023FBA54600214FF4004037F06CFFDD
:10249000BD4698BD682A0020842A0020252200001D
:1024A000070056D1702A00205D1F0000080004E0DC
:1024B0002C0A002040420F0085FA0600F8AF050004
:1024C000ACFA060004000001B0B58AB004AFFFF713
:1024D000ADFF07F02DFF50B90121194A194840F00E
:1024E000F2FA4FF0FF3420461837BD46B0BD164B08
:1024F0006D463B60029007F1180313E903008DE875
:10250000030097E80F0011F0EFF9044698B158F076
:10251000F4F888B004AA0D4B4FF4E251C2E905303B
:102520004FF4007393830A4B064842F8103F40F083
:10253000CCFAAD46D7E7074854F02AFCD3E700BFF2
:10254000B6FA0600F8AF0500491F0000D4FA0600ED
:1025500003000001A00F00202DE9F04F91B000937F
:1025600002F004030293C2F3C20301338407054659
:102570000E46DDF868900392059340F0BB81041D80
:1025800030B1072909D86FF01B0011B0BDE8F08FFA
:1025900001F00706341DC6F10806009B4FF0000845
:1025A0004FF0040A591E4FF0FF3347460193C346CC
:1025B0005346CDF810800DB1009A2260059800288E
:1025C00000F3E8809848009A824203D397488242F9
:1025D000C0F0E080039AA4EB050E92074FEA9E003C
:1025E00000F103810F2F00F2B180002D00F0058172
:1025F00007F140020DEB020C019A0CF8200C0CF8CC
:10260000102C049801300490E7E07A285DD84B281C
:102610000ED8472859D829282DD8252852D054D843
:1026200020287AD02338D0F1000B4BEB000B74E05C
:102630004C382E2849D8DFE800F070484848484810
:102640004848484848484B484848484848484859F6
:10265000484B4B595959704B6D487048184B1848A6
:1026600048827F4B48484B487F0000204FF0000BCA
:102670004FF0040A38E001222A38C0B202FA00F012
:1026800010EA0E0F49D110F0625C2FD110EA020B54
:1026900043D06046013C5444B4FBFAF40AFB04F412
:1026A000002D61D0A3EB050CA444B4453FF66BAFFD
:1026B000002868D1042B47D159F8043B2360042338
:1026C00004342AE0019A013A01924FF0000B24E011
:1026D00011F8010C6C2834D1002011F8023C83461B
:1026E0006C2BC5D14FF0080A5346D3E709F107090F
:1026F00029F00709073424F00704F9E802AB35B1E3
:1027000006982044B0423FF63EAFC4E900AB4FF01C
:10271000000B08344FF0080A534611F8010F002847
:1027200078D0BBF1000F7FF470AF2528F5D14FF0C2
:10273000010B019B013301934FF0040AECE758466B
:1027400094E700208346A5E7082B02D06FF0150020
:102750001BE709F1070929F00709F9E80223C4E991
:10276000002308230834D8E768B9042B02D109F103
:102770000409A4E7082BE9D109F1070929F00709A1
:1027800009F10809EDE7059A013A059259F8042B79
:10279000009210E7039A900720D54FF0010CA4EBAC
:1027A000050E4FEA9E00BEF5007FCFD20F2FCDD889
:1027B000F5B107F140020DEB020E019AC0B20EF81E
:1027C000200C0EF8102CBCF1000F3FF41AAF60F093
:1027D0007F000EF8200C08F101080137C5F108024E
:1027E0004FF6DA7E0434069297E74FF0000CDAE7F2
:1027F000BCF1000F01D00136EFE702980236002845
:10280000EBD10098CDE90631FFF7A2F9DDE90631F9
:102810000644E2E7631BB3F5806F97D245B9A6F192
:102820000804E018B1E600BF50AA05001CB9070073
:10283000029A9B0828602B709DF81030C2B1EB7093
:1028400085F80280B8F1000F05D0002208A8C5F174
:10285000010C97420ED14FF0000AC5F101030DF1B2
:10286000200901930DF1300B574512D1601B8CE606
:102870006B70E5E710F8013B190608D504EB0C0E68
:10288000B64503F07F033FF67EAE04F8013B01320C
:10289000DFE7B8F1000F03D099F90020002A17DB19
:1028A000029BD3B11AF80B2004F8012B0022019BE4
:1028B00098182044B0423FF666AE99F8000000999F
:1028C00004F8010B2046039258F03DF8039A144493
:1028D0000AF1010A09F10109C6E799F8002055F843
:1028E00022300093029B009845F82230FFF730F920
:1028F000421CDCE76FF00D0047E600BF2DE9F04F0A
:1029000097B000AFD7F880B03B62CBF3C00304466A
:10291000894690F802A0FA62BB6141B94578007817
:102920000AEB800020444D4517D8A0EB0409E3785A
:10293000FB61BAF1000F02D01BF0010F16D1FB6949
:1029400053BBFB6A1BB1494620463A6A98474D463D
:1029500028465C37BD46BDE8F08F461C3046FFF781
:10296000F7F80130304409F10109DCE762682378A7
:102970007A62FA6A9900796104EB8301002A40F0D7
:1029800001810E464FF000084D4601EB0A094E4505
:102990004CD101EB0A0610E01BF0020FD1D02378D6
:1029A0009A007A61626804EB83017A62FA6A002A0B
:1029B00077D14D46904601EB0A061BF0050F0CBF80
:1029C00002230123FB62FB6906EB430A0BF00203BF
:1029D000BB625645BCD016F8021B16F8013C54F8F1
:1029E0002390AF4B994502D3AE4B994536D3BB6983
:1029F000002B40D0786A40F0EDFB00283BD0E94640
:102A00008AB06A46A84B53617B6AC2E906314FF42B
:102A100000731384A54B42F8103F00234FF412516A
:102A2000A34800F001FE023DCD46D2E716F8013B77
:102A3000F96254F82300FFF78BF8D7F88430F96A6D
:102A400001304BB1D7F8883098453EBFD7F8843075
:102A500023F8180008F10108054498E7BB6923B181
:102A6000786A40F0B7FB0028C9D11BF0010F05D1EF
:102A7000FB6AED1AADE7BB6A002BAAD04846FFF708
:102A800067F8D7F8843053B1D7F8883098453FBFFE
:102A9000D7F88420431C22F8183008F101080544B7
:102AA00097E7BAF1000F73D01BF0040673D0D0463D
:102AB000002607F1480052463B61B96257F043FFD8
:102AC000B96A3B6901EB0A02BA62FA69F969520014
:102AD000FA60BA6A02EB41023A610BF00202BA6094
:102AE0003A69B96A8A4258D162781BF0020F18BF5E
:102AF00000217A6208BF4FEA5801B2181BF0010F9B
:102B0000D2B240F09F801BF0040F14BF404600205B
:102B1000BB616270A070E17020463A6A7969FB6A15
:102B20009847051EFFF614AFBB69414623707B6AC8
:102B30003A6A6370FB6984F802A0E37007F1480009
:102B4000FB6A9847B0F10008C0F2B4807B69A9EB3A
:102B50000A01C91AFB683A6AC91AD7E90A039847F1
:102B60000028C0F2A9804FF0000BA84408EB000534
:102B700007F1380AB34567D300213A6A0846FB6A71
:102B80009847E5E656464FF0000807F1380092E70F
:102B90005646D04696E7B04694E7BA6A12F8021B4A
:102BA00012F8015CBA6254F825003D4A904202D303
:102BB0003C4A90421ED3BA6932B1786A7B6040F0D9
:102BC00009FB7B6800288BD1BA6802BB08F1280298
:102BD00007F1300C08F10100944407F1580208F1A4
:102BE000020852FA80F00CF8101C5FFA88F800F81E
:102BF000105C75E7BA693AB1786A7B6040F0EAFA2E
:102C00007B6800287FF46CAF1BF0010F09D006F140
:102C1000280207F13000711C161806F8205CCEB2AD
:102C20005EE71BF0040F3FF45BAF08F1280207F1E9
:102C3000300008F1010102EB000808F8105C5FFAAF
:102C400081F84DE7002063E71BF80A3054F8239021
:102C500087F83730D7F88430FBB133F81B80012177
:102C60003A6AFB6A07F137009847002824DB0544DD
:102C7000B8F1000F06D14846FEF76AFF00F10108DF
:102C80001FFA88F8414648463A6AFB6A9847002886
:102C900012DB05440BF1010B6CE7D7F88480DEE70B
:102CA00050AA05001CB9070023FB06000400000120
:102CB00078AE050045464BE6054649E6014B1860EF
:102CC000704700BF3000002080B505460E4617460D
:102CD000984637F085FB034657F0B0FE0446DFF810
:102CE0001890424649F8003039463046A84754F813
:102CF000090001F091FB00BF0800000000B516229A
:102D000057F09CFE024B1A504FF0FF305DF804FB69
:102D10000C0000000F2800B508D957F08FFE0922DB
:102D2000074B1A504FF0FF305DF804FB2822054B8B
:102D300002FB0033D3E8AF3F002BEED00020F3E7D7
:102D40000C0000003C0000202823434330B50D490F
:102D500008330B44D3E8AF2F92B1541ED3E8EF5F92
:102D6000954204D1C3E8EC4FBCF1000FF6D1F1D18C
:102D7000012A05D12823584300230A180B50536019
:102D800030BD00BF3400002038B504461546FFF7BB
:102D9000C1FF00280BDB094A59B1282303FB042398
:102DA0005B688B4205D057F049FE054B1D50002053
:102DB00038BD28235C431059FAE700BF34000020D7
:102DC0000C00000038B504461546FFF7A3FF0028A5
:102DD0000DDB28236343074AD0184068086015B10B
:102DE0000C3313442B6028235C43105938BD00205A
:102DF000FCE700BF3400002070B500254FF0FF3322
:102E00004FF0FF32174836F0B5FB174BD3E8AF2F22
:102E100082B10135102D03F12803F7D157F00EFED2
:102E200017224FF0FF35114B1A500E4840F019FA97
:102E3000284670BD28246C43D3E8EF0F0130C3E867
:102E4000E10F0029F8D10A4E331932515A6004F1CA
:102E50000C00304453F066FD04F12000304453F080
:102E600088FFE2E7400C00203C0000200C0000003E
:102E70003400002010B40446104628225443084B66
:102E80001A191951506040B1C26832B10C34234450
:102E900040F2051210BC40F0D3B910BC704700BF1F
:102EA00034000020F8B50546FFF734FF00281ADB90
:102EB00028246C430D4F04F10C063E444FF0FF32C2
:102EC0004FF0FF33304636F055FB3B195B683859FD
:102ED0009B6898470446304640F0C3F92846FFF700
:102EE00033FF2046F8BD4FF0FF34FAE734000020EE
:102EF0002DE9F047058B04462807904611D4022996
:102F000005F0070540F0CC80204640F010FC78B179
:102F10000138218B042811D8DFE800F0C2106D853C
:102F2000950001290CBF45F0100545F020052583CB
:102F300088F31188BFF36F8FBDE8F08701F0070AAF
:102F4000AA4500F0A5800027B9463E46A368002B9D
:102F500000F0BC8041F00801218388F31188BFF3A1
:102F60006F8FA168002900F0BA800D68002900F079
:102F7000B680334652462046D1F80480C047002D23
:102F800076D02B6829461D46F0E701F007035A1F4B
:102F9000012A1BD8002221F00701062B276889B2DD
:102FA000C4E9002209D13B4603E0628B013262830F
:102FB0001B68002BF9D141F002012046218340F02B
:102FC000B6FB00287AD041F0200176E0042B0AD12C
:102FD00021F0070189B22046218340F0A8FB10B1FF
:102FE00041F020012183218B01F0070AAA454FD02F
:102FF0000027B946AAE7236921F0070141F006013D
:10300000062DD3F8009021832DD1B9F1000F3FD0C8
:1030100041F00801218388F31188BFF36F8F2046A8
:103020003949C84729E021F00701236941F004012B
:1030300089B2042DD3F804902183E6D000274FF005
:10304000040A3E4682E721F00701236941F00501A9
:1030500089B2052DD3F808902183D6D000274FF0F0
:10306000050A3E4672E700274FF0060A3E466DE726
:103070002B4687E7B9F1000FD1D1EFF31188202358
:1030800083F31288BFF36F8F238B23F0080323830E
:10309000258BEA062ED525F01003238305F00705BE
:1030A0006669218B002EBFF670AF00232768C4E944
:1030B000003321F0070141F001012183218B4FF002
:1030C000000901F0070AAA457FF440AF002F9CD009
:1030D00041F00801218388F31188BFF36F8F002F1F
:1030E000C8D03D68394633465246204640F04BFB37
:1030F0002F46F4E7AB067FF51BAF25F020032383B3
:1031000005F0070500E700BFB33704002DE9F047DD
:10311000044607464FF00109DFF8508014B93846DD
:10312000BDE8F08794FAA4F5B5FA85F509FA05F338
:103130002E0108EB05156FEA030A24EA03042B7B32
:10314000002BEBD058F806301B694BB94644736826
:1031500004222846196807EA0A0700F051FADDE759
:10316000284698470028D9D1F0E700BF50B00500A5
:1031700030B5002289B00F490F4853F0F1FF00220B
:1031800000230024CDE906230E230C4DCDE90334A2
:103190004FF440722846CDE90144094B0949009497
:1031A00036F004FE0849284653F0EDFD204609B0EC
:1031B00030BD00BFCD31000070190020D0100020BC
:1031C000A534000010750020D7FB0600014836F03A
:1031D000B7BA00BFF00D00202DE9F04780461F4828
:1031E0000F4640F09FFB0646002830D000252846B9
:1031F000BDE8F087237B6BB12368DB680BB1204609
:10320000984723681B69D3B963680422204619686C
:1032100000F0F6F9013610344C45EBD3B8F1000F4D
:10322000E5D0002DE2D02846FFF770FF0546002FBD
:10323000F7D000214FF4A47037F096F8F1E720465C
:1032400098470028E0D00AFA06F31D43E2E7054656
:103250004FF0010A024CDFF80C90DDE7A82A0020AD
:1032600050B0050060B00500014B53F820007047D6
:10327000ACCA060008B5034608462BB1044A1360E1
:1032800000F05EFC002008BD6FF01500FBE700BFFA
:10329000B402002010B5044C237813B9034836F06B
:1032A0004FFA0123237010BDCD560020F00D0020F1
:1032B00010B50446064840F035FB3CB1054BD3E859
:1032C000EF1F0139C3E8E21F002AF8D110BD00BF8B
:1032D000A02A0020A42A002000200146034BD3E8A6
:1032E000EF0FC3E8E21F002AF9D17047A02A00209F
:1032F00070B5FFF7F1FF0546074C084EB44200D306
:1033000070BD63685B792BB123685B6813B1294694
:10331000204698471034F1E750B0050060B0050032
:1033200010B5044C0449204640F09BF8034B1C6048
:1033300010BD00BF6C0B002098CA0600982A002020
:1033400008B50023074A4FF400411370064A0748A6
:103350001360074A1360FFF78DFFBDE80840FFF7D1
:10336000DFBF00BFCE560020A02A00202139040074
:10337000A42A0020014600220023014840F092B810
:103380006C0B0020014840F028B900BF6C0B0020F6
:10339000024B0146186840F074B900BF982A00201B
:1033A000014840F0A9B900BF6C0B002070B5264B56
:1033B0001878002847D0FFF7E5FF054670B1234B8A
:1033C000D3E8EF1F0139C3E8E21F002AF8D1204CEF
:1033D000204EB4422DD32846FFF7DAFF1E4B1F4C78
:1033E0001B68002B19DD53F074FE4FF47A72A0FBBA
:1033F000020302FB0131C30B43EA4143D4E900203D
:103400009B1A40F2E9324FEAD13161EB000193425D
:1034100071F1000101D3FFF76BFFD4E9003213F51E
:103420007A7342F10002C4E90032BDE87040FFF750
:10343000B7BF63685B7923B12368294620461B68C0
:1034400098471034C5E770BDCD560020A42A00204F
:1034500050B0050060B00500A02A002068190020C7
:1034600070B50D4D297861B90120FFF7B5FE0B4C01
:103470000B4EB44206D3FFF799FF0028FBD101237E
:103480002B7070BD63685B791BB1236820469B6815
:1034900098471034EDE700BFCE56002050B005002D
:1034A00060B0050000212DE9F0470846FFF794FEC3
:1034B000044658B340F267684FF0000957F0BEFA6F
:1034C0001B4B1C4A1B58136033B11B4B1B68092B49
:1034D00002DD1A4836F034F90025194FDFF85CA0F8
:1034E00044B12046FFF712FE044618B94FF0FF38EA
:1034F0004FF0FF39FFF75AFF064628B9B5B94246E3
:103500004B46504636F042F93546E9E74FF0FF3872
:103510004FF0FF39D2E72B689B691BB10022284688
:10352000114698471035BD42F5D3E8E7054DFAE757
:10353000080000009C2A0020A42A0020F00D002092
:1035400060B0050050B0050013B5184840F0EAF926
:10355000174B1B7873B1EFF31184202383F3128888
:10356000BFF36F8FFFF722FF84F31188BFF36F8FD4
:1035700002B010BD0F4B1B68002BF9D050B90022D0
:1035800000230D48CDE900234FF40042002337F01B
:10359000A9F9EDE70928EBD1074853F0EDFD0748FD
:1035A00002B0BDE8104036F0CBB800BFA42A00201E
:1035B000CE5600209C2A002070190020F00D00201B
:1035C00010B5064B04461B6898472146A060044886
:1035D0003FF0E4FFBDE81040FFF7B6BFB4020020A3
:1035E0006C0B0020044A054B9B1AB1EBD30F34BF80
:1035F00052F831000020704778AE050050B0050049
:10360000084B10B4C31A44681B110133237143687B
:103610009A7101224368196043685A7110BCFFF720
:1036200039BE00BF50B005002DE9F04F8FB0C1F397
:103630004A2804AF0D469146B8607B600C0DB8F186
:10364000000F63D000264FF0040B4FF00A0A07F179
:103650001403C7F80C80C7E907667E620193CDF8B2
:1036600008B0CDF800A007F11C0332464846F968BF
:10367000FFF744F9B0F5006F03461CD36C468AB0DF
:10368000D9F8041004AB26481A46C3E9050140F2F4
:10369000FF71D9614FF400711984224B42F8103F39
:1036A0004FF4125133462048FFF7BEFFA5462C3792
:1036B000BD46BDE8F08FC0F30A0804F117001844B6
:1036C00020F0070080083B60FFF754FE68F35325A5
:1036D000044690B13B6800F11001C7E9083607F1D4
:1036E0001403F961CDE900A3CDF808B048460F4AAC
:1036F000F96807F11C03FFF701F968F353252A461F
:1037000020467B68B96840F03FF9D0E704F1170024
:1037100020F007008008FFF72DFE0446EDE700BF0C
:10372000ECFB06000400000190AE05005D390400CA
:103730002DE9F04F87B00446DDE9105ADDE9126942
:103740000F4693469846A6B31021334652460020B2
:10375000CDF80090CDF81490FEF7FEFE014605F17D
:1037600017000844144B04F007040BF0070BE400A7
:1037700020F0070003EA412344EA8B1480081C432D
:103780000391FFF7F7FD44EA0554054640B13EB109
:10379000334652460399CDF800901030FEF7DCFE18
:1037A000434622463946284607B0BDE8F04F40F070
:1037B000EBB83146D3E700BF00FE0F00406820B1F0
:1037C000034BC01A40F3CF0070474FF0FF307047F3
:1037D00078AE05000EB403B503AB53F8042B0146D5
:1037E0000448019301F0B2F902B05DF804EB03B0B4
:1037F000704700BF9D3A0400CA0605D48B064CBF33
:1038000002490349FFF7E6BF704700BF5660070053
:103810002BFC06002DE9F04F89B09B46149B9DF8C8
:103820004CA00693159B04460593169B0D469046A7
:10383000179E0493BAF1000F00F09D8006F4807388
:10384000079340F089F806F00209024600283ED0AE
:1038500020469149FFF7BEFF0746B9F1000F08D097
:1038600016F0440F35D12A4620468C49FFF7B2FFA7
:10387000074406F0010353B1894B204653F82A2030
:10388000884B8949002A08BF1A46FFF7A3FF06F4B0
:103890008073002B49D006F00803002B63D1B8F1E8
:1038A000000F66D0424620468049FFF793FF054649
:1038B000069B3D44002B6DD1049B002B73D1F30775
:1038C00000F1E48031462046FFF796FFD8E0074636
:1038D000C3E7774B18680028CAD0764B4FF47A7943
:1038E0001B684FF46161B5FBF3F5B5FBF0F300FB2A
:1038F000135509FB05F5B3FBF1F2B5FBF0FE4FF0F4
:103900003C0C01FB123100FB1E55B1FBFCF309FB23
:1039100005F5B5FBF0F50CFB131120460091CDE940
:1039200001E56549FFF756FFA2E706F00803EBB192
:10393000624B204653F82A206149FFF74BFF0546AA
:10394000B8F1000F05D0424620465849FFF742FF24
:103950000544BBF1000FABD05A4620465949FFF74A
:1039600039FF0544A4E74FF0000BE1E706F0080536
:10397000E6E745469CE7BBF1010F069B06D1002B0D
:1039800064D1049B002B7BD000250CE0002BF8D0E9
:103990004D485CE04D48069B22464D493FF0E9FB0F
:1039A000049B002B68D0DFF82C81DFF82C91049F5A
:1039B0003146102F204628BF10274FF0000BFFF78D
:1039C0001BFF5D4545DC059B494620461A78FFF7FD
:1039D00001FF4FF0010B1BF0070F03D141462046BA
:1039E000FFF7F8FE5F453BD9059B4946204613F893
:1039F0000B20FFF7EFFE0BF1010BBBF1100FEAD12B
:103A00004FF0000B20463549FFF7E4FE5A46059B70
:103A100020469A5CA2F120015F2928BF2E2230495E
:103A2000FFF7D8FE0BF1010BBBF1100F1DD01BF0FF
:103A3000070F03D141462046FFF7CCFE5F455A46AB
:103A4000E5D841462046FFF7C5FEEBE71F4855463F
:103A5000A1E741462046FFF7BDFE0BF1010BB0E7A1
:103A600020462049FFF7B6FEC5E7059B3B4405937A
:103A7000049BDB1B04939AD1BAF1000F7FF41FAFB4
:103A8000204609B0BDE8F04F3FF0FBBF2046054A95
:103A90000549FFF79FFE15E733FC060037FC0600DB
:103AA000BCCA06002EFC0600264C07005CFC060083
:103AB000B02A0020AC2A002040FC0600D0CA060034
:103AC00060FC060066FC0600CB3A04009D3A040048
:103AD0004D4B000073FC06006BFC060075FC0600F5
:103AE000D785070071FC060042F20F7373B58B4255
:103AF00028BF0B4605680446052168460D4A3EF07E
:103B00000DF90646636828460B225B680A493FF0B8
:103B1000AAFF63683246694628465B683FF0A3FF08
:103B200063681B2228465B6804493FF09CFF02B093
:103B300070BD00BFF60E070093FC060077FC060080
:103B400000210123064A904206D8064A01B9012302
:103B50001360054B18607047012140085B00F2E7D5
:103B600040420F00AC2A0020B02A0020F8B50D46D4
:103B70000446064F4618B44201D12846F8BD14F851
:103B8000011BBB6801485B689847F4E790AB0500F0
:103B9000014B03600020704718CB060008B50448AD
:103BA0003FF03FFBBDE8084002483FF03ABB00BF92
:103BB000D9FC06000EFD0600014839F0D1BD00BF5A
:103BC00018CB060038B5044618B90F4B0F485B6890
:103BD00098476168B1F5683F10D0B1F5680F0DD016
:103BE0000B4DA9420AD011F46861206807D0014644
:103BF000084852F05EFE00232360656038BD142241
:103C000056F0C8FEF9E700BFEC0A00203CFD0600B4
:103C10002C5F5CA9E02F002008B560B34368B3F5C2
:103C2000683F0ED0B3F5680F18D0144A934220D0E5
:103C300000684FF0FF324FF0FF3335F09BFC58B176
:103C400015E001220368D3E8EF1F002903D1C3E880
:103C5000E02F0028F7D10AD1002008BD0368084AE8
:103C60001B7803F5807352F82330002BF4D00548FD
:103C7000F3E70548F1E76FF4E040EEE72C5F5CA95D
:103C800000000350E98FFFFFEA8FFFFF08B520B364
:103C90004368B3F5683F09D0B3F5680F13D0114AF4
:103CA00093421DD0006835F0DDFC14E0002203686B
:103CB000D3E8EF1F012903D1C3E8E02F0028F7D193
:103CC00009D0094808BD00210368084A1B7803F59C
:103CD000807342F823100020F4E76FF4E040F1E72E
:103CE0000348EFE72C5F5CA9E98FFFFF000003505A
:103CF000EA8FFFFF10B5044618B91D4B1D485B68DD
:103D000098476368B3F5683F2FD0B3F5680F2CD0A0
:103D1000194A934219D1236803BB4FF0FF324FF089
:103D2000FF332146154835F045FB08B923681BB918
:103D30000F4B13485B68984714220021206856F007
:103D400029FE4FF46863636008E0B3F5683F0DD85F
:103D50003A2B03D040F6BA629342DED1206852F08B
:103D6000E1FD636843F03A03636010BD054AF3E781
:103D7000EC0A00203CFD06002C5F5CA9E02F00202F
:103D800062FD06003A00003A08B5064940231422B5
:103D9000054852F080FDBDE808400449044839F068
:103DA000A3BD00BFE02A0020E02F002020CB0600AA
:103DB00034CB06002DE9F04706460C4600AF00293B
:103DC00036D0D1E90012E9468AB06D46A3684FF0BB
:103DD000050AA8461F48C5E90723C5E9050148F8B3
:103DE00010AF002342464FF421511B48FFF71CFC43
:103DF000D4E90312CD466369AD461848C5E90723E7
:103E0000C5E90501C5F810A0002342464FF4215131
:103E10001148FFF709FCCD46E3690121104A0E481D
:103E20003FF00BFEA36901210E4A0B483FF005FE4F
:103E3000012E07D1EFF305830B4A31460648103BAC
:103E40003FF0FBFD2146304635F0EEF8BD46BDE8BB
:103E5000F08700BF8FFD0600B0AF0500BEFD060075
:103E6000EDFD0600FCFD06002AFE060030BFFFF750
:103E7000FDBF00BF2DE9F04105460B4EDFF82C8059
:103E8000324606EB0807CC1B2046094956F05BFD7D
:103E9000A01942460021083C56F07CFD6C6707F1F2
:103EA0000800BDE8F08100BF000000000C00000029
:103EB00060B00500074A936893F90E10002907DBEC
:103EC000926993421FBF044A536843F08053536082
:103ED00035F00ABFC04B002000ED00E070B52A4C61
:103EE00006460D4629482A493FF066FEA36ADB06CE
:103EF00047D5264827493FF05FFE1120A36A1C07DB
:103F000004D5224824493FF057FE12201E4CA36AD4
:103F1000990712D521491D483FF04EFE636BA26AF6
:103F2000120609D501211E4A18483FF086FD1EB130
:103F3000A36A23F08003A3621320134CA36ADE0755
:103F400004D5124817493FF037FE1420A36A9C0697
:103F500004D50E4814493FF02FFE15200A4B9A6AEB
:103F6000D10658BF9A6A9A6A920642BF5A6A22F4E8
:103F700000525A629A6A42F0FF029A6200232B7042
:103F800070BD1020BAE700BF00ED00E0B0AF050043
:103F90003DFE060053FE060086FE060099FE060062
:103FA000B1FE0600C7FE0600E6FE060010B5244C72
:103FB000244925483FF000FEA36A99013ED52248D6
:103FC00022493FF0F9FD1E20A36ADA0104D51E48FC
:103FD0001F493FF0F1FD1F20194CA36ADB0204D5F5
:103FE00019481C493FF0E8FD0220A36A1C0304D5D0
:103FF000154819493FF0E0FD2120114CA36A5903EF
:1040000004D5114815493FF0D7FD2220A36A9A0331
:1040100004D50D4812493FF0CFFD2320084CA36A78
:10402000DB0304D508480F493FF0C6FD2420A36AEE
:104030006FEA03436FEA1343A36210BD1D20C3E779
:1040400000ED00E015FF0600B0AF05002DFF0600F3
:1040500040FF06005AFF060084FF0600A2FF06008C
:10406000C7FF0600E1FF060070B5294C06460D4665
:10407000284829493FF0A0FDA36AD9043CD525482A
:1040800026493FF099FD1720A36A1A0504D5214857
:1040900023493FF091FD18201D4CA36A9B0512D5C2
:1040A0001C4820493FF088FDA36BA26A100409D583
:1040B00001211D4A17483FF0C0FC1EB1A36A23F43A
:1040C0000043A3621920124CA36A590504D5114874
:1040D00016493FF071FD1A20A36ADA050ED50D4886
:1040E00013493FF069FD1B20094A936A43F47F435B
:1040F000936200232B7070BD1620C5E7A36A9B0452
:10410000F2D504480B493FF057FD1C20ECE700BFF7
:1041100000ED00E0B0AF05000C0007002200070032
:1041200086FE0600330007004C0007006100070010
:104130007C000700E6FE06002DE9F0418AB0664BE0
:104140000446D3F80480002600AFC8F3080586F3C0
:104150001188BFF36F8F02F07F43B3F17F4F07D118
:1041600002F00C03082B14D15C495D483FF024FD9C
:10417000002634465B4B1C600023FB71EB1E092BB1
:1041800000F28980DFE803F00A7F827C87878787D7
:10419000878510074CBF0C460126EBE75249504873
:1041A0003FF00AFD00234C4DFB71EB6A9A0705D5E1
:1041B0004E494B483FF000FD002332E0EB6A002BF4
:1041C00001DA4B49F5E7EB6A5B00F5D5494944480C
:1041D0003FF0F2FC6B69A26943F480736B61BFF33B
:1041E0004F8FBFF36F8F6B6932F8022C23F480730B
:1041F0006B61BFF34F8FBFF36F8F4DF602739A421F
:1042000008D0AB6ADBB273B30120F91DFFF766FE7D
:10421000034606E023680121374A31483FF00DFC90
:104220002368FA79DAB907F1080504F1200C2A4667
:1042300020686168083403C264451546F7D17A6A7C
:10424000002E44D0C2F3080121B96FEA52226FEA6E
:1042500042227A62184607F10801FFF7ABFD2837C2
:10426000BD46BDE8F081AB6A13F47F4F04D0012056
:10427000F91DFFF7F9FECBE7AB6AB3F5803F9BD39F
:10428000FFF794FEC4E70020F91DBFE70020F91DE9
:10429000EFE71A498DE71A4A18F4F87FE8468AB022
:1042A000184B18BF13466A461749103DC2E905135B
:1042B0004FF400731384154BD56142F8103F00236F
:1042C0004FF411510648FFF7AFF9C54674E722F4E1
:1042D000FF7222F00102BCE700ED00E0C20007001F
:1042E000B0AF050000300020ED000700040107001A
:1042F0002501070033010700520107006E01070086
:10430000A9000700940007009201070004000001C3
:10431000044B5A6942F010025A615A6942F48062B1
:104320005A61704700ED00E0EFF30880EFF3098178
:1043300001B57246FFF700FF01BD00BF002080F30A
:104340001488BFF36F8F002080F30A8880F30B88F6
:1043500033F07CFC002011490860BFF34F8F1048F8
:1043600080F3088800F032F8202080F311880D488F
:104370004FF0AA014FF4006252F00EFA09484FF4D0
:104380000061401880F30988EFF31480022108438C
:1043900080F31488BFF36F8F00F006F994ED00E00E
:1043A00030710120F0570120002318460649D1F84A
:1043B0009020C2F30722934200DB7047C1F8983087
:1043C000C1F8A0000133F6E700ED00E010B572B6C9
:1043D000002484F31388FFF7E7FF23464FF0FF30F4
:1043E0000C4A03F120010133102B42F82100F8D1CF
:1043F00000234FF0FF30074A03F160010133102B17
:1044000042F82100F8D162B6BFF34F8FBFF36F8F30
:1044100010BD00BF00E100E0084B9B6883420BD158
:10442000EFF3058343B1064B5A6842F080525A605D
:104430005A6A22F400425A6252F0AFBDC04B0020CB
:1044400000ED00E06FF00A01094A9368C3F890108C
:104450000849C3F88C004B6843F080534B6000233D
:1044600083F31188BFF36F8F9368D3F89000704780
:10447000C04B002000ED00E0EFF31183202383F315
:104480001288BFF36F8F4FF00061094A9369936000
:10449000084A5160596F084A11600021D3F88C20F6
:1044A000C3F88C1082F31188BFF36F8F704700BF81
:1044B000C04B002000ED00E0FC2F00200E498A6870
:1044C0004FF030001044EFF3098C80E8F01F744681
:1044D0007046FFF7D1FFA64607498A6802F130000F
:1044E00090E8F01F8CF3098802F1000004B53FF05A
:1044F0006BFBBDE804407047C04B00201EF0040F6A
:104500000CBFEFF30880EFF30980816911F8021CFA
:104510000229FFD001B53FF044FB01BD40B20028A5
:1045200007DB01234109034A00F01F00834042F8E2
:104530002130704700E100E040B200280CDB01228E
:104540000649430900F01F008240203341F8232030
:10455000BFF34F8FBFF36F8F704700BF00E100E0E4
:10456000054B420953F82220012300F01F0003FAF3
:1045700000F01040704700BF00E100E040B20028AA
:1045800001F10101ACBF00F16040064B4FEA41115F
:10459000C9B2ABBF00F5614000F00F0080F8001316
:1045A0001954704714ED00E00B4A08B50B4B22F08C
:1045B0007F029A60BFF34F8FBFF36F8FD3F88820CD
:1045C00022F47002C3F8882034F01EFE35F0A6FFF6
:1045D00000F04AF834F058FE0000000000ED00E062
:1045E00042F8203C009B0B4942F81C3C019B21F007
:1045F000010142F8183C029B42F8081C42F8143CA6
:104600004FF0807342F8043C0023203A0265C0F862
:104610008C307047C92C00000C4B15469860426FD7
:104620000B4B0E461A60436E83F30B882C4686F3C1
:1046300009884FF00000074B984720464FF00001D3
:104640004FF000024FF00003034C2047C04B002006
:10465000FC2F0020D13B0400C92C00001022014B8C
:104660001A61704700ED00E0002320210348C218C2
:104670000133452B82F80013F9D1704700E100E0C7
:1046800008B5EFF30583064A103B02EBC30152F86D
:10469000330049688847BDE80840FFF70BBC00BFFE
:1046A000CCAB050037B50546144B18681B79009054
:1046B0008DF8043005B3124C44220021204656F0F8
:1046C00069F92B68052123606B6868466360AB68F5
:1046D000A360EB68E3602B6923616B696361AB697D
:1046E000A361EB69E361074B1B68236200F036FDB1
:1046F0004421204600F032FD03B030BD9CB10500DE
:10470000D0560020003000201FB5094C094A23462E
:104710000121094800F012F900230393074B0121FE
:10472000E41A01A80193029400F012F904B010BD3C
:10473000000007200000002044CB0600A00F00204E
:1047400010B50C7A0B6804F01F0223F01F031A4304
:10475000CB68640923F01F03054943EA440343F08F
:104760000103C1F89800C1F89C20C1F8A03010BD29
:1047700000ED00E010B50A4BD3F89030C3F30723E7
:10478000013B984208D901210346064A06483FF0FA
:1047900054F96FF0150010BDFFF7D2FFFBE700BF23
:1047A00000ED00E0A9010700B0AE05002DE9F04FD3
:1047B0008946144606464FF00008514D85B0C8455D
:1047C00027DAD6F804A0BAF1000F44D0BAF11F0FCF
:1047D00017D91AF01F0F14D1D6F800B01BF01F0F15
:1047E0000FD158463FF032FA07460AEB0B0001386A
:1047F0003FF02CFA874210D06FF01507414A3B4634
:1048000001E04346404A012140483FF016F96FF06D
:104810001504204605B0BDE8F08F17F1160FEDD056
:10482000BC42EBDDC5F89870D5F89C10C5F89870BF
:10483000D5F8A03021F01F0143F01F0BD6E900325C
:104840001A44994202F1FF3A1DD1D34507D13146AE
:10485000F8B23FF004FA08F101080C36AFE7314630
:10486000C5F89870D5F89C3022F01F0203F01F03A2
:104870001343C5F89C30E0B23FF0F1F910F1160F88
:10488000C5D0441CE7E7C5F89870D5F8A020013BD7
:1048900023F01F0302F01F021343D3453146E0B259
:1048A000C5F8A030E8D03FF0DAF910F1160FAED01D
:1048B000C5F89870D5F89C209DF808300BF1FF3BA7
:1048C00062F304038DF80830D5F8A0309DF8082075
:1048D0005B0863F347128DF80820D6E900321344D1
:1048E000009323F01F035B44A3EB0A03013023F082
:1048F0001F036946C0B20393FFF73CFFBEE700BF4A
:1049000000ED00E0F2010700CF010700B0AE0500A6
:104910000522044BC3F89420BFF34F8FBFF36F8F72
:10492000704700BF00ED00E0BFF35F8F0022024B35
:10493000C3F89420704700BF00ED00E010B5034CB1
:104940002278FFF733FF207010BD00BF14570020FE
:104950002DE9F74F294D8A4606464FF00008AB4631
:10496000274FD0451BDAD6F80490B9F1000F3FD09D
:104970003168084601913FF069F90199044609EB55
:10498000010001383FF062F984424FF014021D4BE0
:1049900008D002FB08F36FF015024BF8032003B0B8
:1049A000BDE8F08F14F1160F2C60F8D01978A142F1
:1049B000F5DD02FB08B0C7F89840C7F89840D7F873
:1049C0009C4000F10801007B64F304000871D7F8F3
:1049D000A0000C79400860F347140C71D7F89C10C4
:1049E00021F01F016960D7F8A01021F01F01296193
:1049F00008F1010814350C36B3E700BF043000207D
:104A000000ED00E014570020F0B54149414CD1F8C9
:104A100090302568C3F307239D4287B075D80020E6
:104A2000FFF782FF3C4BC1F8C030854216D13B4CAA
:104A300001A82570FFF7ACF800250646384FAE42B6
:104A400013D1002023783249D1F89020C2F30722F5
:104A5000934254DBFFF75CFF00202FE0616801EB1D
:104A60000011FFF76DFE0130DFE70199280101EB2E
:104A70000513DA683A40B2F5001F21D0B2F5800F75
:104A80002BD0B2F5801F38D15A689B680958013B7A
:104A900022F01F0003440120844623F01F0340EA54
:104AA0004C10CDE902218DF8100002A92078059361
:104AB000FFF760FE00281DDA6FF0150007B0F0BDAB
:104AC0005A689B680958013B22F01F0003444FF0CD
:104AD000020C012023F01F03E1E75A689B68095884
:104AE000013B22F01F0003444FF0000C062023F08E
:104AF0001F03D4E723780133237001359FE7C1F802
:104B00009830C1F8A00001339EE74FF0FF30D5E7A1
:104B100000ED00E050CB0600AAFF4400145700202F
:104B20000000F0FF08B5024B1B689847002008BD45
:104B300018300020034B044A1860937843F00203B6
:104B40009370704718300020E0020020F0B587B065
:104B500007460E4614460021102268461D4655F0B1
:104B600019FF02238DF80230054B2A46214668467C
:104B7000CDE9047601933DF0F9F907B0F0BD00BF2F
:104B8000913C040008B505483EF04BFB002383F33D
:104B90001188BFF36F8F0423184602DF2402070039
:104BA00008B547F23052034903483EF08AFA002024
:104BB00008BD00BF107800201C3000204FF0FF32ED
:104BC0004FF0FF33014834F0D5BC00BFF0020020A5
:104BD000014834F047BD00BFF002002038B505465B
:104BE000FFF7ECFF2A46082107483EF054F9044637
:104BF00028B925B155F022FF0C22044B1A50FFF7BB
:104C0000E7FF204638BD00BF1C3000200C0000002C
:104C100038B504460D46FFF7D1FF21462B46082242
:104C200007483EF0ACF9044628B925B155F006FF17
:104C30000C22044B1A50FFF7CBFF204638BD00BFB3
:104C40001C3000200C00000010B50446FFF7B6FF32
:104C5000214603483EF0D6F8BDE81040FFF7B8BF44
:104C60001C30002070B5A0FB01543CB92846FFF76A
:104C7000B5FF064640B90026304670BD55F0DEFE51
:104C80000C22044B1A50F6E72A46214655F082FEC4
:104C9000F2E700BF0C000000012830B50C4609D037
:104CA000042817D100230022C1E9002300238B60D0
:104CB000002030BDEFF31185202383F31288BFF36A
:104CC0006F8F084B0FCB84E80F0085F31188BFF37B
:104CD0006F8FEDE755F0B2FE1622034B1A504FF0DE
:104CE000FF30E6E7A81900200C00000001287FB57E
:104CF0000C4623D0042825D100230022CDE900232F
:104D00000023029352F0E5F9174DC30BC0F30E00D8
:104D1000A0FB0506009A43EA41439A18019B43EB26
:104D2000D131C30B029843EA464318440F4BC4E900
:104D300000219842A0600ED800200AE06946FFF7E3
:104D4000ABFFDFE755F07AFE1622094B1A504FF001
:104D5000FF3004B070BD013241F10001401BC4E9D5
:104D60000021A060E8E700BF00CA9A3BFFC99A3B58
:104D70000C00000038B50025074C204651F0D2FD4C
:104D800004F11400013551F0F4FF052D04F1240461
:104D9000F3D1002038BD00BF2830002038B50024F2
:104DA000054D2846013451F0E4FF052C05F10805B6
:104DB000F7D1002038BD00BFDC30002038B500241A
:104DC000054D2846013451F0ADFD052C05F11405C3
:104DD000F7D1002038BD00BF04310020002230B5DB
:104DE0001546094B09494C68013203F1A000052A18
:104DF000C3E92814206003F1D00303F8085C48607D
:104E0000F1D1002030BD00BFB819002004030020FC
:104E100007B50DF1070051F051FB114B98421CD121
:104E20004FF480620F4B1049C3F8B8254FF400626D
:104E3000C3F83C259DF8070051F02CFB0B499DF869
:104E4000070051F022FB01209DF80730984033F015
:104E50001BF8002003B05DF804FB6FF00B00F9E7CE
:104E60000000AD0B00A002502CA0025028A102505F
:104E7000054B03EB8000D0F8003223F0E04343F011
:104E80004053C0F80032704700258450012208B515
:104E90000A4B0B49C3F8002502230020C1F8D03685
:104EA000FFF7E6FF1046FFF7E3FFC1F80427C1F85C
:104EB0000429C1F8002B002008BD00BF00100050DD
:104EC00000400050052370B5144D154E2C78013468
:104ED000B4FBF3F303EB8303E41A44F071F8114AD3
:104EE000137823B156F82430C01A072814D94FF08C
:104EF0005023D3F8141141B10021C3F81411D3F891
:104F000014312C700CB9012313702C7844F058F82C
:104F100046F82400012070BD0020FCE71657002051
:104F2000683100201557002048B1054B054A1B6821
:104F3000B3FBF2F35843044B43F0010318477047A7
:104F40002C0A002040420F00C0B105000149024870
:104F50003EF03CBC7CCB06007C3100204FF47F034C
:104F60002DE9F041D3F830210646072A0D46D3F843
:104F7000343120D1023B032B02D8124AD35CD3B187
:104F80004FF050244FF0010800270520C4F8188680
:104F9000C4F8147651F077FA4046C4F8148651F0FC
:104FA00072FAC4F81476C4F8187630462B46BDE879
:104FB000F041002118474FF050230022C3F8142677
:104FC000F3E700BF8102070070B5049CC4F3072615
:104FD00030460EF073F8E5B20146284651F066FA05
:104FE00000220120074BA40B04F0FC041A51A84036
:104FF00032F050FF30460EF015FA2846BDE87040FA
:1050000033F03CB880A0025073B501A833F030F8FB
:10501000264B984247D10EF0E7F9041E0ADA9DF8B4
:10502000040033F02BF801212346214A21483EF0A9
:1050300004FD35E040F607031F4D8DF80540AE68CE
:10504000ADF806307468019B14B96FF05704EAE7B5
:1050500008212846194AA047041EE4DB3369002BC7
:10506000F3D00122082128469847041EDBDB0120EB
:105070009DF80430984032F007FF9DF805009DF838
:1050800004509DF8076043F085FF0146284651F023
:1050900001FA0B4BB60045F000459D51002CC2D1E2
:1050A000204602B070BD6FF01204BCE70000AD0BEB
:1050B0008502070000B00500A4AB0500C550000044
:1050C00080A102502DE9F341144683681B690BB19E
:1050D00000229847C4F3072630460DF0F7FF054637
:1050E000304643F057FF4FF00008E7B2014638461C
:1050F00051F0E0F9104B220E920043F80280304646
:105100000DF0DCFF0D4A4FEA943C0CF0FC0C47F02C
:10511000004342F80C300146384651F0B6F9084BCE
:1051200005F132020093304643460194520043F0A9
:105130003BFF02B0BDE8F08180A1025080A0025088
:10514000C94F0000014B1B68184700BF1C0300201B
:10515000014B5B68184700BF1C03002018B111B158
:10516000014B9B68184770471C03002030B504466C
:1051700085B0C0B1884216D24D238DF8043001238A
:105180008DF8053000238DF80630084B0D1ACDF848
:105190000700CDF80B1001A80B219B689847294602
:1051A0002046FFF7DBFF05B030BD00BF1C03002029
:1051B0007FB50D4606461446FFF7C4FF44F25A5326
:1051C000ADF804300123ADF806304FF4A023039668
:1051D00002933EF039FD0D4BADF808000C219B68A1
:1051E00001A8984715B12846FFF75CFA4CB1204654
:1051F00004F19801FFF7BAFFD4E919010144FFF760
:10520000B5FF04B0BDE87040FFF7A2BF1C0300204B
:1052100010B9034B186870476FF08500704700BFE6
:105220009831002010B9034B186070476FF085006B
:10523000704700BF983100202DE9F0470E46044624
:1052400000AF00B121B96FF015020026204B1A60A3
:10525000DFF88080DFF880906EB10025207808EBC1
:10526000050100093EF055FA0028A24606DA6FF063
:105270001502174B1A60BD46BDE8F0879AF800008A
:10528000691C58FA81F100F00F003EF042FA002844
:1052900004F10104EBDB0235EDB2402D06F1FF36DF
:1052A00001D0002EDAD1002308F805306D4688B011
:1052B0006A464FF4007191830849C2E9059842F8A3
:1052C000101F4FF4E2510648FEF7AEF9AD46C3E7B2
:1052D0009831002017570020B60207000300000194
:1052E00088AE0500002208B5074B1A60FEF75EF88D
:1052F0000028FBD1FEF7B4F8BDE808400121034ABD
:1053000003483EF091BB00BF98310020BD0207006A
:1053100088AE050008B5074B1B6823B10121064A7A
:1053200006483EF081FBBDE808400121044A0348DD
:105330003EF07ABB98310020C802070088AE050015
:10534000DF020700F7B506460D460D488AB28368AE
:1053500031461B689847002810DA00240CE02F1B08
:10536000042F28BF042743F02BFE3A46019001A9E1
:10537000301955F0E8FA3C44A542F0D803B0F0BD2E
:105380007CAB050010B503460548826814688AB2F4
:105390001946A0470028B4BF6FF00400002010BDDC
:1053A0007CAB050070B541690446867A0A4D59B157
:1053B000437ADB0706D42C2303FB06535B6A1B6886
:1053C0009B689847002363612C20214606FB005010
:1053D000BDE8704051F056BB800E00202C21827A2F
:1053E000054B01FB02339A6A1B7F801A1B3323F0A3
:1053F0000303B0FBF3F07047800E002038B52C2477
:10540000827A064B04FB02335B6AD3E901240C6009
:105410001568FFF7E3FF04FB005038BD800E002045
:105420002DE9F04F85B00546684691461C469046EA
:105430009A46039151F04FFEDDE90067EFF3118BBF
:10544000202383F31288BFF36F8F698B002942D02A
:105450002B8B8B4226D900220023284634F03EF9BC
:105460000446F8B18BF31188BFF36F8F039B002BB9
:105470004FD032463B46684651F051FE2C21A27A6D
:10548000294B204601FB02335B6A03A91B681D6898
:10549000DDE90023A847606100283BD12046FFF7E3
:1054A00081FF31E0698B4B1E6B838BF31188BFF357
:1054B0006F8F2B7F2A8BAC6A1B3323F00303521AA6
:1054C00002FB0344184B194AEB1A9B105343A37277
:1054D0002B7FE372CAE78BF31188BFF36F8F54EA17
:1054E000090409D055F0AAFA114A124B12589A42EF
:1054F0000ABF8846C846C24642465346284634F04C
:10550000EDF804460028B1D10024204605B0BDE8DE
:10551000F08F636100230122636022812382039A5A
:1055200063696282E360F0E7800E0020A38B2EBAED
:1055300008000000F828002070B52C250B4C00B99D
:1055400070BD037A4668013BDBB20372002BF7D1D2
:10555000C3604360837A05FB03431B6A13B198471A
:105560003046ECE7FFF71EFFFAE700BF800E002091
:1055700070B506461D460C4609B1142A07D01623FD
:1055800055F05CFA154A13504FF0FF3070BD05F02E
:10559000AFFA10220146204655F092F80028EED0CE
:1055A00020693EF050FC58B996F9A600002804DCAA
:1055B00003F0CAF920B90223E2E73EF044FCF9E720
:1055C00021462DB108F040FF002804DA4342D7E716
:1055D00008F084FFF8E70020D8E700BF0C000000C7
:1055E00010B5044609B10C2A07D0162355F026FA47
:1055F0000E4A13504FF0FF3010BD0B68002BF4D053
:10560000886860B13EF01FFC38B994F9A600002804
:1056100009DC03F099F90028E7D05823E6E7081DD4
:1056200040F085F8EEE73EF00EFCF4E70C000000D9
:10563000F7B507460E461446FDF7DEFB051E18DBE0
:105640003CB97B1E012B04D8022E17D0012E08BFB7
:105650000624F1B201ABA2B2B8B205F0F3FC061E0B
:105660000EDA28463DF0FFFD55F0E8F90F4B764283
:105670001E504FF0FF35284603B0F0BD1124E8E777
:105680000023019843604367783051F0C4F90198D2
:10569000903051F06EFB062C02D1019840F0F7FAE1
:1056A0002846034A0199FDF7E5FBE4E70C000000FA
:1056B00094CB060037B5069D0446E3B9009300225B
:1056C00000230E4906F01AF904F1780051F0A3F90D
:1056D00004F1900051F04DFB214605F1780051F0A6
:1056E000C6F9204640F0D3FA05F1900003B0BDE8BA
:1056F000304034F0B5BA03B030BD00BF833E040083
:105700002DE9F04389B0DDE910980C4658EA09010B
:1057100006464D46129F13D014F1690F02D014F1C2
:105720000B0F0DD1684651F0FAFCDDE9002313435D
:105730000ED114F1690F0CBF6FF00B046FF0680409
:1057400055F07CF9364B64421C504FF0FF305DE061
:10575000B8F1FF3F08BFB9F1FF3F0DD04FF47A71A8
:10576000A5FB013201FB0822DB0B43EA42433A6806
:105770009A4294BF3A603B60D6F8980008B13EF078
:105780007EFB14F1690F0FD14FF4004540F2E73072
:1057900000213C684FF47A720023E4FB0501FBF71B
:1057A000A1F934F0E1FD27E00B3425D1B6F8A4408F
:1057B000C4F38114012CE7D196F9A6003EF043FB17
:1057C000304643F03CF800220346022103A851F082
:1057D000F7FD4FF4004C40F2E73000213D684FF4F4
:1057E0007A720023E5FB0C01FBF77CF902460B46BD
:1057F000214603A835F0E0F83B685B00642B28BF26
:1058000064233B60D6F8980018B9002009B0BDE8C1
:10581000F0834FF0FF324FF0FF333EF02EFBF4E702
:105820000C000000F8B540F203139942044600F062
:105830008E80B1F5827F0ED2042923D0B1F5817F0D
:105840002BD0032919D055F0F9F85F226D4B1A506F
:105850004FF0FF3015E045F21B43994200F0C48041
:1058600045F22143994200F0BD8040F20513994270
:10587000E9D11368C0F898300DE0406FC0F34000E4
:105880008003F8BD1268436F550423F0020301D56D
:1058900043F0020363670020F3E7D2E900158B8829
:1058A0009768D8071BD52B689F4202D16FF00B0079
:1058B000E7E7042004F178021A612B685A7B60F351
:1058C00005025A732B689A7B6FF345129A732B6803
:1058D000DA686FF39432DA602B6814332B608B88AC
:1058E0005A072CD5B4F8A430C3F38113012B02D08E
:1058F0006FF07700C5E794F9A6003EF0A4FA2E6891
:10590000B742D3D0B4F8A4302046C3F34103012BEF
:105910001AD142F097FF022130612B685A7B61F364
:1059200005025A732B689A7B6FF345129A732B68A2
:10593000DA686FF39432DA602B6814332B60636F8C
:1059400013F0050FA7D0D3E742F079FFE3E7D2E9E0
:105950000056AB88DB070ED53368DB6813F4FE1FF7
:1059600002D1436FDF0703D5EB8843F00103EB80DF
:10597000336814333360AB8858071ED5B4F8A430AD
:10598000C3F38113012B28D194F9A6003EF05BFAF2
:105990003368DB6813F4FE1F0CD0636FD90709D49A
:1059A000B4F8A430C3F34103022B02BFEB8843F0E9
:1059B0000403EB80336814333360636F5A0742BFCC
:1059C000EB8843F00803EB80636FDB077FF563AF81
:1059D000EB8843F01003EB805DE7EB8843F00403B2
:1059E000EB80EAE7436F53E70023146819461A4631
:1059F0003EF0A7FA6FF00043984294BF2060236006
:105A000049E700BF0C0000002DE9F04105460E46B5
:105A10001746104CDFF84080444508D355F00EF887
:105A20006A220E4B1A504FF0FF30BDE8F081236818
:105A3000AB4200D063B93A4631462846A36898473E
:105A400030B13A4631462846E368BDE8F041184790
:105A50001034E1E758AE050078AE05000C000000F8
:105A600013B50021B0F8A4300446C3F34103032B5F
:105A70004FF000024FF00003009118D140F08CFA73
:105A800004236360636F204643F0040363673EF0C2
:105A900039FA204605F0B6FB031E0BDA54F0CEFFB0
:105AA000054A5B4213504FF0FF3002B010BD05F0C5
:105AB00025FFE5E70020F8E70C00000037B50546B4
:105AC0000C4611BBB0F8A4300022C3F34103032BF2
:105AD00000914FF000030DD140F05EFA031E0CDA86
