:020000040000FA
:10000000506F01201D7B0000EB1B0500097B0000E9
:10001000097B0000097B0000097B0000097B0000D0
:10002000000000000000000000000000D17C000083
:10003000097B000000000000917C0000097B0000AB
:100040004D7E00004D7E00004D7E00004D7E000084
:100050004D7E00004D7E00004D7E00004D7E000074
:100060004D7E00004D7E00004D7E00004D7E000064
:100070004D7E00004D7E00004D7E00004D7E000054
:100080004D7E00004D7E00004D7E00004D7E000044
:100090004D7E00004D7E00004D7E00004D7E000034
:1000A0004D7E00004D7E00004D7E00004D7E000024
:1000B0004D7E00004D7E00004D7E00004D7E000014
:1000C0004D7E00004D7E00004D7E00004D7E000004
:1000D0004D7E00004D7E00004D7E00004D7E0000F4
:1000E0004D7E00004D7E00004D7E00004D7E0000E4
:1000F0004D7E00004D7E00004D7E00004D7E0000D4
:100100004D7E00004D7E00004D7E00004D7E0000C3
:100110004D7E00004D7E00004D7E00004D7E0000B3
:100120004D7E00004D7E00004D7E00004D7E0000A3
:100130004D7E00004D7E00004D7E00004D7E000093
:100140004D7E00004D7E00004D7E00004D7E000083
:100150004D7E0000FFFFFFFF81F0004102E000BF85
:1001600083F0004330B54FEA41044FEA430594EA77
:10017000050F08BF90EA020F1FBF54EA000C55EAB2
:10018000020C7FEA645C7FEA655C00F0E2804FEA83
:100190005454D4EB5555B8BF6D420CDD2C4480EA65
:1001A000020281EA030382EA000083EA010180EA95
:1001B000020281EA0303362D88BF30BD11F0004FE3
:1001C0004FEA01314FF4801C4CEA113102D0404219
:1001D00061EB410113F0004F4FEA03334CEA133354
:1001E00002D0524263EB430394EA050F00F0A7806C
:1001F000A4F10104D5F1200E0DDB02FA0EFC22FA67
:1002000005F2801841F1000103FA0EF2801843FA5A
:1002100005F359410EE0A5F120050EF1200E012A4B
:1002200003FA0EFC28BF4CF0020C43FA05F3C01889
:1002300051EBE37101F0004507D54FF0000EDCF102
:10024000000C7EEB00006EEB0101B1F5801F1BD3AB
:10025000B1F5001F0CD349085FEA30004FEA3C0CAF
:1002600004F101044FEA445212F5800F80F09A80A5
:10027000BCF1004F08BF5FEA500C50F1000041EBA9
:10028000045141EA050130BD5FEA4C0C404141EBAD
:100290000101013C28BFB1F5801FE9D291F0000FA8
:1002A00004BF01460020B1FA81F308BF2033A3F157
:1002B0000B03B3F120020CDA0C3208DD02F1140C4E
:1002C000C2F10C0201FA0CF021FA02F10CE002F189
:1002D0001402D8BFC2F1200C01FA02F120FA0CFC82
:1002E000DCBF41EA0C019040E41AA2BF01EB0451CB
:1002F000294330BD6FEA04041F3C1CDA0C340EDCC9
:1003000004F11404C4F1200220FA04F001FA02F30B
:1003100040EA030021FA04F345EA030130BDC4F1C9
:100320000C04C4F1200220FA02F001FA04F340EABE
:100330000300294630BD21FA04F0294630BD94F06F
:10034000000F83F4801306BF81F480110134013D56
:100350004EE77FEA645C18BF7FEA655C29D094EAC7
:10036000050F08BF90EA020F05D054EA000C04BF45
:100370001946104630BD91EA030F1EBF0021002030
:1003800030BD5FEA545C05D14000494128BF41F0CF
:10039000004130BD14F580043CBF01F5801130BD33
:1003A00001F0004545F0FE4141F470014FF00000BE
:1003B00030BD7FEA645C1ABF194610467FEA655C6F
:1003C0001CBF0B46024650EA013406BF52EA033511
:1003D00091EA030F41F4002130BD00BF90F0000FFF
:1003E00004BF0021704730B54FF4806404F132043B
:1003F0004FF000054FF0000150E700BF90F0000FF4
:1004000004BF0021704730B54FF4806404F132041A
:1004100010F0004548BF40424FF000013EE700BFEA
:1004200042004FEAE2014FEA31014FEA02701FBF7A
:1004300012F07F4393F07F4F81F06051704732F0AC
:100440007F4208BF704793F07F4F04BF41F4002103
:10045000704730B54FF4607401F0004521F0004161
:100460001CE700BF50EA010208BF704730B54FF0EB
:1004700000050AE050EA010208BF704730B511F0EC
:10048000004502D5404261EB41014FF4806404F124
:1004900032045FEA915C3FF4D8AE4FF003025FEAAA
:1004A000DC0C18BF03325FEADC0C18BF033202EB2E
:1004B000DC02C2F1200300FA03FC20FA02F001FA88
:1004C00003FE40EA0E0021FA02F11444BDE600BF2B
:1004D00070B54FF0FF0C4CF4E06C1CEA11541DBFDA
:1004E0001CEA135594EA0C0F95EA0C0F00F0DEF8A5
:1004F0002C4481EA030621EA4C5123EA4C5350EA8A
:10050000013518BF52EA033541F4801143F48013DA
:1005100038D0A0FB02CE4FF00005E1FB02E506F06B
:100520000042E0FB03E54FF00006E1FB03569CF0C0
:10053000000F18BF4EF0010EA4F1FF04B6F5007FC6
:1005400064F5407404D25FEA4E0E6D4146EB060638
:1005500042EAC62141EA55514FEAC52040EA5E50C1
:100560004FEACE2EB4F1FD0C88BFBCF5E06F1ED86B
:10057000BEF1004F08BF5FEA500E50F1000041EBA2
:10058000045170BD06F0004646EA010140EA02004F
:1005900081EA0301B4EB5C04C2BFD4EB0C0541EA71
:1005A000045170BD41F480114FF0000E013C00F386
:1005B000AB8014F1360FDEBF002001F0004170BDAA
:1005C000C4F10004203C35DA0C341BDC04F11404C3
:1005D000C4F1200500FA05F320FA04F001FA05F24F
:1005E00040EA020001F0004221F0004110EBD3701C
:1005F00021FA04F642EB06015EEA430E08BF20EA48
:10060000D37070BDC4F10C04C4F1200500FA04F3EA
:1006100020FA05F001FA04F240EA020001F000417C
:1006200010EBD37041F100015EEA430E08BF20EAEF
:10063000D37070BDC4F1200500FA05F24EEA020E37
:1006400020FA04F301FA05F243EA020321FA04F066
:1006500001F0004121FA04F220EA020000EBD3701D
:100660005EEA430E08BF20EAD37070BD94F0000F1D
:100670000FD101F00046400041EB010111F4801F51
:1006800008BF013CF7D041EA060195F0000F18BF02
:10069000704703F00046520043EB030313F4801F3E
:1006A00008BF013DF7D043EA0603704794EA0C0FF8
:1006B0000CEA135518BF95EA0C0F0CD050EA41060E
:1006C00018BF52EA4306D1D181EA030101F000418B
:1006D0004FF0000070BD50EA410606BF10461946B3
:1006E00052EA430619D094EA0C0F02D150EA0136BF
:1006F00013D195EA0C0F05D152EA03361CBF104600
:1007000019460AD181EA030101F0004141F0FE419E
:1007100041F470014FF0000070BD41F0FE4141F422
:10072000780170BD70B54FF0FF0C4CF4E06C1CEA22
:1007300011541DBF1CEA135594EA0C0F95EA0C0FD7
:1007400000F0A7F8A4EB050481EA030E52EA033592
:100750004FEA013100F088804FEA03334FF08055B3
:1007600045EA131343EA12634FEA022245EA1115E0
:1007700045EA10654FEA00260EF000419D4208BF91
:10078000964244F1FD0404F5407402D25B084FEA3E
:100790003202B61A65EB03055B084FEA32024FF4EA
:1007A00080104FF4002CB6EB020E75EB030E22BF47
:1007B000B61A754640EA0C005B084FEA3202B6EB07
:1007C000020E75EB030E22BFB61A754640EA5C00B6
:1007D0005B084FEA3202B6EB020E75EB030E22BF46
:1007E000B61A754640EA9C005B084FEA3202B6EB47
:1007F000020E75EB030E22BFB61A754640EADC0006
:1008000055EA060E18D04FEA051545EA16754FEA67
:1008100006164FEAC30343EA52734FEAC2025FEA85
:100820001C1CC0D111F4801F0BD141EA00014FF014
:1008300000004FF0004CB6E711F4801F04BF0143E5
:100840000020B4F1FD0C88BFBCF5E06F3FF6AFAE01
:10085000B5EB030C04BFB6EB020C5FEA500C50F191
:10086000000041EB045170BD0EF0004E4EEA113114
:1008700014EB5C04C2BFD4EB0C0541EA045170BD1B
:1008800041F480114FF0000E013C90E645EA060E5F
:100890008DE60CEA135594EA0C0F08BF95EA0C0F8D
:1008A0003FF43BAF94EA0C0F0AD150EA01347FF4D5
:1008B00034AF95EA0C0F7FF425AF104619462CE7AC
:1008C00095EA0C0F06D152EA03353FF4FDAE10460F
:1008D000194622E750EA410618BF52EA43067FF460
:1008E000C5AE50EA41047FF40DAF52EA43057FF4F0
:1008F000EBAE12E74FF0FF3C06E000BF4FF0010CFB
:1009000002E000BF4FF0010C4DF804CD4FEA410C5E
:100910007FEA6C5C4FEA430C18BF7FEA6C5C1BD02B
:1009200001B050EA410C0CBF52EA430C91EA030FAC
:1009300002BF90EA020F0020704710F1000F91EA09
:10094000030F58BF994208BF90422CBFD8176FEAD7
:10095000E37040F0010070474FEA410C7FEA6C5CA5
:1009600002D150EA013C07D14FEA430C7FEA6C5CAC
:10097000D6D152EA033CD3D05DF8040B704700BFD8
:100980008446104662468C461946634600E000BF26
:1009900001B5FFF7B7FF002848BF10F1000F01BDF8
:1009A0004DF808EDFFF7F4FF0CBF012000205DF8C3
:1009B00008FB00BF4DF808EDFFF7EAFF34BF012048
:1009C00000205DF808FB00BF4DF808EDFFF7E0FFE1
:1009D00094BF012000205DF808FB00BF4DF808ED32
:1009E000FFF7CEFF94BF012000205DF808FB00BF99
:1009F0004DF808EDFFF7C4FF34BF012000205DF87B
:100A000008FB00BF4A0011D212F5001211D20DD519
:100A10006FF47873B3EB62520ED44FEAC12343F004
:100A2000004343EA505323FA02F070474FF00000AE
:100A3000704750EA013002D14FF0FF3070474FF05D
:100A4000000070474FEA4102B2F1E04324BFB3F522
:100A5000001CDCF1FE5C0DD901F0004C4FEAC00235
:100A60004CEA5070B2F1004F40EB830008BF20F019
:100A70000100704711F0804F21D113F13872BCBFD3
:100A800001F00040704741F480114FEA5252C2F128
:100A90001802C2F1200C10FA0CF320FA02F018BF71
:100AA00040F001004FEAC1234FEAD32303FA0CFCC4
:100AB00040EA0C0023FA02F34FEA4303CCE77FEA53
:100AC000625307D150EA01331EBF4FF0FE4040F49D
:100AD0004000704701F0004040F0FE4040F400004C
:100AE000704700BF7BB972B90029BEBF00204FF02C
:100AF000004106E008BF00281CBF6FF000414FF026
:100B0000FF3000F075B8ADF1080C6DE904CE002996
:100B100009DB002B1ADB02F019FDDDF804E0DDE94A
:100B2000022304B07047404261EB4101002B1BDB04
:100B300002F00CFDDDF804E0DDE9022304B04042E0
:100B400061EB4101524263EB43037047524263EB56
:100B5000430302F0FBFCDDF804E0DDE9022304B00E
:100B6000404261EB41017047524263EB430302F0A4
:100B7000EDFCDDF804E0DDE9022304B0524263EB52
:100B80004303704753B94AB9002908BF00281CBF66
:100B90004FF0FF314FF0FF3000F02AB8ADF1080CF4
:100BA0006DE904CE02F0D2FCDDF804E0DDE90223B9
:100BB00004B07047D0B500220B4B06460F46FFF736
:100BC00087FCFFF71FFF0446FFF708FC0022074BD6
:100BD000FFF77EFC02460B4630463946FFF7C0FA67
:100BE000FFF710FF2146D0BD0000F03D0000F041AE
:100BF000704700BF4FEA410C7FEA6C5C02D150EABB
:100C0000013C0AD14FEA430C7FEA6C5C02D152EA04
:100C1000033C02D14FF0000070474FF001007047D5
:100C20004FEA410212F5001215D211D56FF4787314
:100C3000B3EB625212D94FEAC12343F0004343EAB7
:100C4000505311F0004F23FA02F018BF4042704792
:100C50004FF00000704750EA013005D111F000401C
:100C600008BF6FF0004070474FF00000704700BFB2
:100C70002DE9F14F03F11C0402EB840C4FEA930BB6
:100C80008A68CB680868496800F046F93CE9F000DA
:100C90006040694072407B400BF1060E4EE083EAF3
:100CA000134480EA134582EA134746BA96EA34446D
:100CB000604000F00F1684EA063420F00F1684EA34
:100CC000161054BA94EA0106724002F00F1486EA34
:100CD000043622F00F1486EA14124CBA65406940BB
:100CE00001F00F1485EA043521F00F1485EA141180
:100CF0005CBA67407B4003F00F1487EA043723F0A7
:100D00000F1487EA141344BA44404DBA4D4056BA02
:100D100056405FBA5F4087EA174886EA174B84EA75
:100D200017464FEA38488BEA1B4485EA1B4788EA96
:100D30001B4580EA3440694072407B4000F07034CB
:100D400000F0803500F00F3040EA440040EAD50062
:100D500080EA900404F0332480EA8400604001F0CB
:100D6000703401F0803501F00F3141EA440141EA6D
:100D7000D50181EA910404F0332481EA84016140C1
:100D800002F0703402F0803502F00F3242EA440281
:100D900042EAD50282EA920404F0332482EA840211
:100DA000624003F0703403F0803503F00F3343EA00
:100DB000440343EAD50383EA930404F0332483EA2B
:100DC00084036340C943DB4381EA000483EA0446A9
:100DD00086EA020183EA014382EA334583EA144347
:100DE0005C4084EA00077FEA040A8AEA024A8AEA47
:100DF000010B87EA11488AEA374A80EA060181EA4C
:100E00001A418AEA030A04EA0A00454088EA04070C
:100E100007EA0B0041408AEA0B0608EA060084EA6A
:100E200034428AEA3A4602EA0603584045404140C5
:100E300087EA37438BEA3B4003EA000985EA090564
:100E400082EA0309464006EA0906714085EA010084
:100E500005EA3546464006EA314181EA304181EAF9
:100E6000364606EA304686EA354634400F4086EA82
:100E7000010508EA050886EA3640024088EA0208C9
:100E800081EA314213405C4080EA020309EA030927
:100E900087EA0907674088EA040806EA0A0601EAC1
:100EA0000B018AEA0B0425408AEA3A442040454077
:100EB0008BEA3B4B02EA0B02564084EA0B042340C8
:100EC00059406E40694087EA364080EA384080EAFF
:100ED000060380EA104481EA134585EA344585EA31
:100EE00017427D4082EA354180EA05403CE9F00046
:100EF0006040694072407B40BEF1010E3FF6CFAECC
:100F000020BC00F05FF828606960AA60EB60BDE873
:100F1000F08F00BF00F000BA80EA101404F0F01463
:100F200080EA0410604081EA111404F0F01481EAB0
:100F30000411614082EA121404F0F01482EA0412EF
:100F4000624083EA131404F0F01483EA041363404C
:100F500080EA102404F47F4480EA0420604081EA9F
:100F6000112404F47F4481EA0421614082EA1224BE
:100F700004F47F4482EA0422624083EA132404F4E6
:100F80007F4483EA0423634081EA500404F055342B
:100F900080EA4400614083EA520404F0553482EA56
:100FA0004402634082EA900404F0333480EA84000F
:100FB000624083EA910404F0333481EA840163409F
:100FC000704700BF82EA900404F0333480EA840062
:100FD000624083EA910404F0333481EA840163407F
:100FE00081EA500404F0553480EA4400614083EA09
:100FF000520404F0553482EA4402634080EA10242B
:1010000004F47F4480EA0420604081EA112404F45F
:101010007F4481EA0421614082EA122404F47F447F
:1010200082EA0422624083EA132404F47F4483EAC0
:101030000423634080EA101404F0F01480EA0410E2
:10104000604081EA111404F0F01481EA0411614057
:1010500082EA121404F0F01482EA0412624083EA75
:10106000131404F0F01483EA04136340704700BFC4
:101070002DE9F14F94464FEA930B8A68CB680868D4
:101080004968FFF749FF0BF1060E33E083EA13448A
:1010900080EA134582EA134746BA96EA3444604030
:1010A00000F00F1684EA063420F00F1684EA1610BA
:1010B00054BA94EA0106724002F00F1486EA04362C
:1010C00022F00F1486EA14124CBA6540694001F010
:1010D0000F1485EA043521F00F1485EA14115CBA67
:1010E00067407B4003F00F1487EA043723F00F14A6
:1010F00087EA1413BCE8F0006040694072407B400E
:1011000000F0E03400F0103500F00F3040EA5400F9
:1011100040EAC50080EA900404F0332480EA8400A9
:10112000604001F0E03401F0103501F00F3141EA88
:10113000540141EAC50181EA910404F0332481EAB3
:101140008401614002F0E03402F0103502F00F3209
:1011500042EA540242EAC50282EA920404F03324CD
:1011600082EA8402624003F0E03403F0103503F0B9
:101170000F3343EA540343EAC50383EA930404F0BC
:10118000332483EA8403634081EA324787EA1345C4
:1011900081EA354690EA060484EA034B82EA1B4260
:1011A00080EA044484EA054483EA144A85EA144444
:1011B0008BEA044B84EA374481EA0B4181EA164109
:1011C00004EA0A00454082EA04082BEA080041408C
:1011D0008AEA0B0602EA060084EA34438AEA3A46BF
:1011E00003EA060778404540414088EA38478BEAE1
:1011F0003B4007EA000985EA090583EA07094640FA
:1012000006EA0906714085EA010005EA35464640CE
:1012100006EA314181EA304181EA364606EA304643
:1012200086EA3546344008EA010886EA01052A4084
:1012300086EA364003405A4081EA31431F407C40F1
:1012400080EA030709EA070988EA0908544088EA9E
:10125000020806EA0A0601EA0B018AEA0B021540B7
:101260008AEA3A42104045408BEA3B4003405E40E8
:101270004240174079404D404E40E443F64386EAF1
:1012800018435D4085EA054083EA134386EA03413B
:1012900083EA384284EA114383EA04435FEA334332
:1012A000BEF1010E3FF6F2AE1ED4BCE8F000604085
:1012B000694072407B4020BCFFF784FE2860696073
:1012C000AA60EB60BDE8F08F2DE9E0414FF2F0023B
:1012D00080EA1031114080EA01304840410882081C
:1012E000C3084FF0000E4FE700F0113001F011314C
:1012F00002F0113203F0113340EA410040EA82006B
:1013000040EAC3004FF2F00280EA1031114080EA57
:1013100001304840BDE8E0812DE9F04F02F11C05A5
:101320000646074600EB850851F8040B043A46F8D8
:10133000040BF9D14FF0010CFFF7C6FF5FEA302034
:1013400080EA0C001ECF41404A4053405C401EC61C
:101350002000464517D04FEA4C0C1CF4807F18BF84
:10136000ACF1E50C2C2DE7D03C2D06D1FFF7ACFFFE
:1013700006CF41404A4006C6100006CF41404A40D1
:1013800006C61000D8E736E90F00FFF7C5FD043D9B
:1013900086E80F00F7D1BDE8F08F00BF70B491E888
:1013A0007800B2E802105B1854EB0C04B2E80210AB
:1013B0004D4156EB0C0680E878008041013070BC4E
:1013C000704700BF70B491E87800B2E802105B1A71
:1013D00074EB0C04B2E802108D4176EB0C0680E849
:1013E00078008041404270BC704700BF2DE9F00793
:1013F00091E80017C0CAA8FB063440F8043BA9FBDB
:101400000615E8FB6741EAFB665140F8044BA9FB6F
:101410000743ECFB661344CAE8FB6254EAFB67141B
:10142000ECFB673440F8045BA9FB0275EAFB62350C
:10143000ECFB6245E8FB6617E9FB6637EAFB6647AB
:10144000ECFB6657BAC0BDE8F00770472DE9F00322
:1014500091E8F801B2E802125B1854EB090455EB6D
:101460000C05B2E802124E4157EB090758EB0C0885
:1014700080E8F80180410130BDE8F003704700BF0B
:101480002DE9F00391E8F801B2E802125B1A74EB5F
:10149000090475EB0C05B2E802128E4177EB0907DF
:1014A00078EB0C0880E8F80180414042BDE8F00389
:1014B000704700BF2DE9F001524290E83800B1E8D2
:1014C000C00116409B1917407C4118EA020855EBF1
:1014D000080538C090E8380091E8C0011640734113
:1014E00017407C4118EA020855EB080538C08041D6
:1014F0000130BDE8F00170472DE9F001524290E85B
:101500003800B1E8C00116409B1B1740BC4118EAE7
:10151000020875EB080538C090E8380091E8C00172
:101520001640B3411740BC4118EA020875EB0805A4
:1015300038C080414042BDE8F00170472DE9F0011C
:1015400052424FF0030890E8300091E8C000A31B1E
:101550001340E41AF618EB1B1340ED1AFF1830C0C5
:10156000C0C1B8F10108EED1BDE8F001704700BF7D
:1015700092E8F0032DE9F003B1E8001E06C906B4B5
:10158000A9FB04120891AAFB0403E9FB6520EBFB0D
:1015900064300992AAFB0521ECFB6401E9FB663289
:1015A000EAFB6602EBFB66120A93A9FB0743EAFB20
:1015B0006713EBFB6723EBFB6504ECFB6514EAFBAD
:1015C0006824EBFB6834A9FB0865DDF81C80E9FBA7
:1015D0006825EAFB6835EBFB6845BDE8000EE9FBD2
:1015E0006B16EAFB6B26ECFB6736E9FB6746EAFB0A
:1015F00067565DF804BBA9FB0B87EAFB6B37DDF888
:1016000008B0ECFB6B47E9FB6B57EAFB6B675DF8D7
:1016100004BBECFB6B28E9FB6B38EAFB6B4802B0C0
:101620005DF804BBECFB6B58E9FB6B68EAFB6B787D
:10163000704700BF2DE9F14F83B0FFF799FFDDF848
:101640000C9009F10C0989E8FF010FBC83E8070041
:10165000BDE8F08F91E8801FA7FB07120091A8FB5F
:101660000703E7FB6820E7FB69300192A7FB09212C
:10167000E7FB6A01E8FB6832E7FB6A02E7FB6B12F3
:101680000293A8FB0943E7FB6B13E7FB6C23E8FB22
:101690006904E8FB6A14E7FB6C24E8FB6C34A8FBE4
:1016A0000A65E8FB6B25E8FB6C35E9FB6C45E9FB5B
:1016B0006916E8FB6B26E9FB6B36E9FB6C46EAFB37
:1016C0006C56A9FB0A87E9FB6B37EAFB6B47EAFB21
:1016D0006C57EBFB6C67E9FB6A28EAFB6A38EAFBAC
:1016E0006B48EBFB6B58EBFB6C68ECFB6C78704762
:1016F0002DE9F14F83B0FFF7ADFFDDF80C9009F154
:101700000C0989E8FF010FBC83E80700BDE8F08FF2
:101710002DE9F00391E8F803B2E802105B1854EBEE
:101720000C04B2E802104D4156EB0C0692E806108C
:101730004F4158EB020859EB0C0980E8F80380414F
:101740000130BDE8F00370472DE9F00391E8F8039C
:10175000B2E802105B1A74EB0C04B2E802108D417F
:1017600076EB0C0692E806108F4178EB020879EBD5
:101770000C0980E8F80380414042BDE8F00370475F
:101780002DE9F003524290E83800B1E88003174099
:10179000DB1918EA020854EB080419EA020955EBB0
:1017A000090538C090E8780091E8820311404B4168
:1017B00017407C4118EA020855EB080519EA0209AE
:1017C00056EB090678C080410130BDE8F003704750
:1017D0002DE9F003524290E83800B1E88003174049
:1017E000DB1B18EA020874EB080419EA020975EB1E
:1017F000090538C090E8780091E8820311408B41D8
:101800001740BC4118EA020875EB080519EA0209FD
:1018100076EB090678C080414042BDE8F00370478E
:101820002DE9F00152424FF0030890E8300091E8B2
:10183000C000A31B1340E41AF618EB1B1340ED1A6B
:10184000FF1830C0C0C1B8F10108EED104680E68BD
:10185000A31B1340E41AF61804600E60BDE8F00103
:10186000704700BF00B592E8C40F2DE9C40FB1E87E
:10187000005E02B4A9FB02500995AAFB0234E9FB01
:101880006603EBFB62430A90AAFB0605ECFB62359C
:10189000E9FB6740E9FB6830EEFB62500B94AAFB62
:1018A0000721EAFB6851EBFB6801DDF81480EBFBD4
:1018B0006632ECFB6652EAFB6802EBFB68120C93A3
:1018C000A9FB0843DDF81880E9FB6803EAFB68130D
:1018D000EBFB6823EBFB6754EEFB6604DDF81C8032
:1018E000E9FB6814EAFB6824EBFB68340D955DF8AE
:1018F000049B99E8000CACFB0765DDF80C90ECFB51
:101900006915EEFB6925EAFB6935EBFB6945DDF8F6
:101910000090EAFB6906EBFB6916DDF81090ECFB22
:101920006926EEFB6936EAFB6946EBFB6956DDF892
:101930000490AAFB0987EBFB6927DDF81490ECFB08
:101940006937EEFB6947EAFB6957EBFB6967DDF82E
:101950000890EEFB6918EAFB6928EBFB6938DDF8B3
:101960001890ECFB6948EEFB6958EAFB6968EBFBF1
:10197000697807B000BD00BF2DE9F14F85B0FFF7D2
:1019800071FFDDF8149009F1140989E8FF013FBCEB
:1019900085E81F00BDE8F08F00B591E8805FA7FBE8
:1019A00007500195A7FB0834E7FB6803E7FB694391
:1019B0000290A7FB0905E7FB6A35E8FB6840E7FBF7
:1019C0006A30E7FB6B500394A8FB0921E7FB6B51DE
:1019D000E7FB6C01E8FB6932E8FB6A52E7FB6C024B
:1019E000E7FB6E120493A8FB0A43E8FB6B03E7FBDB
:1019F0006E13E8FB6E23E9FB6954E8FB6B04E8FB1C
:101A00006C14E8FB6E24E9FB6E340595A9FB0A65AE
:101A1000E8FB6C15E9FB6C25E9FB6E35EAFB6E45CE
:101A2000E9FB6A06E9FB6B16E9FB6C26EAFB6C3600
:101A3000EAFB6E46EBFB6E56A9FB0B87EAFB6B27B6
:101A4000EAFB6C37EBFB6C47EBFB6E57ECFB6E670E
:101A5000EAFB6A18EAFB6B28EBFB6B38EBFB6C4884
:101A6000ECFB6C58ECFB6E68EEFB6E7800BD00BFC3
:101A70002DE9F14F85B0FFF78FFFDDF8149009F1E4
:101A8000140989E8FF013FBC85E81F00BDE8F08F1D
:101A90002DE9F00791E8F807B2E802105B1854EB63
:101AA0000C04B2E802104D4156EB0C06B2E80210ED
:101AB0004F4158EB0C08B2E8021059EB01095AEB00
:101AC0000C0A80E8F80780410130BDE8F007704754
:101AD0002DE9F00791E8F807B2E802105B1A74EB01
:101AE0000C04B2E802108D4176EB0C06B2E802104D
:101AF0008F4178EB0C08B2E8021079EB01097AEB20
:101B00000C0A80E8F80780414042BDE8F0077047C2
:101B10002DE9F007524290E87800B1E880071740BD
:101B2000DB1918EA020854EB080419EA020955EB1C
:101B300009051AEA020A56EB0A0678C090E878000E
:101B4000B1E8800717407B4118EA020854EB08040B
:101B500019EA020955EB09051AEA020A56EB0A06C8
:101B600078C080410130BDE8F00770472DE9F007EB
:101B7000524290E87800B1E880071740DB1B18EA72
:101B8000020874EB080419EA020975EB09051AEA60
:101B9000020A76EB0A0678C090E87800B1E8800780
:101BA0001740BB4118EA020874EB080419EA02095D
:101BB00075EB09051AEA020A76EB0A0678C080413D
:101BC0004042BDE8F00770472DE9F00152424FF066
:101BD000040890E8300091E8C000A31B1340E41A09
:101BE000F618EB1B1340ED1AFF1830C0C0C1B8F156
:101BF0000108EED1BDE8F001704700BF00B592E8E2
:101C0000DC072DE9DC07B1E8805702B4A7FB0251DD
:101C10000A95A8FB020BE7FB6310E9FB62B00B918E
:101C2000A8FB0351EAFB6201E7FB64B5E7FB66052D
:101C3000E8FB6615CDF830B0A9FB03B6EAFB6316E6
:101C4000ECFB6356E8FB640BE9FB641BEAFB645B9B
:101C5000ECFB646B0D90ACFB0230059CEEFB62501C
:101C6000E9FB6460EAFB64B0E7FB6431E8FB6451C4
:101C7000069CE8FB6461E9FB64B1EAFB64010E9336
:101C8000A7FB0432079CE7FB6462E8FB64B2E9FB54
:101C90006402EAFB6412049CE9FB6453EAFB64639C
:101CA000089CE7FB64B3E8FB6403E9FB6413EAFB0D
:101CB00064230F955DF8049B99E80006DDF8008029
:101CC000A9FB0854EAFB68B4DDF81080ECFB68045B
:101CD000EEFB6814E9FB6824EAFB6834DDF8048055
:101CE000EEFB6865E9FB68B5EAFB6805DDF8148082
:101CF000ECFB6815EEFB6825E9FB6835EAFB6845F7
:101D00000F96DDF80880AEFB0876E9FB6806EAFB73
:101D10006816DDF81880ECFB6826EEFB6836E9FBF8
:101D20006846EAFB6856DDF80C80ECFB68B7EEFB12
:101D30006807E9FB6817EAFB6827DDF81C80ECFB05
:101D40006837EEFB6847E9FB6857EAFB686708B04D
:101D500000BD00BF2DE9F14F87B0FFF74FFFDDF861
:101D60001C8008F1200888E8FF00FFBC87E87F0896
:101D7000BDE8F08F00B591E89857A3FB0352019599
:101D8000A3FB0401E3FB6420E3FB67100292A3FBC7
:101D90000752E3FB6802E4FB6415E3FB6805E3FB21
:101DA00069250391A4FB07B6E3FB6926E3FB6A56AA
:101DB000E4FB670BE4FB682BE3FB6A5BE3FB6C6B08
:101DC0000490A4FB0810E4FB6950E3FB6C60E3FBA8
:101DD0006EB0E7FB6721E4FB6951E4FB6A61E3FB5A
:101DE0006EB1E4FB6E010592A7FB0832E4FB6A6268
:101DF000E4FB6CB2E4FB6E02E7FB6E12E7FB685398
:101E0000E7FB6963E4FB6CB3E7FB6C03E7FB6E1372
:101E1000E8FB6E230695A7FB0954E7FB6AB4E7FBD2
:101E20006C04E8FB6C14E8FB6E24E9FB6E34E8FB01
:101E30006865E7FB6AB5E8FB6A05E8FB6C15E9FB3A
:101E40006C25E9FB6E35EAFB6E450796A8FB097623
:101E5000E8FB6A06E9FB6A16E9FB6C26EAFB6C36CE
:101E6000EAFB6E46ECFB6E56E8FB69B7E9FB6907D7
:101E7000E9FB6A17EAFB6A27EAFB6C37ECFB6C4765
:101E8000ECFB6E57EEFB6E6700BD00BF2DE9F14F16
:101E900087B0FFF76FFFDDF81C8008F1200888E8A5
:101EA000FF00FFBC87E87F08BDE8F08F2DE9F00F49
:101EB000B1E8F801B2E8001E13EB090354EB0A0481
:101EC00055EB0B0556EB0C06B2E8001E57EB090765
:101ED00058EB0A08A0E8F80191E8F80153EB0B036E
:101EE00054EB0C0492E8001E55EB090556EB0A066C
:101EF00057EB0B0758EB0C0880E8F80180410130E4
:101F0000BDE8F00F704700BF2DE9F00FB1E8F80110
:101F1000B2E8001EB3EB090374EB0A0475EB0B0582
:101F200076EB0C06B2E8001E77EB090778EB0A089F
:101F3000A0E8F80191E8F80173EB0B0374EB0C04D3
:101F400092E8001E75EB090576EB0A0677EB0B07A6
:101F500078EB0C0880E8F80180414042BDE8F00FC2
:101F6000704700BF2DE9F007524290E87800B1E8D1
:101F700080071740DB1918EA020854EB080419EA35
:101F8000020955EB09051AEA020A56EB0A0678C05F
:101F900090E87800B1E8800717407B4118EA020812
:101FA00054EB080419EA020955EB09051AEA020A7A
:101FB00056EB0A0678C090E87800B1E88007174031
:101FC0007B4118EA020854EB080419EA020955EBB0
:101FD00009051AEA020A56EB0A0678C08041013068
:101FE000BDE8F007704700BF2DE9F007524290E8C6
:101FF0007800B1E880071740DB1B18EA020874EB91
:10200000080419EA020975EB09051AEA020A76EBD7
:102010000A0678C090E87800B1E880071740BB4115
:1020200018EA020874EB080419EA020975EB0905BD
:102030001AEA020A76EB0A0678C090E87800B1E85E
:1020400080071740BB4118EA020874EB080419EA3C
:10205000020975EB09051AEA020A76EB0A0678C04E
:1020600080414042BDE8F007704700BF2DE9F00114
:1020700052424FF0060890E8300091E8C000A31BE0
:102080001340E41AF618EB1B1340ED1AFF1830C08A
:10209000C0C1B8F10108EED1BDE8F001704700BF42
:1020A00003B5B2E8005E92E8FC012DE9FC012DE9E0
:1020B000005E0FC9A0FB0967A1FB0958E0FB6A7528
:1020C000E2FB69850C9CC4E90067A1FB0A76E3FB8F
:1020D0006956E0FB6B87E1FB6B57E2FB6B67C4F86B
:1020E0000880A0FB0C98E1FB6C68E2FB6C78E2FBDB
:1020F0006A59E3FB6A69E1FB6E79E2FB6E89E56090
:10210000A0FB0EBADDF814E0E0FB6E7AE1FB6E8A0C
:10211000E2FB6E9A0D9CD4E90445DDF800E0E4FB97
:102120006E6BE5FB6E7BE3FB6C8BE4FB6C9BE5FB72
:102130006CABDDF830E0CEF81060019EA4FB06EC3D
:10214000E5FB668C049EE3FB669CE4FB66ACE5FB6A
:1021500066BC029EE3FB667EE4FB668EE5FB669E44
:10216000059EE3FB66AEE4FB66BEE5FB66CE0C9C1B
:1021700004F1140484E8805F06AD95E8E003A0FB59
:1021800005CEA1FB05BAE0FB66EBE2FB65AB2DE9F2
:102190000050A1FB06ECE3FB65BCE0FB67AEE1FB96
:1021A00067BEE2FB67CEA0FB0854E1FB68C4E2FB1C
:1021B00068E4E2FB66B5E3FB66C5E1FB69E5E2FBCB
:1021C0006945A0FB0976DDF83490E0FB69E6E1FBA8
:1021D0006946E2FB69560F9AD2E90412DDF82090B5
:1021E000E1FB69C7E2FB69E7E3FB6847E1FB68578E
:1021F000E2FB68670998A1FB0098E2FB60480C9835
:10220000E3FB6058E1FB6068E2FB60780A98E3FB5F
:1022100060E9E1FB6049E2FB60590D98E3FB60690E
:10222000E1FB6079E2FB60890E9800F1300181E802
:10223000F0038769BDE800030D9800F118003FC85E
:10224000009EE0FB6687E1FB6697E2FB66A7E3FB87
:1022500066B7E4FB66C7E5FB66E70C9EC6F8188028
:10226000D6F81C80019EE0FB6698E1FB66A8E2FBC5
:1022700066B8E3FB66C8E4FB66E8E5FB66780C9E9F
:10228000C6F81C90D6F82090029EE0FB66A9E1FB00
:1022900066B9E2FB66C9E3FB66E9E4FB6679E5FB48
:1022A00066890C9EC6F820A0D6F824A0039EE0FB09
:1022B00066BAE1FB66CAE2FB66EAE3FB667AE4FB28
:1022C000668AE5FB669A0C9EC6F824B0D6F828B05C
:1022D000049EE0FB66CBE1FB66EBE2FB667BE3FB87
:1022E000668BE4FB669BE5FB66AB0C9EC6F828C0DC
:1022F000D6F82CC0059EE0FB66ECE1FB667CE2FBB9
:10230000668CE3FB669CE4FB66ACE5FB66BC0C9E5E
:10231000C6F82CE0366BDDF818E0E0FB6E76E1FBEA
:102320006E86E2FB6E96E3FB6EA6E4FB6EB6E5FB03
:102330006EC6DDF830E0CEF83070DEF83470DDF8CF
:102340001CE0E0FB6E87E1FB6E97E2FB6EA7E3FB10
:102350006EB7E4FB6EC7E5FB6E67DDF830E0CEF8E4
:102360003480DEF83880DDF820E0E0FB6E98E1FB99
:102370006EA8E2FB6EB8E3FB6EC8E4FB6E68E5FB9B
:102380006E78DDF830E0CEF83890DEF83C90DDF87D
:1023900024E0E0FB6EA9E1FB6EB9E2FB6EC9E3FB52
:1023A0006E69E4FB6E79E5FB6E89DDF830E0CEF80E
:1023B0003CA0DEF840A0DDF828E0E0FB6EBAE1FBCF
:1023C0006ECAE2FB6E6AE3FB6E7AE4FB6E8AE5FBA3
:1023D0006E9ADDF830E0CEF840B0DEF844B0DDF8BB
:1023E0002CE0E0FB6ECBE1FB6E6BE2FB6E7BE3FB74
:1023F0006E8BE4FB6E9BE5FB6EAB0C98C0F844C0A3
:102400000EB000BD2DE9F14FFFF74AFE5DF804CB99
:102410000CF1480C8CE8C00FBDE8F08F01B591E8D5
:10242000FF0F2DE9FF0FA0FB0089A1FB00BAE0FB25
:10243000619BE2FB60AB0C9EE6E80289A1FB017C9C
:10244000E3FB60BCE0FB62A7E1FB62B7E2FB62C7B3
:10245000A0FB0398E1FB63C8E2FB6378E2FB61B990
:10246000E3FB61C9E1FB6479E2FB6489E6E802AB66
:10247000A0FB04BAE0FB657AE1FB658AE2FB659AA2
:10248000E4FB60CBE5FB607BE3FB638BE4FB639BDE
:10249000E5FB63AB46F804CBA4FB01ECE5FB618CE8
:1024A000E3FB649CE4FB64ACE5FB64BCE3FB627EA1
:1024B000E4FB628EE5FB629EE3FB65AEE4FB65BE7A
:1024C000E5FB65CE86E8805F06AD95E8E003A0FBFE
:1024D00005CEA1FB05BAE0FB66EBE2FB65AB2DE99F
:1024E0000050A1FB06ECE3FB65BCE0FB67AEE1FB43
:1024F00067BEE2FB67CEA0FB0854E1FB68C4E2FBC9
:1025000068E4E2FB66B5E3FB66C5E1FB69E5E2FB77
:102510006945A0FB0976DDF83490E0FB69E6E1FB54
:102520006946E2FB6956DDE906120898E1FB60C7DF
:10253000E2FB60E7E3FB6847E1FB6857E2FB6867A3
:102540000998A1FB0098E2FB60480C98E3FB6058F7
:10255000E1FB6068E2FB60780A98E3FB60E9E1FB7D
:102560006049E2FB60590D98E3FB6069E1FB60792B
:10257000E2FB60890E9800F1300181E8F003876981
:10258000BDE8000306A83FC8009EE0FB6687E1FBAC
:102590006697E2FB66A7E3FB66B7E4FB66C7E5FB6D
:1025A00066E70C9EC6F81880D6F81C80019EE0FBFA
:1025B0006698E1FB66A8E2FB66B8E3FB66C8E4FB4D
:1025C00066E8E5FB66780C9EC6F81C90D6F820906D
:1025D000029EE0FB66A9E1FB66B9E2FB66C9E3FB8C
:1025E00066E9E4FB6679E5FB66890C9EC6F820A0E7
:1025F000D6F824A0039EE0FB66BAE1FB66CAE2FBC4
:1026000066EAE3FB667AE4FB668AE5FB669A0C9E63
:10261000C6F824B0D6F828B0049EE0FB66CBE1FBF8
:1026200066EBE2FB667BE3FB668BE4FB669BE5FB0C
:1026300066AB0C9EC6F828C0D6F82CC0059EE0FB01
:1026400066ECE1FB667CE2FB668CE3FB669CE4FBEC
:1026500066ACE5FB66BC0C9EC6F82CE0366BE0FB76
:102660006076E1FB6086E2FB6096E3FB60A6E4FB3C
:1026700060B6E5FB60C6DDF830E0CEF83070DEF81D
:102680003470E0FB6187E1FB6197E2FB61A7E3FB4C
:1026900061B7E4FB61C7E5FB6167CEF83480DEF823
:1026A0003880E0FB6298E1FB62A8E2FB62B8E3FBE2
:1026B00062C8E4FB6268E5FB6278CEF83890DEF829
:1026C0003C90E0FB63A9E1FB63B9E2FB63C9E3FB78
:1026D0006369E4FB6379E5FB6389CEF83CA0DEF82F
:1026E00040A0E0FB64BAE1FB64CAE2FB646AE3FB7E
:1026F000647AE4FB648AE5FB649ACEF840B0DEF8C5
:1027000044B0E0FB65CBE1FB656BE2FB657BE3FB83
:10271000658BE4FB659BE5FB65ABCEF844C00DB073
:1027200000BD00BF2DE9F14FFFF778FE5DF804CB47
:102730000CF1480C8CE8C00FBDE8F08F2DE9F04F8C
:10274000B0E8FE0783B02DE9010790E8005F4FF085
:102750000A0006900198DB199CEA030C18EB3C4830
:1027600097EA080713EB375393EA3C4C18EB3C68A5
:1027700098EA375724189EEA040E19EB3E4990EA6E
:10278000090014EB305494EA3E4E19EB3E6999EA85
:102790003050CDE90489DDE9028949199AEA010A34
:1027A00018EB3A4895EA080511EB355191EA3A4A97
:1027B00018EB3A6898EA355592199BEA020B19EB27
:1027C0003B4996EA090612EB365292EA3B4B19EB6B
:1027D0003B6999EA365613EB706393EA3B6B18EB4F
:1027E0003B4898EA706013EB305393EA3B4B5FEA47
:1027F0003B6B18EB0B0898EA30505FEA706014EB03
:10280000756494EA3C6C19EB3C4999EA756514EBE4
:10281000355494EA3C4C5FEA3C6C19EB0C0999EA9C
:1028200035555FEA7565CDE90289DDE9048911EB6B
:10283000766191EA3E6E18EB3E4898EA766611EBB7
:10284000365191EA3E4E5FEA3E6E18EB0E0898EA6A
:1028500036565FEA766612EB776292EA3A6A19EBCD
:102860003A4999EA776712EB375292EA3A4A5FEAB5
:102870003A6A19EB0A0999EA37575FEA77670190D4
:10288000069801387FF465AF01BC80E8005FBDE8C1
:10289000000700E9FE0703B0BDE8F08F30B44FF049
:1028A000000310F8014B11F8015B013A84EA0504BA
:1028B00043EA0403F5D1A3F101034FEAD37030BC1E
:1028C000704700BF4FF0000310F8012B013943EAB5
:1028D0000203F9D1A3F101034FEAD370704700BF9F
:1028E00030B411F8014B12F8015B6C4000F8014B59
:1028F000013BF6D130BC70472DE9F00791E8F807AD
:10290000B2E802105B1854EB0C04B2E802104D411F
:1029100056EB0C06B2E802104F4158EB0C08B2E837
:10292000021059EB01095AEB0C0A4FF0260261EB39
:10293000010122EA01015B1854F1000455F1000580
:1029400056F1000657F1000758F1000859F1000947
:102950005AF1000A61EB010122EA01010B4480E80F
:10296000F807BDE8F00770472DE9F00791E8F80790
:10297000B2E802105B1A74EB0C04B2E802108D414D
:1029800076EB0C06B2E802108F4178EB0C08B2E847
:10299000021079EB01097AEB0C0A4FF0260261EB89
:1029A000010102EA01015B1A74F1000475F10005EE
:1029B00076F1000677F1000778F1000879F1000957
:1029C0007AF1000A61EB010102EA0101A3EB0103C4
:1029D00080E8F807BDE8F007704700BF2DE9F14F28
:1029E00087B0FFF70BF94FF0260CBDE800034FF05E
:1029F000000AE0FB0C8AE1FB6C9A03BCE2FB6CA0D2
:102A0000E3FB6C010CBCE4FB6C12E5FB6C23BDE842
:102A10001040E6FB6C34E7FB6CB40CFB04F418EBE1
:102A2000040459F100055AF1000650F1000751F174
:102A3000000852F1000953F1000A5BF1000B60EB52
:102A400000002CEA000004448EE8F00FBDE8F08F8F
:102A50002DE9F14F87B0FFF78DF9C4E72DE9F003B9
:102A600091E8F8134FF4EE31BF390022E3FB612304
:102A7000E4FB6134E5FB6145E6FB6156E7FB61671A
:102A8000E8FB6178E9FB6189ECFB619C4FF0260172
:102A900001FB0CFC12EB0C0253F1000354F1000497
:102AA00055F1000556F1000657F1000758F10008EE
:102AB00059F100096CEB0C0C21EA0C010A4480E886
:102AC000FC03BDE8F00370472DE9F00390E8F8132C
:102AD0004FEAEC7202F013022CF0004C02F11301E9
:102AE000591854F1000155F1000156F1000157F158
:102AF000000158F1000159F100015CF100014FEAB9
:102B0000E17101F0130111445B1854F1000455F117
:102B1000000556F1000657F1000758F1000859F179
:102B200000094CF1000C2CF0004C80E8F813BDE8D3
:102B3000F00370472DE9F00391E8F803B2E80210C2
:102B40005B1854EB0C04B2E802104D4156EB0C0636
:102B500092E806104F4158EB020859EB0C098941E5
:102B6000013B74F1000475F1000576F1FF3677F151
:102B7000FF3778F1FF3879F1FF3951F1000113EB9C
:102B8000D17354F1000455F100054E414F4158EB0B
:102B9000010859EB010980E8F803BDE8F00370472C
:102BA0002DE9F00391E8F803B2E802105B1A74EB28
:102BB0000C04B2E802108D4176EB0C0692E8061088
:102BC0008F4178EB020879EB0C09894113EBD17343
:102BD00054F1000455F100054E414F4158EB0108F6
:102BE00059EB010980E8F803BDE8F003704700BF26
:102BF0002DE9F14F85B0FEF735FEDDE903ABBAEB09
:102C000005097BEB060AB84171EB080172F100027D
:102C100073F1000374F100046BEB0B0B4919724163
:102C20007B4154EB08044BF10005BDE8C001BEEB4D
:102C30000E0E59EB02095AEB030A604169415EF13D
:102C4000000E96419F4178EB040879EB05097AF173
:102C5000000A70F1000B71F1000C6EF1010E16EB21
:102C6000DE7657F1000758F1000859EB0E095AEBD0
:102C70000E0A5BEB0E0B5CEB0E0C02B001BC80E8A5
:102C8000C01FBDE8F08F00BF2DE9F14F85B0FEF702
:102C900083FEB2E72DE9F00791E8F807B2E80210E9
:102CA0005B1854EB0C04B2E802104D4156EB0C06D5
:102CB000B2E802104F4158EB0C08B2E8021059EB91
:102CC00001095AEB0C0A8941B3F1FF3374F1FF3467
:102CD00075F1FF3576F1000677F1000778F100080D
:102CE00079F101097AF1FF3A51F100015B184C4189
:102CF0004D4156F1000657F1000758F1000859EB15
:102D0000D1795AEB010A80E8F807BDE8F00770476F
:102D10002DE9F00791E8F807B2E802105B1A74EBAE
:102D20000C04B2E802108D4176EB0C06B2E80210FA
:102D30008F4178EB0C08B2E8021079EB01097AEBCD
:102D40000C0A89415B184C414D4156F1000657F180
:102D5000000758F1000859EBD1795AEB010A80E8D5
:102D6000F807BDE8F007704718EB040859EB0509B0
:102D70005AEB060A5BEB070B5FF0000C4CF1000C02
:102D800018EB050859EB06095AEB070A5BEB070B32
:102D900050EB0C005FF0000C51EB0C0152EB0C02FD
:102DA00063414CF1000CB8EB070879F100097AF1A6
:102DB000000A7BEB040BA841B141A241B3416CF185
:102DC000000CBBEB050BB041B941AA41BB416CF112
:102DD000000C4CF001068CF0020718EB060859EBCA
:102DE0006C095AEB6C0A7BEB6C0B70EB6C0471EBAF
:102DF0006C0572EB670653EB6C076CEB6C0C18EB15
:102E00000C0059EB0C015AEB0C025BF1000354F17E
:102E1000000455F1000556EBDC7657EB0C077047C4
:102E20002DE9F14F87B0FEF7E9FEDDF81080DDF8FF
:102E30001490DDF818A0FFF797FFBDE8000FFFF72B
:102E400093FF03B05DF8048B88E8FF00BDE8F08FC6
:102E50002DE9F14F87B0FEF78DFFDDF81080DDF82A
:102E60001490DDF818A0FFF77FFFBDE8000FFFF713
:102E70007BFF03B05DF8048B88E8FF00BDE8F08FAE
:102E80002DE9F04FB1E8C003B2E83804F618674105
:102E900058EB050859EB0A092DE9C003B1E8C00356
:102EA000B2E838045E41674158EB050859EB0A095E
:102EB00091E8005C3CCA5AEB020A5BEB030B5CEB4B
:102EC000040C5EEB050E89413CBCB2F1FF3273F19C
:102ED000000374F1000475F1FF3556F1010677F136
:102EE000FF3778F1FF3879F1FF397AF1FF3A7BF15A
:102EF000FF3B7CF1FF3C7EF1FF3E51F10001521897
:102F000053F1000354F100044D4156EB41064F418B
:102F100058EB010859EB01095AEB010A5BEB010B75
:102F20005CEB010C5EEB010E80E8FC5FBDE8F08F0E
:102F30002DE9F04FB1E8C003B2E83804F61AA74112
:102F400078EB050879EB0A092DE9C003B1E8C00365
:102F5000B2E838049E41A74178EB050879EB0A09ED
:102F600091E8005C3CCA7AEB020A7BEB030B7CEB3A
:102F7000040C7EEB050E89413CBC521853F1000352
:102F800054F100044D4156EB41064F4158EB010806
:102F900059EB01095AEB010A5BEB010B5CEB010CED
:102FA0005EEB010E80E8FC5FBDE8F08F801979418F
:102FB00052EB080253EB090354EB0A0455EB0B05E3
:102FC0004CF1000C9B197C4155EB08054CF1000CB1
:102FD000A4197D414CF1000C891BBA4173EB080325
:102FE00074EB090475EB0A056CF1000CDDE90C6764
:102FF00016EB0C064FEAEC7C57EB0C074CF1000C7F
:1030000016EB080657EB09074CF1000C16EB090606
:1030100057EB0A074CF1000CB6EB0B06DDF81880F5
:1030200077EB08076CF1000CDDE90E8918EB0C0852
:103030004FEAEC7C59EB0C094CF1000C18EB0A0838
:1030400059EB0B09DDF818A04CEB0A0C18EB0B0838
:1030500059EB0A094CF1000CDDE910AB1AEB0C0A34
:103060005BF1000B704700BF2DE9F14F98B0684647
:10307000FFF716F806A83FC84FF0000CCDF818C0AF
:103080004FF0010CFFF792FF0DF1300C8CE83F0080
:103090004FF0000C4CF1000C9DE83F00CDF818C03B
:1030A000FFF784FF6CEB0C0C10EB0C0051F10001EE
:1030B00052F1000253EB0C0354EB4C0455EB0C059E
:1030C00056EB0C0657EB0C0758EB0C0859EB0C09A8
:1030D0005AEB0C0A5BEB0C0B18B05DF804CB8CE8D8
:1030E000FF0FBDE8F08F00BF2DE9F14F98B06846A3
:1030F000FFF794F9BEE700BF2DE9F14FF8C892E859
:10310000005E19EB03095AEB040A5BEB050B5CEB61
:10311000060C4EEB070E91E8E001A9FB0502AAFBA5
:103120000543E9FB6624EAFB6634A9FB0765E9FB76
:103130006845B1E80003EBFB6836ECFB6846EEFB44
:103140006856ABFB0987ECFB6957EEFB696791E8B2
:103150000202EAFB6148EBFB6158ECFB6168EEFBA5
:1031600061784FF00001EAFB0951EBFB6961ECFB70
:103170006971EEFB69814FF4A03C4FEA154949EAB9
:1031800006495FF0000AE9FB0C0A4FEA164646EAD8
:103190000746E6FB6C2A4FEA174747EA0847E7FB72
:1031A0006C3A4FEA184848EA0148E8FB6C4AADB26D
:1031B0005544AF0805F0030507EB8707C01952F126
:1031C000000153F1000254F1000345F1000420BC5A
:1031D0001FC5BDE8F08F00BF30B490E83C10511D12
:1031E00053F1000154F1000155F100014CF10001CF
:1031F0004FEA9101494201F00501521853F10003D1
:1032000054F1000455F100054CF1000C0CF0030CD6
:1032100080E83C1030BC70472DE9F04F90E8F00F8B
:1032200000F140004FF0040E59E0F0B4826BC36B24
:1032300004680525242687593C444FEA724787EAEB
:10324000F24787EA92273C4442684FEAF21787EA3E
:10325000B24787EAD2073C4440F8044B032D08BF2D
:103260006FF01B0687593A444FEA734787EAF347E2
:1032700087EA93273A4443684FEAF31787EAB3474C
:1032800087EAD3073A4440F8042B87593B444FEA76
:10329000744787EAF44787EA94273B4444684FEA37
:1032A000F41787EAB44787EAD4073B4440F8043B65
:1032B000013DC0D1A0F13C00076A3C444FEA72478F
:1032C00087EAF24787EA92273C4402684FEAF217FE
:1032D00087EAB24787EAD2073C44C463F0BC4FF0A8
:1032E000020288EA781C8CEAF84C0BEBBC1C8AEAD8
:1032F000090303EA080383EA0A039C4450F8043BE9
:103300009C4451F8043B9C44674444EA050B0BEA97
:10331000060B04EA05034BEA030BE34484EAF423B7
:1033200083EA34530BEBB30B87EA771C8CEAF74C38
:103330000AEBBC1C89EA080303EA070383EA0903D2
:103340009C4450F8043B9C4451F8043B9C44664424
:103350004BEA040A0AEA050A0BEA04034AEA030AEA
:10336000E2448BEAFB2383EA3B530AEBB30A86EA87
:10337000761C8CEAF64C09EBBC1C88EA070303EACE
:10338000060383EA08039C4450F8043B9C4451F82C
:10339000043B9C4465444AEA0B0909EA04090AEA29
:1033A0000B0349EA0309E1448AEAFA2383EA3A5320
:1033B00009EBB30985EA751C8CEAF54C08EBBC1CDB
:1033C00087EA060303EA050383EA07039C4450F8EF
:1033D000043B9C4451F8043B9C44644449EA0A0879
:1033E00008EA0B0809EA0A0348EA0308E04489EA04
:1033F000F92383EA395308EBB30884EA741C8CEA96
:10340000F44C07EBBC1C86EA050303EA040383EAD9
:1034100006039C4450F8043B9C4451F8043B9C44F4
:10342000E34448EA090707EA0A0708EA090347EA02
:103430000307674488EAF82383EA385307EBB307A6
:103440008BEA7B1C8CEAFB4C06EBBC1C85EA040374
:1034500003EA0B0383EA05039C4450F8043B9C44B5
:1034600051F8043B9C44E24447EA080606EA090690
:1034700007EA080346EA0306664487EAF72383EA75
:10348000375306EBB3068AEA7A1C8CEAFA4C05EB52
:10349000BC1C84EA0B0303EA0A0383EA04039C448A
:1034A00050F8043B9C4451F8043B9C44E14446EAF8
:1034B000070505EA080506EA070345EA030565442A
:1034C00086EAF62383EA365305EBB30589EA791CCD
:1034D0008CEAF94C04EBBC1C8BEA0A0303EA0903EF
:1034E00083EA0B039C4450F8043B9C4451F8043B92
:1034F0009C44E04445EA060404EA070405EA06039E
:1035000044EA0304644485EAF52383EA355304EB73
:10351000B304013A7FF4E5AEA0F14000BEF1010E24
:103520007FF483AEA0F1400C9CE80F00001949190C
:103530009219DB19ACE80F009CE80F0040444944A5
:1035400052445B44ACE80F00BDE8F08F2DE9F04732
:1035500086468C460846089E154674461946002B3A
:1035600040F0C1808542B2FA82F245D94AB1C2F137
:10357000200300FA02FC954094402EFA03F343EA3C
:103580000C0C4FEA154EA8B2230CBCFBFEF80EFB48
:1035900018CC08FB00F943EA0C43994528D9EB18ED
:1035A00008F1FF3704D2994502D9A8F102072B444C
:1035B000A3EB0903A4B2B3FBFEFC0EFB1C330CFB14
:1035C00000F044EA0344A04214D92C190CF1FF3353
:1035D00004D2A04202D9ACF102032C44241A43EADB
:1035E00007401EB1D440002334607360BDE8F0870B
:1035F0004746DDE76346F1E792BB431B01214FEAF3
:10360000154EAFB2200CB3FBFEFC0EFB1C330CFBC3
:1036100007F840EA0343984561D9EB180CF1FF30F5
:1036200004D2984502D9ACF102002B44A3EB080365
:10363000A4B2B3FBFEFC0EFB1C330CFB07F744EA01
:103640000344A7424DD92C190CF1FF3304D2A742F1
:1036500002D9ACF102032C44E41B43EA0040C0E76A
:10366000C2F120039540944020FA03F12EFA03F3AF
:103670004FEA154E9040AFB20343B1FBFEFC0EFB88
:103680001C10190C0CFB07F841EA0041884522D9AF
:1036900069180CF1FF3004D2884502D9ACF1020060
:1036A0002944A1EB08019BB2B1FBFEFC0EFB1C11EF
:1036B0000CFB07F743EA01439F420ED9EB180CF1CC
:1036C000FF3104D29F4202D9ACF102012B44DB1B33
:1036D00041EA004193E76046E3E76146F7E7604669
:1036E000A4E76346B8E7834206D916B90021084625
:1036F0007CE7C6E900E0F9E7B3FA83F78FB98342C4
:1037000001D3724508D8BEEB020460EB030301202D
:103710009C461EB9002169E73846FAE7C6E9004C25
:10372000F8E7C7F1200CBB400EFA07F522FA0CF4BB
:103730002EFA0CF1BA401C4320FA0CF3B8404FEAC1
:10374000144901431FFA84FEB3FBF9F809FB183052
:103750000B0C08FB0EFA43EA00439A4540D9E318E4
:1037600008F1FF3004D29A4502D9A8F1020023449F
:10377000A3EB0A0389B2B3FBF9F809FB183308FB82
:103780000EFE41EA03418E452CD9611808F1FF3342
:1037900004D28E4502D9A8F10203214443EA004035
:1037A000A1EB0E01A0FB02984145CE46434602D351
:1037B00006D14D4504D20138B9EB020E68EB040383
:1037C000002EA7D0B5EB0E0261EB030101FA0CFC51
:1037D00022FA07F3F9404CEA0303C6E9003199E7FE
:1037E0004046C5E74346D9E710F8012B11F8013BE5
:1037F000012A28BF9A42F7D0D01A7047034613F81F
:10380000012B002AFBD1181A013870470000000074
:103810002DE9F0478AB004AF5D4860F0C1FD58B9AA
:103820005C4A01215C484DF01AF94FF0FF34204604
:103830001837BD46BDE8F087554801F043FC5748AE
:1038400060F0AEFD08B9564AEBE701F0E3FD09F080
:1038500069F808B9534AE4E7534B6E463B6002905F
:1038600007F1180313E903008DE8030097E80F0040
:1038700010F038FA3D46044698B139F007F888B0A0
:1038800004AA4A4B4FF4E251C2E905304FF40073E9
:103890009383474B404842F8103F4DF0E2F8B5465D
:1038A000C5E7444861F0A3F8434EDFF81081DFF824
:1038B000E8903378EBB10321414A37484DF0CFF817
:1038C000404EDFF80481DFF8D0903379DB071BD559
:1038D00003213E4A30484DF0C2F8304E3B21D6F825
:1038E00008803046D8F80C309847002817DA384A54
:1038F00097E74846424603214DF0B1F84FF4804027
:1039000000214DF0B1F8D4E74846424603214DF07E
:10391000A6F84FF4804000214DF0A6F8D5E70D2120
:103920002A46D8F8103030469847D7E9006A504602
:10393000FCF764FD14A3D3E90023FCF7F3FE8046F3
:1039400030468946FCF75AFD02460B46404649463A
:10395000FCF708FCFDF776F805460F4833460321CF
:103960001C4ACDF800A04EF08BF8284601F0E0FB91
:1039700000283FF45CAF0121174A07484DF06FF86B
:1039800055E700BFAFF300800000000080842E41A7
:10399000A4B30600B713080010B80600CCB30600A5
:1039A000CF130800EA130800094D000008140800AE
:1039B00003000001700C002036550020341408006C
:1039C00059140800282B002082140800A2140800B3
:1039D000D9140800F41408000B15080000000000BA
:1039E0002DE9F04F8846D0F8201182460B6B164621
:1039F0008FB053B10622183106F1200061F0C3FCEC
:103A000018B901200FB0BDE8F08F504604A9D8F8CE
:103A10006050D8F88040D6F8807057F09EFE00289D
:103A200052D1DDF820B0BBF1000F04D1DDF81CB09D
:103A3000BBF1000F27D042F20F71099B049A8B4211
:103A40000AD16FF47A63D31840F2657293428CBF47
:103A50006FF058036FF05B034046ABEB030956F081
:103A600076F8D8F88C20034608F194010AB9D8F802
:103A70009020D8F850005D46CDE9009050461CF0EB
:103A80003FFFCB46044604F59C530833BB42B8D3F2
:103A9000336DB3F57A6F1ADDD8F85030B3F57A6F1D
:103AA000ACBF4FF0000A4FF0010A002D12DB07F502
:103AB0009C5308339C4200F2CB80BBF1190F00F3FA
:103AC000C7804FF0020B3AE04FF0000BDBE74FF0FE
:103AD000000AEAE7336E03EB4A03AB4215DA3846D5
:103AE000FCF77CFC804620468946FCF777FC4FF0CB
:103AF00033325B4BFCF7ECFC02460B464046494632
:103B0000FCF758FF002840F0A38007F59C530833CA
:103B1000A342C0F09D80BBF1190F00F3998015F10D
:103B2000550F31DB15F1500FCBDB15F14B0F2EDBB1
:103B300015F1460FB4BF4FF0040B4FF0050B2046B4
:103B4000FCF74CFC804638468946FCF747FC0246A9
:103B50000B46CDE902230022424BFCF7B9FC02469A
:103B60000B4640464946FCF743FF98B10BF10A0B60
:103B7000BAF1000F01D0ABF1020B306E401B58457B
:103B8000B4BF002001203DE74FF0010BD7E74FF015
:103B9000030BD4E74FF03332DDE90201304BFCF781
:103BA00097FC02460B4640464946FCF721FF10B100
:103BB0000BF1050BDCE728A3D3E90023DDE90201C3
:103BC000FCF786FC02460B4640464946FCF710FFD0
:103BD00010B10BF1020BCBE7BC4202D90BF1010B88
:103BE000C6E700221F4B40464946FCF771FC0246DF
:103BF0000B46DDE90201FCF7FBFE10B1ABF10A0B4D
:103C0000B6E74FF03332164B40464946FCF760FCAE
:103C100002460B46DDE90201FCF7EAFE10B1ABF10A
:103C2000050BA5E70CA3D3E9002340464946FCF762
:103C30004FFC02460B46DDE90201FCF7D9FE10B14C
:103C4000ABF1020B94E7BC4238BF0BF1FF3B8FE7AF
:103C50000020D7E6AFF300809A9999999999F13F9E
:103C60003333F33F0000F83F2DE9F041C1F30A5729
:103C700002460B460C46A7F2FF3605468046132E39
:103C800030DC002E11DA34A3D3E90023FCF76AFA02
:103C900000220023FCF7ACFE20B1002C52DB2543B0
:103CA00054D12C4623462A4625E02D4F374101EAC0
:103CB000070C5CEA000C1ED027A3D3E90023FCF715
:103CC00051FA00220023FCF793FE0028EAD0002CD2
:103CD0004FF00005C2BF4FF480133341E41824EACB
:103CE0000704DFE7332E0ADDB6F5806F03D1FCF75A
:103CF00039FA02460B4610461946BDE8F081A7F294
:103D000013474FF0FF3C2CFA07F73842F3D012A3C9
:103D1000D3E90023FCF726FA00220023FCF768FE13
:103D20000028BFD0002C0ADD142E01D1013406E09A
:103D3000C6F134060123B3401D44A845F6D825EA50
:103D40000705AFE700254FF00044ABE70025054C21
:103D5000A8E700BFAFF300809C7500883CE4377E85
:103D6000FFFF0F000000F03F2DE9F041C1F30A57BB
:103D700002460B460C46A7F2FF3605468046132E38
:103D800036DC002E17DA34A3D3E90023FCF7EAF976
:103D900000220023FCF72CFE50B1002C58DA24F04E
:103DA00000442C430025AC422D4C08BF4FF000448A
:103DB00023462A4625E02B4F374101EA070C5CEAEF
:103DC000000C1ED024A3D3E90023FCF7CBF900227A
:103DD0000023FCF70DFE0028EAD0002C4FF0000570
:103DE000BEBF4FF480133341E41824EA0704DFE731
:103DF000332E0ADDB6F5806F03D1FCF7B3F9024626
:103E00000B4610461946BDE8F081A7F213474FF064
:103E1000FF3C2CFA07F70742F3D00FA3D3E90023A6
:103E2000FCF7A0F900220023FCF7E2FD0028BFD038
:103E3000002C0ADA142E01D1013406E0C6F1340652
:103E40000123B3401D444545F6D325EA0705AFE7F6
:103E500000252C46ACE700BF9C7500883CE4377E0B
:103E60000000F0BFFFFF0F002DE9F0481646C1F338
:103E70000A5283468C460B4682B921F00043034325
:103E800035D02D4B0022FCF723FB2C4B83468C4670
:103E90009E420DDA24A3D3E900231CE040F2FF7711
:103EA000BA4209D10246FCF75DF983468C461EE012
:103EB000C1F30A520B46363A324440F2FE718A424E
:103EC0000CDD4FEADC711E4819A3D3E900231C4620
:103ED00061F3DF742146FCF7FBFAE6E7002A0ADD0E
:103EE00023F0FF4323F4E00343EA0255AC4658466F
:103EF0006146BDE8F08812F1350F09DA0CF0004395
:103F0000104843F0D27141F4B73141F01F01C1E7CD
:103F100023F0FF433632584623F4E00343EA0255C8
:103F20000022094B2946D6E759F3F8C21F6EA501B6
:103F30009C7500883CE4377E00005043B03CFFFF96
:103F40009C75008859F3F8C20000903C0000000006
:103F50002DE9F04F144697B01D46476A8346239ECD
:103F6000CDE904457FB9102004F020FA0246CBF8D1
:103F7000240020B9A24BEA21A24837F009FDC0E98C
:103F800001770760C760DBF82430196859B15A68B7
:103F90000123584693404A608B6039F089F9DBF879
:103FA000243000221A602B1EB7BF23F000430023E9
:103FB00001220593A8BF3360059F934BB8BF3260C1
:103FC000BB4319D142F20F73229A1360C7F3130354
:103FD000234300F0E085249B53B98C4B21E08C4BAC
:103FE00008930833249A1360089817B0BDE8F08F3F
:103FF000864B08930333F5E7DDE90423CDE90C2371
:10400000DDE90C0100220023FCF7CAFC804650B118
:104010000123229A1360249B13B17E4B249A1360D0
:104020007D4B0893E0E714ABC7F30A56584601935B
:1040300015AB0093DDE90C2339F0C0FB0390002E93
:1040400078D00D9BA6F2FF36CDF84C80C3F3130356
:1040500043F07F53DDE90C0143F44013194600227D
:104060006E4BFCF77DF860A3D3E90023FCF730FA30
:104070005FA3D3E90023FCF775F804460D463046EC
:10408000FCF7BCF95CA3D3E90023FCF721FA024654
:104090000B4620462946FCF765F804460D46FCF71A
:1040A000BFFD00220746002320462946FCF782FC7C
:1040B00040B13846FCF7A2F922462B46FCF770FCCB
:1040C00000B9013F162F54D8554B03EBC703DDE968
:1040D0000C01D3E90023FCF76DFC00284BD0013F15
:1040E00000231293149B9B1B5A1E4CBFC3F1010368
:1040F00000230A9245BF0693002306930A93002FDC
:104100003BDB0A9B0F973B440A9300230B93209BB6
:10411000092B00F28980052BC5BF043B0024012434
:104120002093209B023B032B00F28980DFE803F001
:104130002D3A3859DDE914631E4406F23243202B30
:10414000C9BFC3F14003C3F120039F4006F21243ED
:10415000D8BF04FA03F006F1FF36C4BF24FA03F314
:1041600047EA0300FCF73AF90122A1F1F873139230
:1041700074E70123B5E71290B4E7069BDB1B0693B7
:104180007B420B9300230F93C1E700230E93219BE7
:10419000002B57DC012399461A46099321920CE023
:1041A0000123F3E700230E93219BFB1803F1010980
:1041B00009934B46012BB8BF0123DBF824000021F3
:1041C000042202F114059D4240D94160584639F05D
:1041D0002FF8089000283CD1124B02464FF4D571BD
:1041E000CAE60123DFE700BF61436F63A787D23FC1
:1041F000B3C8608B288AC63FFB799F501344D33FD6
:10420000EBE9080085EA08000000F07F81EA080079
:1042100078EA080041640800406408000000F83FA4
:1042200060D10700F9EA0800012400230E942093CE
:104230004FF0FF330022994609931223AEE7012382
:104240000E93F5E7219B99460993B6E70131520099
:10425000B7E7DBF82430B9F10E0F089A1A606FD86F
:10426000002C6DD0002F36DD07F00F02A04BF805B3
:1042700003EBC203D3E90034CDE910344FEA27142D
:1042800017D59C4B04F00F044FF00308D3E9082323
:10429000DDE90C01FCF746FACDE90401954D5CB966
:1042A000DDE91023DDE90401FCF73CFACDE9040166
:1042B0002BE04FF00208F1E7E10709D508F101080A
:1042C000DDE91001D5E90023FCF702F9CDE9100181
:1042D00064100835E3E700F007817C42844B854D8C
:1042E0004FF0020804F00F02241103EBC203DDE9D2
:1042F0000C01D3E90023FCF7EBF80023CDE904011E
:10430000002C40F0E580002BD0D1129BDDE9044564
:10431000002B00F04C810022774B20462946FCF709
:1043200049FB002800F04381B9F1000F00F03F8104
:10433000099B002B00F3E480DDE90C34CDE9043463
:10434000159B002B02DB0E2F40F342820E9A002AAF
:1043500040F067820B9C0025DDF81880B8F1000F53
:104360000DD00A9B002B0ADD4345069AA8BF4346A1
:10437000D21AA8EB030806920A9AD31A0A930B9B47
:104380000BB30E9B002B00F0A682002C00F0A18244
:1043900029462246584639F0B5F8039A01460546A3
:1043A000584639F005F803990646584638F080FF1C
:1043B0000B9B1B1B0B9300F091820B9A31465846C6
:1043C00039F0A0F803900121584638F0DBFF0F9B2D
:1043D0000446002B00F084821A460146584639F004
:1043E00091F8209B0446012B03DC049B002B00F07A
:1043F0007C820026236904EB8303186961F032FD97
:10440000C0F120000F960A9B184410F01F0000F026
:104410009182C0F12003042B40F38182C0F11C0083
:10442000069B0344804406930A9B03440A93069B1D
:10443000002B05DD1A460399584639F0BDF8039064
:104440000A9B002B05DD21461A46584639F0B4F880
:104450000446129B002B00F076822146039861F0FF
:1044600050FD002880F26F8200230A2203995846EB
:1044700038F040FF0E9B7E1E0390002B00F05C8204
:10448000002329460A22584638F034FF099B054686
:10449000002B03DC209B022B00F35E82B8F1000F9F
:1044A00005DD29464246584639F086F805460F9BF9
:1044B000002B00F0D0826968584638F0B9FE0746F4
:1044C000002840F07F820D4B024640F2EA2153E57E
:1044D000E20706D508F10108D5E90023FBF7F8FF4C
:1044E0000123641008350BE74FF002080DE700BF09
:1044F00060D1070038D107000000F03FF9EA08005A
:1045000020460022AC4B2946FBF7E2FF7E1E08F155
:104510000108099CCDE904014046FBF76FFFDDE986
:104520000423FBF7D5FFA54B0022FBF71BFEA1F1EF
:104530005073CDE910011193002C3BD10022A04B08
:10454000DDE90401FBF70CFE02460B46CDE904232E
:10455000DDE91023FCF74CFA002840F05781DDE933
:10456000102101F10043DDE90401FCF723FA0028E2
:104570003FF4E2AE00242546219BDDF820A0DE4377
:104580004FF000082146584638F092FE002D00F00A
:10459000A980B8F1000F05D0A84503D04146584680
:1045A00038F086FE2946584638F082FE9AE03E46AC
:1045B0004C46B1E7834B03EBC40353E90201089B6C
:1045C0001C440E9B002B4AD002460B4600207E491D
:1045D000FCF7A8F8DDE91023FBF7C2FDDDF820A009
:1045E000CDE91001DDE90401FCF71AFB0546FBF7F4
:1045F00005FF024630350B46DDE90401FBF7B0FD4F
:104600000AF8015B02460B46CDE90401DDE9100121
:10461000FCF7EEF9002865D100206C49DDE90423A0
:10462000FBF79EFD02460B46DDE91001FCF7E0F9C1
:10463000002840F00D81A24500F0EA8000225E4B88
:10464000DDE91001FBF744FF00225B4BCDE91001CF
:10465000DDE90401FBF73CFFCDE90401C2E7DDE938
:104660001023FBF735FFA046DDF820A0CDE91001AF
:10467000DDE90401FCF7D4FA0546FBF7BFFE02466C
:1046800030350B46DDE90401FBF76AFD0AF8015BF2
:1046900002460B46A245CDE904234FF0000223D188
:1046A000494BDDE91001FBF75DFD02460B46DDE9F4
:1046B0000401FCF79DF9002840F0CA80002042491F
:1046C000DDE91023FBF74CFD02460B46DDE9040152
:1046D000FCF770F970B1C24608F1FF381AF8013CD6
:1046E000302BF8D0374655E0334BFBF7F1FECDE9E0
:1046F0000401BDE7DDE90C34CDE90434159B002B42
:10470000FFF628AE0E2F3FF725AE2E4B03EBC70367
:10471000D3E90034CDE90634219B002B02DAB9F14C
:10472000000F64D0DDF820A0DDE90445DDE90623B3
:1047300020462946FBF7F6FFFCF772FA0646FBF720
:104740005DFEDDE90623FBF7C3FE0246204606F1C7
:1047500030040B462946FBF703FD0AF8014B089C81
:1047600002460B46AAEB0404A14540F08280FBF709
:10477000F9FC04460D46DDE90623FCF739F900286B
:1047800065D120462946DDE90623FCF709F908B181
:10479000F3075CD40399584638F08AFD00230137AB
:1047A0008AF80030229B1F60249B002B3FF41CAC36
:1047B000C3F800A018E400BF0000244000001C4023
:1047C0000000144060D107000000E03F0000F03F0F
:1047D000A24B03EBC703D3E90034CDE90634219B98
:1047E000002B9FDAB9F1000F9CDC7FF4C3AE0022EE
:1047F0009B4BDDE90601FBF76BFEDDE90423FCF7CB
:10480000EDF8044600287FF4B5AE3E462546B4E0F8
:10481000DDE90C34CDE90434159B002B01DB0E2FB0
:10482000D6DD209A012A36DC139A82B303F2334391
:104830000B9CDDF81880069A012158461A4406920E
:104840000A9A1A440A9238F09DFD054686E53E46CE
:1048500053469A4613F8012D392A06D1089A9A42EE
:10486000F7D13022089901360A701A7801321A708D
:1048700038E700227B4BFBF72BFE00220023044687
:104880000D46FCF78DF800283FF450AF82E7149BEB
:10489000C3F13603CCE709F1FF340B9BA34208DBDD
:1048A000B9F1000FA3EB04040EDBDDF818804B46D2
:1048B000C1E70B9B0F9AE31A0B94DDF818800024D4
:1048C0001A444B460F92B6E7069BA3EB0908002358
:1048D000B1E7039E71E50B9A039970E5039672E5C3
:1048E000209B012B17DC049BABB9059BC3F313037F
:1048F0009BB9059B23F00046360D360536B1069B65
:104900000126013306930A9B01330A930F9B002B68
:104910007FF470AD0F96012075E50026F6E73FF4B1
:1049200086AD1C33069A1A44984406920A9A1A4491
:104930000A927CE50346F4E7099B002B2BDC209BC5
:10494000022B09DC27E0B9F1000F1DDC209B022BB4
:104950001ADD3E46CDF82490099B002B7FF40CAE67
:1049600021460522584638F0C5FC01460446039806
:1049700061F0C7FA00287FF7FFADDDF820A03123F2
:1049800001360AF8013BFBE50E9B3E46CDF824902C
:10499000002B7FF483AD089F2146039861F0FCF85B
:1049A000089B00F13009099A07F8019BFB1A9A420B
:1049B00040F3CB8000230A220399584638F09AFC32
:1049C0000390E9E72A6905F10C010C3002329200EC
:1049D00060F0E9FC01223946584638F0EDFD089BAD
:1049E000A846054603F1010ADDE9082313440A93AA
:1049F000049B03F001030B930AF1FF332146039854
:104A0000069361F0C9F84146099000F13009039816
:104A100061F077FA2A4621460746584638F038FEB4
:104A2000C268014602B3584638F042FC002F3ADA19
:104A300001220399584638F0BFFD2146039061F0EA
:104A400060FA002803DC29D119F0010F26D0B9F152
:104A5000390F1DD132E02846C1E700BF60D1070001
:104A600000001440000024400E90039861F049FAC1
:104A70000E990C90584638F01BFC0C9A5ABB209BA0
:104A800053B90B9B43B9B9F1390F17D0002F05DD8E
:104A9000099B03F1310901E0002F2ADADDF818A0A3
:104AA0000AF8019B6EE5209B3B4304D1049B03F075
:104AB0000103002BBCD0B9F1390F36D1069F392341
:104AC00007F8013BBA46013F1AF8013C392B5AD08E
:104AD00001333B7056E5002F06DB209B3B4306D19C
:104AE000049B03F0010313B9002AA1DCD6E7002AD6
:104AF000E1DC0A9B57460AF8019C53452ED000235F
:104B00000A220399584638F0F5FBA84503904FF068
:104B100000034FF00A02414658460BD138F0EAFB39
:104B2000804605460AF1010A66E7DDF818A009F19A
:104B30000109B5E738F0DEFB2946804600230A224A
:104B4000584638F0D7FB0546ECE7099B4FF00008C4
:104B5000002BCCBF1F460127089B1F44012203994D
:104B6000584638F029FD2146039061F0CAF9002823
:104B7000A8DC02D119F0010FA4D1BA4617F8013D03
:104B8000302BFAD0FEE4089BBB429BD13123089A1C
:104B900001361370F6E4249B002B7FF420AA014B0E
:104BA000FFF73FBA78EA08002DE9F04F0129844663
:104BB0008E4687B064D8002942D033A3D3E90023BE
:104BC00033A7D7E9006734A5D5E900450FF2D00B2C
:104BD000DBE900AB34A1D1E90001CDE9042334A322
:104BE000D3E90023CDE9002333A3D3E90023CDE9A2
:104BF000022333A3D3E900234FF000084FF000094C
:104C0000CCE90A01DDE90401CCE90C01DDE9000190
:104C1000CCE90E01DDE90201CCE910010020CCE96C
:104C20000089CCE90289CCE90467CCE90645CCE9E6
:104C300008ABCCE91223CCF8D0E007B0BDE8F08F88
:104C400021A3D3E9002322A7D7E90067CDE90423F4
:104C500021A5D5E9004522A3D3E900230FF2880B53
:104C6000DBE900ABCDE9002321A1D1E9000122A3BA
:104C7000D3E90023CDE9022321A3D3E90023BBE735
:104C80006FF07400D9E700BF310BC0FF67263367B0
:104C9000D89E05C15D9DBBCB07D57C362A299A627B
:104CA00017DD70305A01599139590EF7D8EC2F158C
:104CB00011155868874AB48EA78FF9640D2E0CDB46
:104CC000A44FFABE1D48B547D182E6AD7F520E51C2
:104CD00008C9BCF367E6096A3BA7CA8485AE67BB0F
:104CE0001F6C3E2B8C68059B2BF894FE72F36E3C78
:104CF000F1361D5F3AF54FA56BBD41FBABD9831F64
:104D000079217E1319CDE05B024B1870024835F013
:104D100075BA00BF375500201C0B002090B5124B10
:104D2000A1B0994200AF1BD18168283180233A4657
:104D3000012007F089FF6C4688B06A460B4B4FF4A0
:104D4000E651C2E905374FF400739383084B0948D5
:104D500042F8103F4BF085FE0122A546064B1A7023
:104D60008437BD4690BD00BF080004E02E0F080048
:104D70000300000110B80600365500202DE9F0436D
:104D800097B000AF07F070FA04464422002107F103
:104D9000140060F02FFB44232146614807F1140200
:104DA0004EF080FF40B103215E4A5F484BF057FE52
:104DB0005C37BD46BDE8F08303215C4A5A484BF09E
:104DC0004EFE387D06F0D6FF6D4688B06A464FF439
:104DD0000079574BDFF85C81C2E90530A2F81C90DE
:104DE0004FF4E651504842F8108F4BF03AFE7B6981
:104DF000AD46052BDCDD97F8480006F0C7FF88B00C
:104E00006A464D4BA2F81C90C2E905304FF4E651BA
:104E100042F8108F44484BF024FEAD4697F8490005
:104E200006F0C0FF88B06C462646444BA4F81C90A0
:104E3000C4E9053046F8108F32464FF4E6513A483F
:104E40004BF00FFEAD46A5463D4B3246636107F180
:104E50001C03A3614FF4E6513348A4F81C90C4F836
:104E600010804BF0FEFD1223AD463A46062107F1B5
:104E70003C0007F0BDFEA546324B3246C4E9053082
:104E80004FF4E6512848A4F81C90C4F810804BF069
:104E9000E8FDAD4697F8420006F060FFA5462A4BB4
:104EA0003246C4E905304FF4E6511F48A4F81C907F
:104EB000C4F810804BF0D5FD0321AD467B6C234A2E
:104EC00019484BF0CAFD97F84A0006F02FFFA54697
:104ED0001F4B3246C4E905304FF4E6511248A4F89E
:104EE0001C90C4F810804BF0BCFDAD4697F84B0009
:104EF00006F028FFA546174B3246C4E905304FF4AB
:104F0000E6510948A4F81C90C4F810804BF0A9FDA4
:104F10000321AD46FB6C104A03484BF09EFD47E76A
:104F200006005651420F080010B80600580F08003E
:104F30006B0F080003000001750F0800880F0800C0
:104F4000960F0800A20F0800AC0F0800B50F08006C
:104F5000C10F0800CE0F0800D60F0800B0B52A4BCD
:104F600000AF994204D0013399421CD0BD46B0BD78
:104F7000264C2379D907F9D483681B684BB10121EA
:104F8000234A24484BF069FD237943F0020323713F
:104F9000ECE70321204A1F484BF061FD237943F0E1
:104FA00001032371F0E7194C2379DA07DED513F0FA
:104FB000040582681FD01168184B194A6D468AB0E3
:104FC000002908BF13466A461648D161C2E90503A5
:104FD0004FF400731384144B4FF4135142F8103FF5
:104FE0000C484BF03EFDAD4623796FF382032371ED
:104FF000FFF7C4FEBAE703210C4A06484BF02FFD29
:10500000237965F30003F2E7030056D1282B002033
:10501000E40F080010B80600FB0F080096C0080057
:10502000DF0F08000510080004000001231008002D
:1050300008B50C4D0C4C2B79DA070AD5A3685B69CF
:1050400040212046984740F6CD4000214BF00CFD12
:10505000F1E723691B685B06A36854BF1B69DB6823
:10506000EEE700BF282B002040B3060010B5114C1E
:1050700020465FF095F930B9BDE8104001210E4A95
:105080000E484BF0ECBC2269A1681368204623F05F
:10509000400313600B684FF4202206219847031E3B
:1050A00006DABDE810400121054A04484BF0D5BCA2
:1050B000FFF7BEFF40B306003910080010B8060025
:1050C000511008002DE9F04303210546144A154804
:1050D00085B04BF0C4FC03240026134FDFF8448056
:1050E0000223CDE901668DF80C30AB680122D3F8BC
:1050F00008902846A3B201A9C84728B923463A46D2
:10510000032140464BF0A9FC0134782CE8D103215F
:10511000064A044805B0BDE8F0434BF0A0BC00BF10
:105120007710080010B806008C100800AF100800B7
:105130002DE9F041ADF5846D04AFFBF771F91A2349
:105140000125584ACDE9020100934FF40071564BF6
:1051500007F1100037F056F954483D8160F001F92D
:105160000446524860F0FDF8C4F3072444EA0024E2
:105170004F4907F10C0228467C814CF0F6FD4FF4B4
:105180008172294628464CF022FE041E0EDA4CF0AD
:10519000C0FD29460368474A47484BF05EFC4FF084
:1051A000FF3007F58267BD46BDE8F08141F2A853A4
:1051B00029462A20414A06F03BF9031E11DB2A2327
:1051C0007B6004232A4600934FF48D712046FB1820
:1051D0004CF0F7FD00280DDA4CF09BFD384A0368CF
:1051E00000E0384A294634484BF037FC204600F0AE
:1051F00041FED4E73A23022200934FF48D712046FA
:10520000294B4CF0DEFD002804DA4CF082FD2E4ADA
:105210000368E7E708222046B9184CF0AAFD0028E9
:1052200004DA4CF076FD294A0368DBE707F1100049
:10523000FEF7E4FA0023024607F1100120464CF085
:10524000B0FD002804DA4CF064FD214A0368C9E788
:1052500007F50476002340F2FF12314620464CF059
:105260008AFD002804DA4CF054FD1A4A0368B9E7B5
:105270000025E84688B0355404AA174B4FF4E65190
:10528000C2E905364FF400739383144B0A4842F881
:10529000103F4BF0E6FB2046C54600F0EBFD2846EC
:1052A0007FE700BFFD100800C2100800731108005E
:1052B000771108008611080010B80600561508007E
:1052C000D3110800AD110800F91108001F120800E1
:1052D0003C1208005B120800811208000300000164
:1052E000F0B583B0032100AF394A3A484BF0B7FB21
:1052F0006C468CB06A46384B384D5361384B9361DD
:10530000384BD361384B3B6040F20243BB80374B94
:10531000136207F1080313E90300354B506211854E
:105320002C484FF4535142F8103F4BF09AFBA546DE
:105330000321304A27484BF092FB4FF0FF324FF0E9
:10534000FF332D4834F080FF044660BB2B4E2C4BBE
:105350001B782BB903212B4A1E484BF080FBE7E753
:1053600007F0E0FA2B79014623F003032B710023A9
:1053700030461A460EF030FCF8B10121224A154899
:105380004BF06DFB2B799A071AD5DB07D0D5FFF7C9
:10539000F5FC4FF0FF324FF0FF33174834F054FF65
:1053A00004460028D3D023460121184A09484BF06F
:1053B00054FB20460C37BD46F0BD0321144ADEE7FE
:1053C000FFF7DCFC42F2676000214BF04DFBD9E7B0
:1053D0009C12080010B80600B5120800282B002007
:1053E000E2120800EF12080000020103FD1208009B
:1053F00005000003091308001C0B00206E00565125
:1054000037550020441308005713080027130800DD
:1054100071130800002298B5184B1948C3E90022FF
:10542000184B00AF4360184B6C46036107F0E6FE73
:105430001648174B4360174B036107F0DFFE164B0E
:10544000164A1B688AB0B3FBF2F36A461449154842
:1054500051611549C2E906134FF400731384134BCD
:105460004FF4135142F8103F4BF0FBFA4FF4004059
:10547000A54600214BF0F8FABD4698BD282B002028
:10548000442B00205D4F0000070056D1302B002038
:105490001D4D0000080004E0E004002040420F0021
:1054A0008613080010B80600AD13080004000001C0
:1054B0002DE9F04F91B0009302F004030293C2F380
:1054C000C2030133840705460E46DDF86890039257
:1054D000059340F0BB81041D30B1072909D86FF056
:1054E0001B0011B0BDE8F08F01F00706341DC6F1B6
:1054F0000806009B4FF000084FF0040A591E4FF0B9
:10550000FF3347460193C3465346CDF810800DB193
:10551000009A22600598002800F3E8809848009AD5
:10552000824203D397488242C0F0E080039AA4EB02
:10553000050E92074FEA9E0000F103810F2F00F243
:10554000B180002D00F0058107F140020DEB020C47
:10555000019A0CF8200C0CF8102C049801300490DF
:10556000E7E07A285DD84B280ED8472859D8292853
:105570002DD8252852D054D820287AD02338D0F1DD
:10558000000B4BEB000B74E04C382E2849D8DFE8B9
:1055900000F07048484848484848484848484B4800
:1055A0004848484848484859484B4B595959704B06
:1055B0006D487048184B184848827F4B48484B4804
:1055C0007F0000204FF0000B4FF0040A38E001226A
:1055D0002A38C0B202FA00F010EA0E0F49D110F0DA
:1055E000625C2FD110EA020B43D06046013C544468
:1055F000B4FBFAF40AFB04F4002D61D0A3EB050C14
:10560000A444B4453FF66BAF002868D1042B47D1C2
:1056100059F8043B2360042304342AE0019A013A38
:1056200001924FF0000B24E011F8010C6C2834D1EA
:10563000002011F8023C83466C2BC5D14FF0080ABC
:105640005346D3E709F1070929F00709073424F085
:105650000704F9E802AB35B106982044B0423FF6A2
:105660003EAFC4E900AB4FF0000B08344FF0080A1E
:10567000534611F8010F002878D0BBF1000F7FF4DA
:1056800070AF2528F5D14FF0010B019B0133019339
:105690004FF0040AECE7584694E700208346A5E75C
:1056A000082B02D06FF015001BE709F1070929F05C
:1056B0000709F9E80223C4E9002308230834D8E7DE
:1056C00068B9042B02D109F10409A4E7082BE9D138
:1056D00009F1070929F0070909F10809EDE7059A19
:1056E000013A059259F8042B009210E7039A9007AB
:1056F00020D54FF0010CA4EB050E4FEA9E00BEF53D
:10570000007FCFD20F2FCDD8F5B107F140020DEBBE
:10571000020E019AC0B20EF8200C0EF8102CBCF14B
:10572000000F3FF41AAF60F07F000EF8200C08F174
:1057300001080137C5F108024FF6DA7E04340692FB
:1057400097E74FF0000CDAE7BCF1000F01D001360B
:10575000EFE7029802360028EBD10098CDE9063138
:10576000FEF74CF8DDE906310644E2E7631BB3F5CA
:10577000806F97D245B9A6F10804E018B1E600BFE2
:1057800014B20600FCF40800029A9B0828602B70F3
:105790009DF81030C2B1EB7085F80280B8F1000FAF
:1057A00005D0002208A8C5F1010C97420ED14FF098
:1057B000000AC5F101030DF1200901930DF1300B31
:1057C000574512D1601B8CE66B70E5E710F8013B82
:1057D000190608D504EB0C0EB64503F07F033FF61F
:1057E0007EAE04F8013B0132DFE7B8F1000F03D0D1
:1057F00099F90020002A17DB029BD3B11AF80B207D
:1058000004F8012B0022019B98182044B0423FF677
:1058100066AE99F80000009904F8010B2046039247
:105820005FF0C1FD039A14440AF1010A09F101096C
:10583000C6E799F8002055F822300093029B0098A3
:1058400045F82230FDF7DAFF421CDCE76FF00D006F
:1058500047E600BF2DE9F04F97B000AFD7F880B012
:105860003B62CBF3C0030446894690F802A0FA627B
:10587000BB6141B9457800780AEB800020444D4572
:1058800017D8A0EB0409E378FB61BAF1000F02D04E
:105890001BF0010F16D1FB6953BBFB6A1BB14946D4
:1058A00020463A6A98474D4628465C37BD46BDE8D3
:1058B000F08F461C3046FDF7A1FF0130304409F15E
:1058C0000109DCE7626823787A62FA6A99007961F3
:1058D00004EB8301002A40F001810E464FF00008DE
:1058E0004D4601EB0A094E454CD101EB0A0610E08A
:1058F0001BF0020FD1D023789A007A61626804EB22
:1059000083017A62FA6A002A77D14D46904601EB0C
:105910000A061BF0050F0CBF02230123FB62FB6983
:1059200006EB430A0BF00203BB625645BCD016F8E7
:10593000021B16F8013C54F82390AF4B994502D353
:10594000AE4B994536D3BB69002B40D0786A4BF0FB
:105950000FFC00283BD0E9468AB06A46A84B536149
:105960007B6AC2E906314FF400731384A54B42F8F9
:10597000103F00234FF41251A34801F061FA023D99
:10598000CD46D2E716F8013BF96254F82300FDF743
:1059900035FFD7F88430F96A01304BB1D7F8883039
:1059A00098453EBFD7F8843023F8180008F1010865
:1059B000054498E7BB6923B1786A4BF0D9FB00280E
:1059C000C9D11BF0010F05D1FB6AED1AADE7BB6A27
:1059D000002BAAD04846FDF711FFD7F8843053B109
:1059E000D7F8883098453FBFD7F88420431C22F869
:1059F000183008F10108054497E7BAF1000F73D099
:105A00001BF0040673D0D046002607F1480052462A
:105A10003B61B9625FF0C7FCB96A3B6901EB0A02FE
:105A2000BA62FA69F9695200FA60BA6A02EB410295
:105A30003A610BF00202BA603A69B96A8A4258D1F7
:105A400062781BF0020F18BF00217A6208BF4FEA8C
:105A50005801B2181BF0010FD2B240F09F801BF02A
:105A6000040F14BF40460020BB616270A070E1705B
:105A700020463A6A7969FB6A9847051EFFF614AF1B
:105A8000BB69414623707B6A3A6A6370FB6984F89C
:105A900002A0E37007F14800FB6A9847B0F10008E4
:105AA000C0F2B4807B69A9EB0A01C91AFB683A6AA3
:105AB000C91AD7E90A0398470028C0F2A9804FF015
:105AC000000BA84408EB000507F1380AB34567D37B
:105AD00000213A6A0846FB6A9847E5E656464FF0C9
