:10000000B8730120455C00005F6A0400315C0000A9
:10001000315C0000315C0000315C0000315C0000AC
:10002000000000000000000000000000F95D00007A
:10003000315C000000000000B95D0000315C000090
:10004000755F0000755F0000755F0000755F000060
:10005000755F0000755F0000755F0000755F000050
:10006000755F0000755F0000755F0000755F000040
:10007000755F0000755F0000755F0000755F000030
:10008000755F0000755F0000755F0000755F000020
:10009000755F0000755F0000755F0000755F000010
:1000A000755F0000755F0000755F0000755F000000
:1000B000755F0000755F0000755F0000755F0000F0
:1000C000755F0000755F0000755F0000755F0000E0
:1000D000755F0000755F0000755F0000755F0000D0
:1000E000755F0000755F0000755F0000755F0000C0
:1000F000755F0000755F0000755F0000755F0000B0
:10010000755F0000755F0000755F0000755F00009F
:10011000755F0000755F0000755F0000755F00008F
:10012000755F0000755F0000755F0000755F00007F
:10013000755F0000755F0000755F0000755F00006F
:10014000755F0000755F0000755F0000755F00005F
:04015000755F0000D7
:04015400FFFFFFFFAB
:1001580081F0004102E000BF83F0004330B54FEA70
:1001680041044FEA430594EA050F08BF90EA020FDD
:100178001FBF54EA000C55EA020C7FEA645C7FEA70
:10018800655C00F0E2804FEA5454D4EB5555B8BF93
:100198006D420CDD2C4480EA020281EA030382EA04
:1001A800000083EA010180EA020281EA0303362D96
:1001B80088BF30BD11F0004F4FEA01314FF4801C69
:1001C8004CEA113102D0404261EB410113F0004F7B
:1001D8004FEA03334CEA133302D0524263EB430332
:1001E80094EA050F00F0A780A4F10104D5F1200ED0
:1001F8000DDB02FA0EFC22FA05F2801841F100012B
:1002080003FA0EF2801843FA05F359410EE0A5F1FE
:1002180020050EF1200E012A03FA0EFC28BF4CF02F
:10022800020C43FA05F3C01851EBE37101F00045E5
:1002380007D54FF0000EDCF1000C7EEB00006EEBF2
:100248000101B1F5801F1BD3B1F5001F0CD349087C
:100258005FEA30004FEA3C0C04F101044FEA4452D3
:1002680012F5800F80F09A80BCF1004F08BF5FEA5A
:10027800500C50F1000041EB045141EA050130BD3A
:100288005FEA4C0C404141EB0101013C28BFB1F54C
:10029800801FE9D291F0000F04BF01460020B1FA97
:1002A80081F308BF2033A3F10B03B3F120020CDA6A
:1002B8000C3208DD02F1140CC2F10C0201FA0CF048
:1002C80021FA02F10CE002F11402D8BFC2F1200CAD
:1002D80001FA02F120FA0CFCDCBF41EA0C01904063
:1002E800E41AA2BF01EB0451294330BD6FEA0404AC
:1002F8001F3C1CDA0C340EDC04F11404C4F1200297
:1003080020FA04F001FA02F340EA030021FA04F3A8
:1003180045EA030130BDC4F10C04C4F1200220FAFF
:1003280002F001FA04F340EA0300294630BD21FA3D
:1003380004F0294630BD94F0000F83F4801306BF03
:1003480081F480110134013D4EE77FEA645C18BFF7
:100358007FEA655C29D094EA050F08BF90EA020F8E
:1003680005D054EA000C04BF1946104630BD91EA86
:10037800030F1EBF0021002030BD5FEA545C05D189
:100388004000494128BF41F0004130BD14F58004C8
:100398003CBF01F5801130BD01F0004545F0FE413C
:1003A80041F470014FF0000030BD7FEA645C1ABF71
:1003B800194610467FEA655C1CBF0B46024650EAA8
:1003C800013406BF52EA033591EA030F41F40021D4
:1003D80030BD00BF90F0000F04BF0021704730B55A
:1003E8004FF4806404F132044FF000054FF000012F
:1003F80050E700BF90F0000F04BF0021704730B5F0
:100408004FF4806404F1320410F0004548BF4042C4
:100418004FF000013EE700BF42004FEAE2014FEA19
:1004280031014FEA02701FBF12F07F4393F07F4FF4
:1004380081F06051704732F07F4208BF704793F0F7
:100448007F4F04BF41F40021704730B54FF460740A
:1004580001F0004521F000411CE700BF50EA01020D
:1004680008BF704730B54FF000050AE050EA0102B6
:1004780008BF704730B511F0004502D5404261EB26
:1004880041014FF4806404F132045FEA915C3FF467
:10049800D8AE4FF003025FEADC0C18BF03325FEA04
:1004A800DC0C18BF033202EBDC02C2F1200300FAB5
:1004B80003FC20FA02F001FA03FE40EA0E0021FADA
:1004C80002F11444BDE600BF70B54FF0FF0C4CF4C8
:1004D800E06C1CEA11541DBF1CEA135594EA0C0F7A
:1004E80095EA0C0F00F0DEF82C4481EA030621EAB5
:1004F8004C5123EA4C5350EA013518BF52EA0335F0
:1005080041F4801143F4801338D0A0FB02CE4FF0A1
:100518000005E1FB02E506F00042E0FB03E54FF0D1
:100528000006E1FB03569CF0000F18BF4EF0010EC9
:10053800A4F1FF04B6F5007F64F5407404D25FEAC5
:100548004E0E6D4146EB060642EAC62141EA555178
:100558004FEAC52040EA5E504FEACE2EB4F1FD0CBA
:1005680088BFBCF5E06F1ED8BEF1004F08BF5FEA38
:10057800500E50F1000041EB045170BD06F00046EA
:1005880046EA010140EA020081EA0301B4EB5C0497
:10059800C2BFD4EB0C0541EA045170BD41F480118F
:1005A8004FF0000E013C00F3AB8014F1360FDEBFB4
:1005B800002001F0004170BDC4F10004203C35DA90
:1005C8000C341BDC04F11404C4F1200500FA05F313
:1005D80020FA04F001FA05F240EA020001F00042B4
:1005E80021F0004110EBD37021FA04F642EB06012A
:1005F8005EEA430E08BF20EAD37070BDC4F10C0454
:10060800C4F1200500FA04F320FA05F001FA04F217
:1006180040EA020001F0004110EBD37041F1000103
:100628005EEA430E08BF20EAD37070BDC4F120050E
:1006380000FA05F24EEA020E20FA04F301FA05F276
:1006480043EA020321FA04F001F0004121FA04F21E
:1006580020EA020000EBD3705EEA430E08BF20EAEE
:10066800D37070BD94F0000F0FD101F00046400028
:1006780041EB010111F4801F08BF013CF7D041EAAA
:10068800060195F0000F18BF704703F000465200AE
:1006980043EB030313F4801F08BF013DF7D043EA7F
:1006A8000603704794EA0C0F0CEA135518BF95EA35
:1006B8000C0F0CD050EA410618BF52EA4306D1D1BC
:1006C80081EA030101F000414FF0000070BD50EADB
:1006D800410606BF1046194652EA430619D094EA65
:1006E8000C0F02D150EA013613D195EA0C0F05D14F
:1006F80052EA03361CBF104619460AD181EA0301A3
:1007080001F0004141F0FE4141F470014FF000005A
:1007180070BD41F0FE4141F4780170BD70B54FF0F5
:10072800FF0C4CF4E06C1CEA11541DBF1CEA135575
:1007380094EA0C0F95EA0C0F00F0A7F8A4EB050457
:1007480081EA030E52EA03354FEA013100F088804E
:100758004FEA03334FF0805545EA131343EA126317
:100768004FEA022245EA111545EA10654FEA0026CC
:100778000EF000419D4208BF964244F1FD0404F585
:10078800407402D25B084FEA3202B61A65EB0305E1
:100798005B084FEA32024FF480104FF4002CB6EB9E
:1007A800020E75EB030E22BFB61A754640EA0C001E
:1007B8005B084FEA3202B6EB020E75EB030E22BF5E
:1007C800B61A754640EA5C005B084FEA3202B6EB9F
:1007D800020E75EB030E22BFB61A754640EA9C005E
:1007E8005B084FEA3202B6EB020E75EB030E22BF2E
:1007F800B61A754640EADC0055EA060E18D04FEAEC
:10080800051545EA16754FEA06164FEAC30343EA8B
:1008180052734FEAC2025FEA1C1CC0D111F4801F58
:100828000BD141EA00014FF000004FF0004CB6E751
:1008380011F4801F04BF01430020B4F1FD0C88BFF0
:10084800BCF5E06F3FF6AFAEB5EB030C04BFB6EBFB
:10085800020C5FEA500C50F1000041EB045170BDEE
:100868000EF0004E4EEA113114EB5C04C2BFD4EB1B
:100878000C0541EA045170BD41F480114FF0000E9F
:10088800013C90E645EA060E8DE60CEA135594EA1B
:100898000C0F08BF95EA0C0F3FF43BAF94EA0C0F1E
:1008A8000AD150EA01347FF434AF95EA0C0F7FF493
:1008B80025AF104619462CE795EA0C0F06D152EAE7
:1008C80003353FF4FDAE1046194622E750EA4106CB
:1008D80018BF52EA43067FF4C5AE50EA41047FF4DC
:1008E8000DAF52EA43057FF4EBAE12E74FF0FF3C41
:1008F80006E000BF4FF0010C02E000BF4FF0010C12
:100908004DF804CD4FEA410C7FEA6C5C4FEA430C8A
:1009180018BF7FEA6C5C1BD001B050EA410C0CBFD9
:1009280052EA430C91EA030F02BF90EA020F00203B
:10093800704710F1000F91EA030F58BF994208BFA2
:1009480090422CBFD8176FEAE37040F0010070475F
:100958004FEA410C7FEA6C5C02D150EA013C07D1B6
:100968004FEA430C7FEA6C5CD6D152EA033CD3D001
:100978005DF8040B704700BF8446104662468C46FB
:100988001946634600E000BF01B5FFF7B7FF00282E
:1009980048BF10F1000F01BD4DF808EDFFF7F4FF57
:1009A8000CBF012000205DF808FB00BF4DF808EDE2
:1009B800FFF7EAFF34BF012000205DF808FB00BF05
:1009C8004DF808EDFFF7E0FF94BF012000205DF827
:1009D80008FB00BF4DF808EDFFF7CEFF94BF0120DC
:1009E80000205DF808FB00BF4DF808EDFFF7C4FFD5
:1009F80034BF012000205DF808FB00BF4A0011D277
:100A080012F5001211D20DD56FF47873B3EB625260
:100A18000ED44FEAC12343F0004343EA505323FA6C
:100A280002F070474FF00000704750EA013002D1E1
:100A38004FF0FF3070474FF0000070477BB972B934
:100A48000029BEBF00204FF0004106E008BF002883
:100A58001CBF6FF000414FF0FF3000F075B8ADF1EA
:100A6800080C6DE904CE002909DB002B1ADB00F025
:100A780049FFDDF804E0DDE9022304B07047404295
:100A880061EB4101002B1BDB00F03CFFDDF804E0CB
:100A9800DDE9022304B0404261EB4101524263EBBD
:100AA80043037047524263EB430300F02BFFDDF82A
:100AB80004E0DDE9022304B0404261EB41017047E4
:100AC800524263EB430300F01DFFDDF804E0DDE96B
:100AD800022304B0524263EB4303704753B94AB947
:100AE800002908BF00281CBF4FF0FF314FF0FF302E
:100AF80000F02AB8ADF1080C6DE904CE00F002FF51
:100B0800DDF804E0DDE9022304B07047D0B5002227
:100B18000B4B06460F46FFF7D7FCFFF76FFF04465F
:100B2800FFF758FC0022074BFFF7CEFC02460B46A6
:100B380030463946FFF710FBFFF760FF2146D0BD6E
:100B48000000F03D0000F041704700BF4FEA410C43
:100B58007FEA6C5C02D150EA013C0AD14FEA430CAF
:100B68007FEA6C5C02D152EA033C02D14FF00000EC
:100B780070474FF0010070474FEA410212F500122A
:100B880015D211D56FF47873B3EB625212D94FEACC
:100B9800C12343F0004343EA505311F0004F23FAB6
:100BA80002F018BF404270474FF00000704750EA0B
:100BB800013005D111F0004008BF6FF000407047C8
:100BC8004FF00000704700BF2DE9F14F03F11C04FE
:100BD80002EB840C4FEA930B8A68CB680868496873
:100BE80000F046F93CE9F0006040694072407B4003
:100BF8000BF1060E4EE083EA134480EA134582EABD
:100C0800134746BA96EA3444604000F00F1684EA67
:100C1800063420F00F1684EA161054BA94EA010636
:100C2800724002F00F1486EA043622F00F1486EAA6
:100C380014124CBA6540694001F00F1485EA043576
:100C480021F00F1485EA14115CBA67407B4003F069
:100C58000F1487EA043723F00F1487EA141344BAF1
:100C680044404DBA4D4056BA56405FBA5F4087EA95
:100C7800174886EA174B84EA17464FEA38488BEA42
:100C88001B4485EA1B4788EA1B4580EA34406940D3
:100C980072407B4000F0703400F0803500F00F3077
:100CA80040EA440040EAD50080EA900404F0332486
:100CB80080EA8400604001F0703401F0803501F072
:100CC8000F3141EA440141EAD50181EA910404F077
:100CD800332481EA8401614002F0703402F08035E7
:100CE80002F00F3242EA440242EAD50282EA920452
:100CF80004F0332482EA8402624003F0703403F083
:100D0800803503F00F3343EA440343EAD50383EA0B
:100D1800930404F0332483EA84036340C943DB4328
:100D280081EA000483EA044686EA020183EA014371
:100D380082EA334583EA14435C4084EA00077FEA89
:100D4800040A8AEA024A8AEA010B87EA11488AEA0F
:100D5800374A80EA060181EA1A418AEA030A04EA64
:100D68000A00454088EA040707EA0B0041408AEA7E
:100D78000B0608EA060084EA34428AEA3A4602EA9E
:100D8800060358404540414087EA37438BEA3B40D9
:100D980003EA000985EA090582EA0309464006EAEA
:100DA8000906714085EA010005EA3546464006EA2B
:100DB800314181EA304181EA364606EA304686EA20
:100DC800354634400F4086EA010508EA050886EAF8
:100DD8003640024088EA020881EA314213405C400A
:100DE80080EA020309EA030987EA0907674088EAF3
:100DF800040806EA0A0601EA0B018AEA0B04254000
:100E08008AEA3A44204045408BEA3B4B02EA0B020F
:100E1800564084EA0B04234059406E40694087EAF3
:100E2800364080EA384080EA060380EA104481EAC6
:100E3800134585EA344585EA17427D4082EA354103
:100E480080EA05403CE9F0006040694072407B4020
:100E5800BEF1010E3FF6CFAE20BC00F05FF828606F
:100E68006960AA60EB60BDE8F08F00BF00F000BACF
:100E780080EA101404F0F01480EA0410604081EA5B
:100E8800111404F0F01481EA0411614082EA12148A
:100E980004F0F01482EA0412624083EA131404F0A6
:100EA800F01483EA0413634080EA102404F47F44B6
:100EB80080EA0420604081EA112404F47F4481EA36
:100EC8000421614082EA122404F47F4482EA042265
:100ED800624083EA132404F47F4483EA04236340D2
:100EE80081EA500404F0553480EA4400614083EA02
:100EF800520404F0553482EA4402634082EA9004C2
:100F080004F0333480EA8400624083EA910404F0F8
:100F1800333481EA84016340704700BF82EA900459
:100F280004F0333480EA8400624083EA910404F0D8
:100F3800333481EA8401634081EA500404F0553473
:100F480080EA4400614083EA520404F0553482EA9E
:100F58004402634080EA102404F47F4480EA0420B9
:100F6800604081EA112404F47F4481EA042161404D
:100F780082EA122404F47F4482EA0422624083EA6B
:100F8800132404F47F4483EA0423634080EA1014A2
:100F980004F0F01480EA0410604081EA111404F0AF
:100FA800F01481EA0411614082EA121404F0F0148A
:100FB80082EA0412624083EA131404F0F01483EA0C
:100FC80004136340704700BF2DE9F14F94464FEA80
:100FD800930B8A68CB6808684968FFF749FF0BF1EB
:100FE800060E33E083EA134480EA134582EA134786
:100FF80046BA96EA3444604000F00F1684EA063494
:1010080020F00F1684EA161054BA94EA01067240CA
:1010180002F00F1486EA043622F00F1486EA14123E
:101028004CBA6540694001F00F1485EA043521F097
:101038000F1485EA14115CBA67407B4003F00F1463
:1010480087EA043723F00F1487EA1413BCE8F0008A
:101058006040694072407B4000F0E03400F0103599
:1010680000F00F3040EA540040EAC50080EA9004DE
:1010780004F0332480EA8400604001F0E03401F099
:10108800103501F00F3141EA540141EAC50181EA06
:10109800910404F0332481EA8401614002F0E034D1
:1010A80002F0103502F00F3242EA540242EAC50259
:1010B80082EA920404F0332482EA8402624003F054
:1010C800E03403F0103503F00F3343EA540343EAE6
:1010D800C50383EA930404F0332483EA840363405A
:1010E80081EA324787EA134581EA354690EA0604E1
:1010F80084EA034B82EA1B4280EA044484EA0544FA
:1011080083EA144A85EA14448BEA044B84EA374498
:1011180081EA0B4181EA164104EA0A00454082EA65
:1011280004082BEA080041408AEA0B0602EA060096
:1011380084EA34438AEA3A4603EA06077840454097
:10114800414088EA38478BEA3B4007EA000985EACC
:10115800090583EA0709464006EA0906714085EA57
:10116800010005EA3546464006EA314181EA304148
:1011780081EA364606EA304686EA3546344008EAC9
:10118800010886EA01052A4086EA364003405A40AB
:1011980081EA31431F407C4080EA030709EA0709D6
:1011A80088EA0908544088EA020806EA0A0601EAB9
:1011B8000B018AEA0B0215408AEA3A421040454080
:1011C8008BEA3B4003405E404240174079404D4027
:1011D8004E40E443F64386EA18435D4085EA0540FD
:1011E80083EA134386EA034183EA384284EA1143D7
:1011F80083EA04435FEA3343BEF1010E3FF6F2AEE1
:101208001ED4BCE8F0006040694072407B4020BCBE
:10121800FFF784FE28606960AA60EB60BDE8F08F84
:101228002DE9E0414FF2F00280EA1031114080EAE6
:101238000130484041088208C3084FF0000E4FE7CC
:1012480000F0113001F0113102F0113203F01133C6
:1012580040EA410040EA820040EAC3004FF2F0024F
:1012680080EA1031114080EA01304840BDE8E08151
:101278002DE9F04F02F11C050646074600EB8508EC
:1012880051F8040B043A46F8040BF9D14FF0010C5D
:10129800FFF7C6FF5FEA302080EA0C001ECF41400E
:1012A8004A4053405C401EC62000464517D04FEACE
:1012B8004C0C1CF4807F18BFACF1E50C2C2DE7D04A
:1012C8003C2D06D1FFF7ACFF06CF41404A4006C689
:1012D800100006CF41404A4006C61000D8E736E95C
:1012E8000F00FFF7C5FD043D86E80F00F7D1BDE804
:1012F800F08F00BF2DE9F04FB0E8FE0783B02DE96D
:10130800010790E8005F4FF00A0006900198DB198A
:101318009CEA030C18EB3C4897EA080713EB375391
:1013280093EA3C4C18EB3C6898EA375724189EEA35
:10133800040E19EB3E4990EA090014EB305494EA84
:101348003E4E19EB3E6999EA3050CDE90489DDE952
:10135800028949199AEA010A18EB3A4895EA0805F8
:1013680011EB355191EA3A4A18EB3A6898EA355543
:1013780092199BEA020B19EB3B4996EA090612EB14
:10138800365292EA3B4B19EB3B6999EA365613EB16
:10139800706393EA3B6B18EB3B4898EA706013EB79
:1013A800305393EA3B4B5FEA3B6B18EB0B0898EA28
:1013B80030505FEA706014EB756494EA3C6C19EB8A
:1013C8003C4999EA756514EB355494EA3C4C5FEA5C
:1013D8003C6C19EB0C0999EA35555FEA7565CDE95E
:1013E8000289DDE9048911EB766191EA3E6E18EB1A
:1013F8003E4898EA766611EB365191EA3E4E5FEA2E
:101408003E6E18EB0E0898EA36565FEA766612EBDF
:10141800776292EA3A6A19EB3A4999EA776712EBE6
:10142800375292EA3A4A5FEA3A6A19EB0A0999EAA4
:1014380037575FEA77670190069801387FF465AF00
:1014480001BC80E8005FBDE8000700E9FE0703B0C3
:10145800BDE8F08F30B44FF0000310F8014B11F8DD
:10146800015B013A84EA050443EA0403F5D1A3F1D8
:1014780001034FEAD37030BC704700BF4FF0000340
:1014880010F8012B013943EA0203F9D1A3F1010352
:101498004FEAD370704700BF30B411F8014B12F80F
:1014A800015B6C4000F8014B013BF6D130BC704742
:1014B8002DE9F14FF8C892E8005E19EB03095AEBE1
:1014C800040A5BEB050B5CEB060C4EEB070E91E890
:1014D800E001A9FB0502AAFB0543E9FB6624EAFB38
:1014E8006634A9FB0765E9FB6845B1E80003EBFB37
:1014F8006836ECFB6846EEFB6856ABFB0987ECFBED
:101508006957EEFB696791E80202EAFB6148EBFB69
:101518006158ECFB6168EEFB61784FF00001EAFB73
:101528000951EBFB6961ECFB6971EEFB69814FF4D2
:10153800A03C4FEA154949EA06495FF0000AE9FB71
:101548000C0A4FEA164646EA0746E6FB6C2A4FEABB
:10155800174747EA0847E7FB6C3A4FEA184848EA52
:101568000148E8FB6C4AADB25544AF0805F00305E5
:1015780007EB8707C01952F1000153F1000254F13B
:10158800000345F1000420BC1FC5BDE8F08F00BF73
:1015980030B490E83C10511D53F1000154F10001A2
:1015A80055F100014CF100014FEA9101494201F067
:1015B8000501521853F1000354F1000455F10005D8
:1015C8004CF1000C0CF0030C80E83C1030BC704768
:1015D8002DE9F04F90E8F00F00F140004FF0040EB5
:1015E80059E0F0B4826BC36B04680525242687593B
:1015F8003C444FEA724787EAF24787EA92273C441D
:1016080042684FEAF21787EAB24787EAD2073C44B2
:1016180040F8044B032D08BF6FF01B0687593A4466
:101628004FEA734787EAF34787EA93273A444368C0
:101638004FEAF31787EAB34787EAD3073A4440F8F3
:10164800042B87593B444FEA744787EAF44787EAF3
:1016580094273B4444684FEAF41787EAB44787EA7B
:10166800D4073B4440F8043B013DC0D1A0F13C0005
:10167800076A3C444FEA724787EAF24787EA9227AB
:101688003C4402684FEAF21787EAB24787EAD20772
:101698003C44C463F0BC4FF0020288EA781C8CEA30
:1016A800F84C0BEBBC1C8AEA090303EA080383EA3B
:1016B8000A039C4450F8043B9C4451F8043B9C4466
:1016C800674444EA050B0BEA060B04EA05034BEAF8
:1016D800030BE34484EAF42383EA34530BEBB30BA0
:1016E80087EA771C8CEAF74C0AEBBC1C89EA0803EA
:1016F80003EA070383EA09039C4450F8043B9C442B
:1017080051F8043B9C4466444BEA040A0AEA050A79
:101718000BEA04034AEA030AE2448BEAFB2383EA5E
:101728003B530AEBB30A86EA761C8CEAF64C09EBC3
:10173800BC1C88EA070303EA060383EA08039C44FF
:1017480050F8043B9C4451F8043B9C4465444AEAE5
:101758000B0909EA04090AEA0B0349EA0309E14407
:101768008AEAFA2383EA3A5309EBB30985EA751C36
:101778008CEAF54C08EBBC1C87EA060303EA050370
:1017880083EA07039C4450F8043B9C4451F8043B0B
:101798009C44644449EA0A0808EA0B0809EA0A036F
:1017A80048EA0308E04489EAF92383EA395308EB55
:1017B800B30884EA741C8CEAF44C07EBBC1C86EA78
:1017C800050303EA040383EA06039C4450F8043B38
:1017D8009C4451F8043B9C44E34448EA090707EA5F
:1017E8000A0708EA090347EA0307674488EAF8236F
:1017F80083EA385307EBB3078BEA7B1C8CEAFB4C74
:1018080006EBBC1C85EA040303EA0B0383EA050321
:101818009C4450F8043B9C4451F8043B9C44E244EB
:1018280047EA080606EA090607EA080346EA03063D
:10183800664487EAF72383EA375306EBB3068AEA56
:101848007A1C8CEAFA4C05EBBC1C84EA0B0303EA0D
:101858000A0383EA04039C4450F8043B9C4451F86F
:10186800043B9C44E14446EA070505EA080506EA04
:10187800070345EA0305654486EAF62383EA3653F7
:1018880005EBB30589EA791C8CEAF94C04EBBC1C1E
:101898008BEA0A0303EA090383EA0B039C4450F822
:1018A800043B9C4451F8043B9C44E04445EA06044C
:1018B80004EA070405EA060344EA0304644485EAE3
:1018C800F52383EA355304EBB304013A7FF4E5AE1C
:1018D800A0F14000BEF1010E7FF483AEA0F1400CF0
:1018E8009CE80F00001949199219DB19ACE80F00A0
:1018F8009CE80F004044494452445B44ACE80F0064
:10190800BDE8F08F2DE9F04786468C460846089ECC
:10191800154674461946002B40F0C1808542B2FA3C
:1019280082F245D94AB1C2F1200300FA02FC95407F
:1019380094402EFA03F343EA0C0C4FEA154EA8B272
:10194800230CBCFBFEF80EFB18CC08FB00F943EA9D
:101958000C43994528D9EB1808F1FF3704D299456B
:1019680002D9A8F102072B44A3EB0903A4B2B3FBE5
:10197800FEFC0EFB1C330CFB00F044EA0344A042BF
:1019880014D92C190CF1FF3304D2A04202D9ACF1BE
:1019980002032C44241A43EA07401EB1D440002312
:1019A80034607360BDE8F0874746DDE76346F1E7DA
:1019B80092BB431B01214FEA154EAFB2200CB3FB7B
:1019C800FEFC0EFB1C330CFB07F840EA034398456A
:1019D80061D9EB180CF1FF3004D2984502D9ACF16B
:1019E80002002B44A3EB0803A4B2B3FBFEFC0EFBDE
:1019F8001C330CFB07F744EA0344A7424DD92C19C2
:101A08000CF1FF3304D2A74202D9ACF102032C44F3
:101A1800E41B43EA0040C0E7C2F12003954094402C
:101A280020FA03F12EFA03F34FEA154E9040AFB2B5
:101A38000343B1FBFEFC0EFB1C10190C0CFB07F852
:101A480041EA0041884522D969180CF1FF3004D2D7
:101A5800884502D9ACF102002944A1EB08019BB2E8
:101A6800B1FBFEFC0EFB1C110CFB07F743EA01431C
:101A78009F420ED9EB180CF1FF3104D29F4202D9D4
:101A8800ACF102012B44DB1B41EA004193E76046BD
:101A9800E3E76146F7E76046A4E76346B8E78342B1
:101AA80006D916B9002108467CE7C6E900E0F9E73F
:101AB800B3FA83F78FB9834201D3724508D8BEEBD6
:101AC800020460EB030301209C461EB9002169E76C
:101AD8003846FAE7C6E9004CF8E7C7F1200CBB40E6
:101AE8000EFA07F522FA0CF42EFA0CF1BA401C4350
:101AF80020FA0CF3B8404FEA144901431FFA84FE58
:101B0800B3FBF9F809FB18300B0C08FB0EFA43EA93
:101B180000439A4540D9E31808F1FF3004D29A45AA
:101B280002D9A8F102002344A3EB0A0389B2B3FB4C
:101B3800F9F809FB183308FB0EFE41EA03418E450C
:101B48002CD9611808F1FF3304D28E4502D9A8F1C7
:101B58000203214443EA0040A1EB0E01A0FB0298D6
:101B68004145CE46434602D306D14D4504D20138FD
:101B7800B9EB020E68EB0403002EA7D0B5EB0E02FA
:101B880061EB030101FA0CFC22FA07F3F9404CEA75
:101B98000303C6E9003199E74046C5E74346D9E75C
:101BA80010F8012B11F8013B012A28BF9A42F7D0FF
:101BB800D01A7047034613F8012B002AFBD1181AD4
:101BC80001387047000000002DE9F04F8846D0F832
:101BD800201182460B6B16468FB053B1062218317E
:101BE80006F1200059F025FC18B901200FB0BDE816
:101BF800F08F504604A9D8F86050D8F88040D6F83D
:101C080080704FF000FE002852D1DDF820B0BBF103
:101C1800000F04D1DDF81CB0BBF1000F27D042F251
:101C28000F71099B049A8B420AD16FF47A63D31817
:101C380040F2657293428CBF6FF058036FF05B03FC
:101C48004046ABEB03094DF0D8FFD8F88C2003468B
:101C580008F194010AB9D8F89020D8F850005D46E8
:101C6800CDE9009050461FF08FFCCB46044604F5A2
:101C78009C530833BB42B8D3336DB3F57A6F1ADD82
:101C8800D8F85030B3F57A6FACBF4FF0000A4FF078
:101C9800010A002D12DB07F59C5308339C4200F221
:101CA800CB80BBF1190F00F3C7804FF0020B3AE06D
:101CB8004FF0000BDBE74FF0000AEAE7336E03EB67
:101CC8004A03AB4215DA3846FEF784FB80462046C5
:101CD8008946FEF77FFB4FF033325B4BFEF7F4FB90
:101CE80002460B4640464946FEF760FE002840F093
:101CF800A38007F59C530833A342C0F09D80BBF135
:101D0800190F00F3998015F1550F31DB15F1500FBC
:101D1800CBDB15F14B0F2EDB15F1460FB4BF4FF09F
:101D2800040B4FF0050B2046FEF754FB804638465F
:101D38008946FEF74FFB02460B46CDE902230022F7
:101D4800424BFEF7C1FB02460B4640464946FEF7AA
:101D58004BFE98B10BF10A0BBAF1000F01D0ABF1B1
:101D6800020B306E401B5845B4BF002001203DE7F0
:101D78004FF0010BD7E74FF0030BD4E74FF03332A6
:101D8800DDE90201304BFEF79FFB02460B46404659
:101D98004946FEF729FE10B10BF1050BDCE728A335
:101DA800D3E90023DDE90201FEF78EFB02460B466C
:101DB80040464946FEF718FE10B10BF1020BCBE77F
:101DC800BC4202D90BF1010BC6E700221F4B40466B
:101DD8004946FEF779FB02460B46DDE90201FEF7AC
:101DE80003FE10B1ABF10A0BB6E74FF03332164BD6
:101DF80040464946FEF768FB02460B46DDE902010C
:101E0800FEF7F2FD10B1ABF1050BA5E70CA3D3E982
:101E1800002340464946FEF757FB02460B46DDE9DC
:101E28000201FEF7E1FD10B1ABF1020B94E7BC42F1
:101E380038BF0BF1FF3B8FE70020D7E6AFF30080F8
:101E48009A9999999999F13F3333F33F0000F83FF4
:101E58002DE9F041C1F30A5702460B460C46A7F29A
:101E6800FF3605468046132E30DC002E11DA34A3E7
:101E7800D3E90023FEF772F900220023FEF7B4FD30
:101E880020B1002C52DB254354D12C4623462A4648
:101E980025E02D4F374101EA070C5CEA000C1ED003
:101EA80027A3D3E90023FEF759F900220023FEF700
:101EB8009BFD0028EAD0002C4FF00005C2BF4FF46C
:101EC80080133341E41824EA0704DFE7332E0ADDE0
:101ED800B6F5806F03D1FEF741F902460B4610466E
:101EE8001946BDE8F081A7F213474FF0FF3C2CFAE2
:101EF80007F73842F3D012A3D3E90023FEF72EF9EF
:101F080000220023FEF770FD0028BFD0002C0ADD58
:101F1800142E01D1013406E0C6F134060123B34082
:101F28001D44A845F6D825EA0705AFE700254FF078
:101F38000044ABE70025054CA8E700BFAFF30080DD
:101F48009C7500883CE4377EFFFF0F000000F03FDF
:101F58002DE9F041C1F30A5702460B460C46A7F299
:101F6800FF3605468046132E36DC002E17DA34A3DA
:101F7800D3E90023FEF7F2F800220023FEF734FD30
:101F880050B1002C58DA24F000442C430025AC4210
:101F98002D4C08BF4FF0004423462A4625E02B4F1E
:101FA800374101EA070C5CEA000C1ED024A3D3E9F0
:101FB8000023FEF7D3F800220023FEF715FD0028C2
:101FC800EAD0002C4FF00005BEBF4FF48013334118
:101FD800E41824EA0704DFE7332E0ADDB6F5806F3C
:101FE80003D1FEF7BBF802460B4610461946BDE87A
:101FF800F081A7F213474FF0FF3C2CFA07F707428E
:10200800F3D00FA3D3E90023FEF7A8F8002200239A
:10201800FEF7EAFC0028BFD0002C0ADA142E01D102
:10202800013406E0C6F134060123B3401D4445459A
:10203800F6D325EA0705AFE700252C46ACE700BF35
:102048009C7500883CE4377E0000F0BFFFFF0F005E
:102058002DE9F0481646C1F30A5283468C460B46D2
:1020680082B921F00043034335D02D4B0022FEF7FF
:102078002BFA2C4B83468C469E420DDA24A3D3E9D7
:1020880000231CE040F2FF77BA4209D10246FEF76E
:1020980065F883468C461EE0C1F30A520B46363A71
:1020A800324440F2FE718A420CDD4FEADC711E4870
:1020B80019A3D3E900231C4661F3DF742146FEF718
:1020C80003FAE6E7002A0ADD23F0FF4323F4E003DE
:1020D80043EA0255AC4658466146BDE8F08812F11D
:1020E800350F09DA0CF00043104843F0D27141F47F
:1020F800B73141F01F01C1E723F0FF43363258469C
:1021080023F4E00343EA02550022094B2946D6E7A7
:1021180059F3F8C21F6EA5019C7500883CE4377E10
:1021280000005043B03CFFFF9C75008859F3F8C28B
:102138000000903C000000002DE9F04F144697B0D5
:102148001D46476A8346239ECDE904457FB9102082
:1021580004F0BCF90246CBF8240020B9A24BEA21CE
:10216800A2483AF05DFAC0E901770760C760DBF87A
:102178002430196859B15A680123584693404A6077
:102188008B603BF0DDFEDBF8243000221A602B1E4A
:10219800B7BF23F00043002301220593A8BF336093
:1021A800059F934BB8BF3260BB4319D142F20F73FE
:1021B800229A1360C7F31303234300F0E085249B9E
:1021C80053B98C4B21E08C4B08930833249A136045
:1021D800089817B0BDE8F08F864B08930333F5E7EE
:1021E800DDE90423CDE90C23DDE90C0100220023FD
:1021F800FEF7D2FB804650B10123229A1360249B3C
:1022080013B17E4B249A13607D4B0893E0E714AB1F
:10221800C7F30A565846019315AB0093DDE90C2322
:102228003CF014F90390002E78D00D9BA6F2FF36EF
:10223800CDF84C80C3F3130343F07F53DDE90C0161
:1022480043F44013194600226E4BFDF785FF60A347
:10225800D3E90023FEF738F95FA3D3E90023FDF79C
:102268007DFF04460D463046FEF7C4F85CA3D3E96B
:102278000023FEF729F902460B4620462946FDF7BA
:102288006DFF04460D46FEF777FC00220746002343
:1022980020462946FEF78AFB40B13846FEF7AAF8E1
:1022A80022462B46FEF778FB00B9013F162F54D87B
:1022B800554B03EBC703DDE90C01D3E90023FEF717
:1022C80075FB00284BD0013F00231293149B9B1BE6
:1022D8005A1E4CBFC3F1010300230A9245BF06935F
:1022E800002306930A93002F3BDB0A9B0F973B447E
:1022F8000A9300230B93209B092B00F28980052B5E
:10230800C5BF043B002401242093209B023B032BE0
:1023180000F28980DFE803F02D3A3859DDE91463CB
:102328001E4406F23243202BC9BFC3F14003C3F158
:1023380020039F4006F21243D8BF04FA03F006F1C7
:10234800FF36C4BF24FA03F347EA0300FEF742F856
:102358000122A1F1F873139274E70123B5E71290F3
:10236800B4E7069BDB1B06937B420B9300230F937A
:10237800C1E700230E93219B002B57DC01239946CC
:102388001A46099321920CE00123F3E700230E93E8
:10239800219BFB1803F1010909934B46012BB8BF98
:1023A8000123DBF824000021042202F114059D42D8
:1023B80040D9416058463BF083FD089000283CD145
:1023C800124B02464FF4D571CAE60123DFE700BF7E
:1023D80061436F63A787D23FB3C8608B288AC63F23
:1023E800FB799F501344D33FB604080050050800FA
:1023F8000000F07F4C05080043050800087F07002F
:10240800077F07000000F83F300E0700C4050800EA
:10241800012400230E9420934FF0FF3300229946A5
:1024280009931223AEE701230E93F5E7219B994602
:102438000993B6E701315200B7E7DBF82430B9F168
:102448000E0F089A1A606FD8002C6DD0002F36DD59
:1024580007F00F02A04BF80503EBC203D3E90034E1
:10246800CDE910344FEA271417D59C4B04F00F041C
:102478004FF00308D3E90823DDE90C01FEF74EF914
:10248800CDE90401954D5CB9DDE91023DDE90401CE
:10249800FEF744F9CDE904012BE04FF00208F1E71B
:1024A800E10709D508F10108DDE91001D5E90023A4
:1024B800FEF70AF8CDE9100164100835E3E700F0EB
:1024C80007817C42844B854D4FF0020804F00F02CF
:1024D800241103EBC203DDE90C01D3E90023FDF766
:1024E800F3FF0023CDE90401002C40F0E580002B28
:1024F800D0D1129BDDE90445002B00F04C8100226D
:10250800774B20462946FEF751FA002800F0438110
:10251800B9F1000F00F03F81099B002B00F3E48024
:10252800DDE90C34CDE90434159B002B02DB0E2FBA
:1025380040F342820E9A002A40F067820B9C0025E5
:10254800DDF81880B8F1000F0DD00A9B002B0ADDCA
:102558004345069AA8BF4346D21AA8EB0308069239
:102568000A9AD31A0A930B9B0BB30E9B002B00F00D
:10257800A682002C00F0A1822946224658463BF04C
:1025880009FE039A0146054658463BF059FD039952
:10259800064658463BF0D4FC0B9B1B1B0B9300F0E4
:1025A80091820B9A314658463BF0F4FD0390012185
:1025B80058463BF02FFD0F9B0446002B00F0848209
:1025C8001A46014658463BF0E5FD209B0446012B80
:1025D80003DC049B002B00F07C820026236904EBBB
:1025E8008303186959F094FCC0F120000F960A9BE8
:1025F800184410F01F0000F09182C0F12003042B52
:1026080040F38182C0F11C00069B0344804406937A
:102618000A9B03440A93069B002B05DD1A4603997F
:1026280058463BF011FE03900A9B002B05DD21461E
:102638001A4658463BF008FE0446129B002B00F051
:1026480076822146039859F0B2FC002880F26F8206
:1026580000230A22039958463BF094FC0E9B7E1EE9
:102668000390002B00F05C82002329460A2258467A
:102678003BF088FC099B0546002B03DC209B022BC2
:1026880000F35E82B8F1000F05DD29464246584640
:102698003BF0DAFD05460F9B002B00F0D0826968FD
:1026A80058463BF00DFC0746002840F07F820D4B52
:1026B800024640F2EA2153E5E20706D508F101088F
:1026C800D5E90023FDF700FF0123641008350BE767
:1026D8004FF002080DE700BF300E0700080E070094
:1026E8000000F03FC405080020460022AC4B2946F4
:1026F800FDF7EAFE7E1E08F10108099CCDE90401F8
:102708004046FDF777FEDDE90423FDF7DDFEA54B26
:102718000022FDF723FDA1F15073CDE910011193BB
:10272800002C3BD10022A04BDDE90401FDF714FD8C
:1027380002460B46CDE90423DDE91023FEF754F9E0
:10274800002840F05781DDE9102101F10043DDE95F
:102758000401FEF72BF900283FF4E2AE00242546D9
:10276800219BDDF820A0DE434FF0000821465846A3
:102778003BF0E6FB002D00F0A980B8F1000F05D072
:10278800A84503D0414658463BF0DAFB294658464F
:102798003BF0D6FB9AE03E464C46B1E7834B03EB51
:1027A800C40353E90201089B1C440E9B002B4AD02A
:1027B80002460B4600207E49FDF7B0FFDDE91023F5
:1027C800FDF7CAFCDDF820A0CDE91001DDE9040120
:1027D800FEF7D2F90546FDF70DFE024630350B46E9
:1027E800DDE90401FDF7B8FC0AF8015B02460B4677
:1027F800CDE90401DDE91001FEF7F6F8002865D1FE
:1028080000206C49DDE90423FDF7A6FC02460B46CF
:10281800DDE91001FEF7E8F8002840F00D81A24537
:1028280000F0EA8000225E4BDDE91001FDF74CFE66
:1028380000225B4BCDE91001DDE90401FDF744FE00
:10284800CDE90401C2E7DDE91023FDF73DFEA0460E
:10285800DDF820A0CDE91001DDE90401FEF78CF9CF
:102868000546FDF7C7FD024630350B46DDE9040194
:10287800FDF772FC0AF8015B02460B46A245CDE95A
:1028880004234FF0000223D1494BDDE91001FDF785
:1028980065FC02460B46DDE90401FEF7A5F80028B1
:1028A80040F0CA8000204249DDE91023FDF754FCBE
:1028B80002460B46DDE90401FEF778F870B1C2461E
:1028C80008F1FF381AF8013C302BF8D0374655E0AC
:1028D800334BFDF7F9FDCDE90401BDE7DDE90C3423
:1028E800CDE90434159B002BFFF628AE0E2F3FF7D9
:1028F80025AE2E4B03EBC703D3E90034CDE90634EC
:10290800219B002B02DAB9F1000F64D0DDF820A07A
:10291800DDE90445DDE9062320462946FDF7FEFEEC
:10292800FEF72AF90646FDF765FDDDE90623FDF702
:10293800CBFD0246204606F130040B462946FDF73A
:102948000BFC0AF8014B089C02460B46AAEB040450
:10295800A14540F08280FDF701FC04460D46DDE903
:102968000623FEF741F8002865D120462946DDE90F
:102978000623FEF711F808B1F3075CD4039958460B
:102988003BF0DEFA002301378AF80030229B1F60F3
:10299800249B002B3FF41CACC3F800A018E400BF34
:1029A8000000244000001C4000001440300E0700C6
:1029B8000000E03F0000F03FA24B03EBC703D3E960
:1029C8000034CDE90634219B002B9FDAB9F1000FC2
:1029D8009CDC7FF4C3AE00229B4BDDE90601FDF7CA
:1029E80073FDDDE90423FDF7F5FF044600287FF4B5
:1029F800B5AE3E462546B4E0DDE90C34CDE90434F5
:102A0800159B002B01DB0E2FD6DD209A012A36DC20
:102A1800139A82B303F233430B9CDDF81880069AAD
:102A2800012158461A4406920A9A1A440A923BF01F
:102A3800F1FA054686E53E4653469A4613F8012DB7
:102A4800392A06D1089A9A42F7D1302208990136D4
:102A58000A701A7801321A7038E700227B4BFDF7AA
:102A680033FD0022002304460D46FDF795FF00289C
:102A78003FF450AF82E7149BC3F13603CCE709F16A
:102A8800FF340B9BA34208DBB9F1000FA3EB04044E
:102A98000EDBDDF818804B46C1E70B9B0F9AE31A53
:102AA8000B94DDF8188000241A444B460F92B6E7C1
:102AB800069BA3EB09080023B1E7039E71E50B9A77
:102AC800039970E5039672E5209B012B17DC049BA4
:102AD800ABB9059BC3F313039BB9059B23F00046D1
:102AE800360D360536B1069B0126013306930A9B3F
:102AF80001330A930F9B002B7FF470AD0F960120D2
:102B080075E50026F6E73FF486AD1C33069A1A44AD
:102B1800984406920A9A1A440A927CE50346F4E716
:102B2800099B002B2BDC209B022B09DC27E0B9F149
:102B3800000F1DDC209B022B1ADD3E46CDF82490A9
:102B4800099B002B7FF40CAE2146052258463BF02A
:102B580019FA01460446039859F029FA00287FF724
:102B6800FFADDDF820A0312301360AF8013BFBE573
:102B78000E9B3E46CDF82490002B7FF483AD089F32
:102B88002146039859F05EF8089B00F13009099A2C
:102B980007F8019BFB1A9A4240F3CB8000230A22D4
:102BA800039958463BF0EEF90390E9E72A6905F1E5
:102BB8000C010C300232920058F04BFC01223946CD
:102BC80058463BF041FB089BA846054603F1010A1D
:102BD800DDE9082313440A93049B03F001030B93D4
:102BE8000AF1FF3321460398069359F02BF8414622
:102BF800099000F13009039859F0D9F92A4621467D
:102C0800074658463BF08CFBC268014602B358465B
:102C18003BF096F9002F3ADA0122039958463BF027
:102C280013FB2146039059F0C2F9002803DC29D18F
:102C380019F0010F26D0B9F1390F1DD132E028461D
:102C4800C1E700BF300E0700000014400000244018
:102C58000E90039859F0ABF90E990C9058463BF03A
:102C68006FF90C9A5ABB209B53B90B9B43B9B9F126
:102C7800390F17D0002F05DD099B03F1310901E059
:102C8800002F2ADADDF818A00AF8019B6EE5209BD0
:102C98003B4304D1049B03F00103002BBCD0B9F1E2
:102CA800390F36D1069F392307F8013BBA46013F51
:102CB8001AF8013C392B5AD001333B7056E5002FE6
:102CC80006DB209B3B4306D1049B03F0010313B9A9
:102CD800002AA1DCD6E7002AE1DC0A9B57460AF85D
:102CE800019C53452ED000230A22039958463BF0F5
:102CF80049F9A84503904FF000034FF00A024146F6
:102D080058460BD13BF03EF9804605460AF1010AC8
:102D180066E7DDF818A009F10109B5E73BF032F9DB
:102D28002946804600230A2258463BF02BF90546DF
:102D3800ECE7099B4FF00008002BCCBF1F4601278A
:102D4800089B1F440122039958463BF07DFA21460F
:102D5800039059F02CF90028A8DC02D119F0010FD2
:102D6800A4D1BA4617F8013D302BFAD0FEE4089BEF
:102D7800BB429BD13123089A01361370F6E4249B99
:102D8800002B7FF420AA014BFFF73FBA4305080048
:102D98002DE9F04F012984468E4687B064D8002972
:102DA80042D033A3D3E9002333A7D7E9006734A57A
:102DB800D5E900450FF2D00BDBE900AB34A1D1E92E
:102DC8000001CDE9042334A3D3E90023CDE900238E
:102DD80033A3D3E90023CDE9022333A3D3E90023A6
:102DE8004FF000084FF00009CCE90A01DDE90401C1
:102DF800CCE90C01DDE90001CCE90E01DDE90201B5
:102E0800CCE910010020CCE90089CCE90289CCE9A1
:102E18000467CCE90645CCE908ABCCE91223CCF829
:102E2800D0E007B0BDE8F08F21A3D3E9002322A7A3
:102E3800D7E90067CDE9042321A5D5E9004522A3F8
:102E4800D3E900230FF2880BDBE900ABCDE90023BF
:102E580021A1D1E9000122A3D3E90023CDE902236E
:102E680021A3D3E90023BBE76FF07400D9E700BFC3
:102E7800310BC0FF67263367D89E05C15D9DBBCB6C
:102E880007D57C362A299A6217DD70305A01599184
:102E980039590EF7D8EC2F1511155868874AB48E92
:102EA800A78FF9640D2E0CDBA44FFABE1D48B54759
:102EB800D182E6AD7F520E5108C9BCF367E6096AB4
:102EC8003BA7CA8485AE67BB1F6C3E2B8C68059BED
:102ED8002BF894FE72F36E3CF1361D5F3AF54FA560
:102EE8006BBD41FBABD9831F79217E1319CDE05B04
:102EF800024B1870024837F0C9BF00BF4059002084
:102F08008C10002090B5104BA1B0994200AF18D199
:102F18008168283180233A46012008F0A3F96C46DD
:102F280088B06A46094B4FF4E651C2E905374FF4B9
:102F380000739383064B074842F8103F42F0C9FCE0
:102F4800A5468437BD4690BD080004E02E40070022
:102F580003000001F8F5050008B50C4D0C4C2B7961
:102F6800DA070AD5A3685B69402120469847002103
:102F780040F6CD4038F092FDF1E723691B685B0607
:102F8800A36854BF1B69DB68EEE700BFA82C0020CC
:102F980014F1050010B5114C204657F057FA30B916
:102FA800BDE8104001210E4A0E4842F090BC22694B
:102FB800A1681368204623F0400313600B684FF4A0
:102FC800202206219847031E06DABDE81040012199
:102FD800054A044843F080BCFFF7BEFF14F1050022
:102FE80042400700F8F505005A4007002DE9F04374
:102FF80097B000AF06F050FA04464422002107F1CA
:10300800140058F04DFA44232146614807F1140290
:1030180045F02AFA40B103215E4A5F4842F057FC66
:103028005C37BD46BDE8F08303215C4A5A4842F04C
:103038004EFC387D05F0BCFE6D4688B06A464FF4FC
:103048000079574BDFF85C81C2E90530A2F81C9083
:103058004FF4E651504842F8108F42F03AFC7B6931
:10306800AD46052BDCDD97F8480005F0ADFE88B0CD
:103078006A464D4BA2F81C90C2E905304FF4E65160
:1030880042F8108F444842F024FCAD4697F84900B6
:1030980005F0A6FE88B06C462646444BA4F81C9062
:1030A800C4E9053046F8108F32464FF4E6513A48E5
:1030B80042F00FFCAD46A5463D4B3246636107F131
:1030C8001C03A3614FF4E6513348A4F81C90C4F8DC
:1030D800108042F0FEFB1223AD463A46062107F166
:1030E8003C0008F093F8A546324B3246C4E9053057
:1030F8004FF4E6512848A4F81C90C4F8108042F018
:10310800E8FBAD4697F8420005F046FEA5462A4B77
:103118003246C4E905304FF4E6511F48A4F81C9024
:10312800C4F8108042F0D5FBAD467B6C0321234ADE
:10313800194843F0D1FB97F84A0005F015FEA5465B
:103148001F4B3246C4E905304FF4E6511248A4F843
:103158001C90C4F8108042F0BCFBAD4697F84B00B9
:1031680005F00EFEA546174B3246C4E905304FF46C
:10317800E6510948A4F81C90C4F8108042F0A9FB55
:10318800AD46FB6C0321104A034843F0A5FB47E713
:103198000600565180400700F8F5050096400700E4
:1031A800A940070003000001B3400700C64007001C
:1031B800D4400700E0400700EA400700F34007005A
:1031C800FF4007000C41070014410700B0B52A4B27
:1031D80000AF994204D0013399421CD0BD46B0BD1E
:1031E800264C2379D907F9D483681B684BB1012190
:1031F800234A244843F070FB237943F002032371E8
:10320800ECE70321204A1F4842F061FB237943F091
:1032180001032371F0E7194C2379DA07DED513F09F
:10322800040582681FD01168184B194A6D468AB088
:10323800002908BF13466A461648D161C2E905034A
:103248004FF400731384144B4FF4135142F8103F9A
:103258000C4842F03EFBAD4623796FF3820323719D
:10326800FFF7C4FEBAE703210C4A064842F02FFBD9
:10327800237965F30003F2E7030056D1A82C002058
:1032880022410700F8F505003941070061DB070016
:103298001D41070043410700040000016141070088
:1032A8002DE9F04303210546144A154885B042F03C
:1032B8000EFB03240026134FDFF844800223CDE9D8
:1032C80001668DF80C30AB680122D3F808902846C7
:1032D800A3B201A9C84728B9032123463A46404664
:1032E80043F0FAFA0134782CE8D10321064A04485D
:1032F80005B0BDE8F04342F0EABA00BF77410700E5
:10330800F8F505008C410700AF410700F0B583B020
:10331800032100AF394A3A4842F0D9FA6C468CB0DA
:103328006A46384B384D5361384B9361384BD361FB
:10333800384B3B6040F20243BB80374B136207F1C6
:10334800080313E90300354B506211852C484FF4EC
:10335800535142F8103F42F0BCFAA5460321304AC7
:10336800274842F0B4FA4FF0FF324FF0FF332D48B0
:1033780037F0B2FD044660BB2B4E2C4B1B782BB9A3
:1033880003212B4A1E4842F0A2FAE7E707F078FD2E
:103398002B79014623F003032B71002330461A468C
:1033A80011F05EFAF8B10121224A154842F08FFA6D
:1033B8002B799A071AD5DB07D0D5FFF717FE4FF000
:1033C800FF324FF0FF33174837F086FD04460028D8
:1033D800D3D001212346184A094843F07DFA2046F4
:1033E8000C37BD46F0BD0321144ADEE7FFF7FEFDAA
:1033F800002142F2676038F051FBD9E7C24107006B
:10340800F8F50500DB410700A82C0020084207005A
:1034180015420700000201032342070005000003CC
:103428002F4207008C1000206E0056514059002092
:103438006A4207007D4207004D4207009742070095
:10344800002298B5184B1948C3E90022184B00AF61
:103458004360184B6C46036108F0E2F91648174BB5
:103468004360174B036108F0DBF9164B164A1B68DB
:103478008AB0B3FBF2F36A461449154851611549FD
:10348800C2E906134FF400731384134B4FF413511E
:1034980042F8103F42F01DFAA54600214FF40040C3
:1034A80038F0FCFABD4698BDA82C0020C42C00209A
:1034B800D5310000070056D1B02C00200D2F000098
:1034C800080004E0580A002040420F00AC42070000
:1034D800F8F50500D342070004000001B0B58CB030
:1034E80004AF2F4856F0B2FF50B92E4A01212E489A
:1034F80042F0EDF94FF0FF3420462037BD46B0BD0D
:103508002748FFF7CDFE294C204656F09FFF08B903
:10351800274AEBE7A5683B212046EB689847002837
:1035280001DA244AE2E70D213A462B6920469847FA
:10353800D7E9003203211C4800921F4A43F0D6F90C
:10354800FFF77EFF07F09CFC08B91C4ACEE71C4B2E
:103558006D46BB60029007F1200313E903008DE874
:10356800030007F108030FCB11F000FA044698B1E5
:1035780039F0D4FF88B004AA124B4FF4E251C2E9E3
:1035880005304FF4007393830F4B074842F8103F00
:1035980042F09FF9AD46AFE70C4857F07EFAABE72B
:1035A80078F10500DD420700F8F50500A0F10500F7
:1035B800F5420700104307002B430700424307006A
:1035C800F92E00006043070003000001E01100200D
:1035D8002DE9F04F91B0009302F004030293C2F377
:1035E800C2030133840705460E46DDF8689003924E
:1035F800059340F0BB81041D30B1072909D86FF04D
:103608001B0011B0BDE8F08F01F00706341DC6F1AC
:103618000806009B4FF000084FF0040A591E4FF0AF
:10362800FF3347460193C3465346CDF810800DB18A
:10363800009A22600598002800F3E8809848009ACC
:10364800824203D397488242C0F0E080039AA4EBF9
:10365800050E92074FEA9E0000F103810F2F00F23A
:10366800B180002D00F0058107F140020DEB020C3E
:10367800019A0CF8200C0CF8102C049801300490D6
:10368800E7E07A285DD84B280ED8472859D829284A
:103698002DD8252852D054D820287AD02338D0F1D4
:1036A800000B4BEB000B74E04C382E2849D8DFE8B0
:1036B80000F07048484848484848484848484B48F7
:1036C8004848484848484859484B4B595959704BFD
:1036D8006D487048184B184848827F4B48484B48FB
:1036E8007F0000204FF0000B4FF0040A38E0012261
:1036F8002A38C0B202FA00F010EA0E0F49D110F0D1
:10370800625C2FD110EA020B43D06046013C54445E
:10371800B4FBFAF40AFB04F4002D61D0A3EB050C0A
:10372800A444B4453FF66BAF002868D1042B47D1B9
:1037380059F8043B2360042304342AE0019A013A2F
:1037480001924FF0000B24E011F8010C6C2834D1E1
:10375800002011F8023C83466C2BC5D14FF0080AB3
:103768005346D3E709F1070929F00709073424F07C
:103778000704F9E802AB35B106982044B0423FF699
:103788003EAFC4E900AB4FF0000B08344FF0080A15
:10379800534611F8010F002878D0BBF1000F7FF4D1
:1037A80070AF2528F5D14FF0010B019B0133019330
:1037B8004FF0040AECE7584694E700208346A5E753
:1037C800082B02D06FF015001BE709F1070929F053
:1037D8000709F9E80223C4E9002308230834D8E7D5
:1037E80068B9042B02D109F10409A4E7082BE9D12F
:1037F80009F1070929F0070909F10809EDE7059A10
:10380800013A059259F8042B009210E7039A9007A1
:1038180020D54FF0010CA4EB050E4FEA9E00BEF533
:10382800007FCFD20F2FCDD8F5B107F140020DEBB5
:10383800020E019AC0B20EF8200C0EF8102CBCF142
:10384800000F3FF41AAF60F07F000EF8200C08F16B
:1038580001080137C5F108024FF6DA7E04340692F2
:1038680097E74FF0000CDAE7BCF1000F01D0013602
:10387800EFE7029802360028EBD10098CDE906312F
:10388800FEF798F9DDE906310644E2E7631BB3F574
:10389800806F97D245B9A6F10804E018B1E600BFD9
:1038A800F8EF050088070800029A9B0828602B702B
:1038B8009DF81030C2B1EB7085F80280B8F1000FA6
:1038C80005D0002208A8C5F1010C97420ED14FF08F
:1038D800000AC5F101030DF1200901930DF1300B28
:1038E800574512D1601B8CE66B70E5E710F8013B79
:1038F800190608D504EB0C0EB64503F07F033FF616
:103908007EAE04F8013B0132DFE7B8F1000F03D0C7
:1039180099F90020002A17DB029BD3B11AF80B2073
:1039280004F8012B0022019B98182044B0423FF66E
:1039380066AE99F80000009904F8010B204603923E
:1039480057F087FD039A14440AF1010A09F10109A5
:10395800C6E799F8002055F822300093029B00989A
:1039680045F82230FEF726F9421CDCE76FF00D001F
:1039780047E600BF2DE9F04F97B000AFD7F880B009
:103988003B62CBF3C0030446894690F802A0FA6272
:10399800BB6141B9457800780AEB800020444D4569
:1039A80017D8A0EB0409E378FB61BAF1000F02D045
:1039B8001BF0010F16D1FB6953BBFB6A1BB14946CB
:1039C80020463A6A98474D4628465C37BD46BDE8CA
:1039D800F08F461C3046FEF7EDF80130304409F10F
:1039E8000109DCE7626823787A62FA6A99007961EA
:1039F80004EB8301002A40F001810E464FF00008D5
:103A08004D4601EB0A094E454CD101EB0A0610E080
:103A18001BF0020FD1D023789A007A61626804EB18
:103A280083017A62FA6A002A77D14D46904601EB03
:103A38000A061BF0050F0CBF02230123FB62FB697A
:103A480006EB430A0BF00203BB625645BCD016F8DE
:103A5800021B16F8013C54F82390AF4B994502D34A
:103A6800AE4B994536D3BB69002B40D0786A42F0FB
:103A7800B5FA00283BD0E9468AB06A46A84B53619C
:103A88007B6AC2E906314FF400731384A54B42F8F0
:103A9800103F00234FF41251A34801F061FA023D90
:103AA800CD46D2E716F8013BF96254F82300FEF739
:103AB80081F8D7F88430F96A01304BB1D7F88830EB
:103AC80098453EBFD7F8843023F8180008F101085C
:103AD800054498E7BB6923B1786A42F07FFA002869
:103AE800C9D11BF0010F05D1FB6AED1AADE7BB6A1E
:103AF800002BAAD04846FEF75DF8D7F8843053B1BA
:103B0800D7F8883098453FBFD7F88420431C22F85F
:103B1800183008F10108054497E7BAF1000F73D08F
:103B28001BF0040673D0D046002607F14800524621
:103B38003B61B96257F08DFCB96A3B6901EB0A0237
:103B4800BA62FA69F9695200FA60BA6A02EB41028C
:103B58003A610BF00202BA603A69B96A8A4258D1EE
:103B680062781BF0020F18BF00217A6208BF4FEA83
:103B78005801B2181BF0010FD2B240F09F801BF021
:103B8800040F14BF40460020BB616270A070E17052
:103B980020463A6A7969FB6A9847051EFFF614AF12
:103BA800BB69414623707B6A3A6A6370FB6984F893
:103BB80002A0E37007F14800FB6A9847B0F10008DB
:103BC800C0F2B4807B69A9EB0A01C91AFB683A6A9A
:103BD800C91AD7E90A0398470028C0F2A9804FF00C
:103BE800000BA84408EB000507F1380AB34567D372
:103BF80000213A6A0846FB6A9847E5E656464FF0C0
:103C0800000807F1380092E75646D04696E7B046D6
:103C180094E7BA6A12F8021B12F8015CBA6254F807
:103C280025003D4A904202D33C4A90421ED3BA69CD
:103C380032B1786A7B6042F0D1F97B6800288BD179
:103C4800BA6802BB08F1280207F1300C08F101003C
:103C5800944407F1580208F1020852FA80F00CF86F
:103C6800101C5FFA88F800F8105C75E7BA693AB179
:103C7800786A7B6042F0B2F97B6800287FF46CAF09
:103C88001BF0010F09D006F1280207F13000711C62
:103C9800161806F8205CCEB25EE71BF0040F3FF45E
:103CA8005BAF08F1280207F1300008F1010102EBCF
:103CB800000808F8105C5FFA81F84DE7002063E718
:103CC8001BF80A3054F8239087F83730D7F8843037
:103CD800FBB133F81B8001213A6AFB6A07F1370010
:103CE8009847002824DB0544B8F1000F06D1484660
:103CF800FDF760FF00F101081FFA88F841464846C1
:103D08003A6AFB6A9847002812DB05440BF1010B5D
:103D18006CE7D7F88480DEE7F8EF0500880708002D
:103D2800AF4307000400000168F4050045464BE670
:103D3800054649E6014B1860704700BF3000002077
:103D480030B5002587B0CDE903010446009503A9E5
:103D58000548059500F0C2F9DDE904309842B8BF7E
:103D6800255407B030BD00BF336004000F2808B5E4
:103D780006D942F004FF092303604FF0FF3008BD65
:103D88002822044B02FB0033D3E8AF3F002BF0D0CE
:103D98000020F4E73C0000202823434330B50D49B8
:103DA80008330B44D3E8AF2F92B1541ED3E8EF5F2A
:103DB800954204D1C3E8EC4FBCF1000FF6D1F1D124
:103DC800012A05D12823584300230A180B505360B1
:103DD80030BD00BF3400002070B504460D461646BD
:103DE800FFF7C4FF00280ADB084A55B1282303FB64
:103DF80004235B68AB4204D042F0C1FE0660002099
:103E080070BD28235C431059FAE700BF3400002036
:103E180070B504460E461546FFF7A8FF00280DDBCF
:103E280028236343064AD1184968316015B10C3319
:103E380013442B6028235C43105970BD0020FCE715
:103E48003400002070B500254FF0FF334FF0FF32EB
:103E5800174836F035FF174BD3E8AF2F7AB1013545
:103E6800102D03F12803F7D142F089FE17234FF0F4
:103E7800FF3503600E4842F02CF9284670BD28240F
:103E88006C43D3E8EF0F0130C3E8E10F0029F8D104
:103E9800094E331932515A6004F10C00304456F07F
:103EA800C6FB04F12000304456F0E8FDE2E700BF0D
:103EB8007C0E00203C0000203400002010B4044692
:103EC800104628225443084B1A191951506040B122
:103ED800C26832B10C34234440F2051210BC42F0DF
:103EE800E9B810BC704700BF340000202DE9F0414C
:103EF80004460F469046FFF739FF00281ADB2823AF
:103F08005C430E4E04F10C0535444FF0FF324FF080
:103F1800FF33284636F0D4FE33195B6830594246E1
:103F280039461B6898470446284642F0D2F820468E
:103F3800BDE8F0814FF0FF34F9E700BF34000020FE
:103F48002DE9F04104460F469046FFF70FFF002881
:103F58001ADB28235C430E4E04F10C0535444FF060
:103F6800FF324FF0FF33284636F0AAFE33195B685C
:103F78003059424639465B6898470446284642F01D
:103F8800A8F82046BDE8F0814FF0FF34F9E700BFFC
:103F980034000020F8B50546FFF7E8FE00281ADBD4
:103FA80028246C430D4F04F10C063E444FF0FF32B9
:103FB8004FF0FF33304636F083FE3B195B683859C3
:103FC8009B6898470446304642F083F82846FFF736
:103FD800E3FE2046F8BD4FF0FF34FAE73400002036
:103FE80073B504460D461646FFF7C0FE00280EDBE3
:103FF800282303FB04F0074900960C182B460958A0
:1040080040F20112606842F055F802B070BD4FF0FE
:10401800FF30FAE734000020F0B5024601680A27AD
:104028000020074E0B461C780131355D6D0701D421
:104038001360F0BD07FB0043A3F13000F2E700BFB7
:10404800E5FC07002DE9F84F15469A46D378224A31
:104058006F2B12F803B080460F460BF0030B29D0E4
:1040680024D8582B0CBF10260A26DDF82890324693
:10407800002340463946FCF731FD092AD4B21ED840
:104088003034B045E4B277F1000709F8014D01D3A7
:10409800D14511D82B789B0605D5082E15D1AB78BC
:1040A80043F00803AB704846BDE8F88F03F0F70308
:1040B800702BD7E70826D8E780460F46D7E7BBF12D
:1040C800010F0CBF37345734DBE7102EEBD1AB7838
:1040D80043F01003E6E700BFE5FC07002DE9F04FC9
:1040E8008A4616461C46002597B00390307808B9D2
:1040F80028464AE3731C2528049307D05146039B9E
:1041080098470028C0F241830135F0E118220021C8
:1041180010A857F0C5F97378252B00F0A380002369
:1041280098469E469C461846711C0F4611F8012B6E
:104138002B2A00F0C68000F2BD80202A00F0C4803F
:10414800232A00F0C4802BB19DF8483043F0400387
:104158008DF84830B8F1000F05D09DF8483043F08D
:1041680020038DF84830BEF1000F05D09DF8483087
:1041780043F010038DF84830BCF1000F05D09DF8CE
:10418800483043F008038DF8483028B19DF848308E
:1041980043F004038DF848309DF8483003F044019B
:1041A800442903D16FF386138DF848309DF84830C1
:1041B8002A2A43F0800309978DF8483040F08C8014
:1041C8009DF8493043F001038DF849307B1C1A787B
:1041D8002E2A0CBF012100219DF8492061F34102DC
:1041E8008DF849200CD15A1C09925A782A2A40F095
:1041F80083809DF84920023342F004028DF849205B
:104208001A786C2A00F0A48000F28680682A00F0F0
:104218008C806A2A00F0A5804C2A00F0AA801A46F1
:1042280012F8013B782B04928DF84B309DF8492009
:1042380000F217816D2B00F2A980692B00F2118121
:10424800572B00F2BE80412B03D0453B022B00F2D6
:10425800088104229DF84A3062F302038DF84A303F
:104268000123CAE0B21C04928DF84B309DF8493006
:10427800D90740F1FD8054F8048BB8F1000F07DA34
:104288009DF84820C8F1000842F004028DF8482043
:104298005A0740F1F68054F804BBBBF1000F80F2D6
:1042A800F5809DF849306FF341038DF849304FF0A0
:1042B800FF3BEBE02D2A0DD0302A7FF444AF0123D9
:1042C80033E74FF0010C30E74FF0010E2DE74FF0C8
:1042D80001082AE7012028E709A8FFF79DFE099BA6
:1042E800BB423FF474AF9DF848201390C00F60F3B1
:1042F80041028DF848206AE709A8FFF78DFE9DF86E
:1043080048301490C3F3400242EAD07262F341038A
:104318008DF84830099B73E7742A26D07A2A7FF4EF
:104328007EAF06219DF849200CE05A78682A9DF84E
:10433800492006D1012161F3C6028DF849200233D4
:104348006DE7022161F3C6028DF84920013366E763
:104358005A786C2A9DF8492001D10421EBE7032102
:10436800F0E705219DF84920ECE707219DF8492051
:10437800E8E7BDF8482022F4F04222F0020242F4B5
:10438800804242F00202ADF84820DFE76E3BD9B226
:1043980001238B4040F282410B4238D113F0240FA5
:1043A80052D1DF075DD503219DF84A3061F302033E
:1043B8008DF84A3002F07803A3F1400043424341AC
:1043C8001BE00120A3F15801C9B200FA01F111F470
:1043D800624F7FF43EAF40F6010739421DD111F418
:1043E800043F3ED09DF84A3060F3020302F07802A1
:1043F800402A8DF84A3034D000239DF84820C2F373
:1044080040010B4363F341028DF848202EE7022157
:104418009DF84A3061F30203E8E702209DF84A104C
:1044280002F0780260F30201402A8DF84A1002BFB8
:104438009DF8481041F001018DF84810632BDBD13D
:10444800131E18BF0123D8E703219DF84A3012F044
:10445800780F61F302038DF84A3014BF012300235B
:10446800CBE79DF8483043F001038DF84830C3E7A7
:104478009DF94820002AACBF4FF0FF38DDF84C808A
:1044880006E79F077FF513AFDDF850B00023CDE9AD
:1044980013339DF84A309DF8491003F00703012BA8
:1044A800C1F3C30133D1CB1E042B04D8DFE803F0DA
:1044B800214646212100236801294FEAE372CDE90C
:1044C80010321CD19DF94030DA17CDE9103204348E
:1044D8009DF8483013F0030750D032465146049BEC
:1044E800039841F0FAFD0028C0F24F810544049E6C
:1044F800FCE554F8043BDA17CDE91032E8E7022965
:10450800E5D11AB243F3C033CDE91023DFE7022B1C
:1045180024D1CB1E042B04D8DFE803F018101018A0
:10452800180001294FF0000254F8043B14D0022966
:10453800CDE91032CCD19BB21093C9E7073424F0EF
:104548000704F4E80223CDE91023C1E754F8043B3B
:10455800109300231193BBE7DBB2CDE7042B08D1FE
:10456800073424F00704D4E900230834CDE91023E4
:10457800AEE7032BACD154F8043BDDE79DF84B00C4
:104588007828B4D862281DD825283FF4B7AD582814
:10459800ADD1DDE910010DF13E03009312AA0AAB7B
:1045A800FFF750FDBBF1000F814680F29880B9F10A
:1045B800000F9CD00DF13E06A6EB0903002F50D04A
:1045C80001334EE06338152891D801A252F820F043
:1045D80059460000BD460000F7440000F7440000BB
:1045E800F7440000F7440000BD460000F74400000F
:1045F800F7440000F7440000F74400004747000074
:10460800E146000009470000F7440000F7440000B5
:1046180031460000F7440000E1460000F74400007E
:10462800F7440000E1460000BBF1000FDDF84090C0
:104638000ADB5946484657F076FAB9F1000F3FF4BD
:1046480056AF09EB000676E04846FDF7B3FAF8E7FF
:10465800109B00278DF8283001230DF129060DF154
:1046680028099DF84A1011F01002069200F0818086
:104678000233139A134405924A0644BF14995B18EF
:10468800B8F1000F40F38E80A8EB03089DF848307E
:104698005807C3F3800B00F18580590678D53FB1E0
:1046A80051463846039B984700286EDB5F46013524
:1046B80030236EE01E075ABFC3F300135F012B2798
:1046C800DDE91023002BBFF664AF524263EB4303CE
:1046D8002D27CDE910235CE700275AE700279DF82E
:1046E80048100DF13E03A3EB09036FF386119B45B8
:1046F8008DF848107FF65BAFABEB0303139356E7D7
:10470800109880B30DF13E060AAB0021009612AA5C
:10471800FFF798FCBDF84A30BBF1000F03F0EF0338
:1047280043F4F04343F010038146ADF84A30D5DA3C
:1047380000283FF4DCAE0027A6EB090391E7109BA5
:1047480007293FF6D4AEDFE801F00C04060C080890
:104758000C0C1D70CBE61D80C9E6EA17C3E90052B0
:10476800C5E61D60C3E6314E07460523A6F10509D7
:1047780077E7080748BF01337BE718460793514698
:10478800039B98470028079B04DA17B0BDE8F08F11
:104798002023C346594600290BF1FF3BEDDC454475
:1047A800D8466D1A37B151463846039B98470028BA
:1047B800EBDB01359DF84A30DA0601D41B0706D534
:1047C80051463020039B98470028DEDB0135069BC5
:1047D8003BB151469DF84B00039B98470028D4DB1A
:1047E8000135059F2F4406E051463020039B98472A
:1047F8000028CADB01357B1B002BF5DC33464A4613
:104808005146039841F069FC0028BEDB0544A844E2
:10481800A8EB0503002B7FF76AAE51462020039BC7
:1048280098470028B1DB0135F2E700BF684407006C
:104838002DE9F047058B04462807904611D4022934
:1048480005F0070540F0CC80204641F0BFFE78B166
:104858000138218B042811D8DFE800F0C2106D85DB
:10486800950001290CBF45F0100545F0200525836A
:1048780088F31188BFF36F8FBDE8F08701F0070A4E
:10488800AA4500F0A5800027B9463E46A368002B3C
:1048980000F0BC8041F00801218388F31188BFF340
:1048A8006F8FA168002900F0BA800D68002900F018
:1048B800B680334652462046D1F80480C047002DC2
:1048C80076D02B6829461D46F0E701F007035A1FEA
:1048D800012A1BD8002221F00701062B276889B27C
:1048E800C4E9002209D13B4603E0628B01326283AE
:1048F8001B68002BF9D141F002012046218341F0C9
:1049080065FE00287AD041F0200176E0042B0AD118
:1049180021F0070189B22046218341F057FE10B1EA
:1049280041F020012183218B01F0070AAA454FD0CD
:104938000027B946AAE7236921F0070141F00601DB
:10494800062DD3F8009021832DD1B9F1000F3FD067
:1049580041F00801218388F31188BFF36F8F204647
:104968003949C84729E021F00701236941F00401CA
:1049780089B2042DD3F804902183E6D000274FF0A4
:10498800040A3E4682E721F00701236941F0050148
:1049980089B2052DD3F808902183D6D000274FF08F
:1049A800050A3E4672E700274FF0060A3E466DE7C5
:1049B8002B4687E7B9F1000FD1D1EFF311882023F7
:1049C80083F31288BFF36F8F238B23F008032383AD
:1049D800258BEA062ED525F01003238305F007055D
:1049E8006669218B002EBFF670AF00232768C4E9E3
:1049F800003321F0070141F001012183218B4FF0A1
:104A0800000901F0070AAA457FF440AF002F9CD0A7
:104A180041F00801218388F31188BFF36F8F002FBD
:104A2800C8D03D68394633465246204641F0FAFD23
:104A38002F46F4E7AB067FF51BAF25F02003238351
:104A480005F0070500E700BF596604002DE9F047A7
:104A5800044607464FF00109DFF8508014B938467C
:104A6800BDE8F08794FAA4F5B5FA85F509FA05F3D7
:104A78002E0108EB05156FEA030A24EA03042B7BD1
:104A8800002BEBD058F806301B694BB946447368C5
:104A980004222846196807EA0A0700F04DFADDE7FC
:104AA800284698470028D9D1F0E700BF50F60500FE
:104AB80030B5002289B00F490F4856F0D6F90022C8
:104AC80000230024CDE906230E230C4DCDE9033441
:104AD8004FF440722846CDE90144094B0949009436
:104AE80036F0FEFC0849284655F0D2FF204609B0AA
:104AF80030BD00BF154B0000B01B00201013002074
:104B0800ED4D00009877002069440700014836F011
:104B1800BDB900BF2C1000202DE9F04780461F4882
:104B28000F4641F04EFE0646002830D000252846A4
:104B3800BDE8F087237B6BB12368DB680BB12046A7
:104B4800984723681B69D3B963680422204619680B
:104B580000F0F2F9013610344C45EBD3B8F1000FF0
:104B6800E5D0002DE2D02846FFF770FF0546002F5C
:104B7800F7D000214FF4A47036F090FFF1E72046FB
:104B880098470028E0D00AFA06F31D43E2E70546F5
:104B98004FF0010A024CDFF80C90DDE7E82C00200A
:104BA80050F6050060F60500014B53F820007047E9
:104BB8009C11070008B5034608462BB1044A136048
:104BC80000F05EFC002008BD6FF01500FBE700BF99
:104BD800B402002010B5044C237813B9034836F00A
:104BE80055F90123237010BD415900202C100020D5
:104BF80010B50446064841F0E4FD3CB1054BD3E846
:104C0800EF1F0139C3E8E21F002AF8D110BD00BF29
:104C1800E02C0020E42C002000200146034BD3E8C0
:104C2800EF0FC3E8E21F002AF9D17047E02C0020FB
:104C380070B5FFF7F1FF0546074C084EB44200D3A4
:104C480070BD63685B792BB123685B6813B1294633
:104C5800204698471034F1E750F6050060F6050045
:104C680010B5044C0449204641F04AFB034B1C6034
:104C780010BD00BF6C0D002088110700D82C002043
:104C880008B50023074A4FF400411370064A074845
:104C98001360074A1360FFF78DFFBDE80840FFF770
:104CA800DFBF00BF42590020E02C0020C767040086
:104CB800E42C0020014600220023014841F041BBBA
:104CC8006C0D0020014841F0D7BB00BF6C0D0020DF
:104CD800024B0146186841F023BC00BFD82C0020C5
:104CE800014841F058BC00BF6C0D002070B5264B40
:104CF8001878002847D0FFF7E5FF054670B1234B29
:104D0800D3E8EF1F0139C3E8E21F002AF8D1204C8D
:104D1800204EB4422DD32846FFF7DAFF1E4B1F4C16
:104D28001B68002B19DD56F059F84FF47A72A0FB76
:104D3800020302FB0131C30B43EA4143D4E90020DB
:104D48009B1A40F2E9324FEAD13161EB00019342FC
:104D580071F1000101D3FFF76BFFD4E9003213F5BD
:104D68007A7342F10002C4E90032BDE87040FFF7EF
:104D7800B7BF63685B7923B12368294620461B685F
:104D880098471034C5E770BD41590020E42C002035
:104D980050F6050060F60500E02C0020A81B002056
:104DA80070B50D4D297861B90120FFF7B5FE0B4CA0
:104DB8000B4EB44206D3FFF799FF0028FBD101231D
:104DC8002B7070BD63685B791BB1236820469B68B4
:104DD80098471034EDE700BF4259002050F605000F
:104DE80060F6050000212DE9F0470846FFF794FE1C
:104DF800044648B340F267684FF0000936F08AFE6F
:104E08001A4B186030B11A4B1B68092B02DD194880
:104E180036F03CF80025184FDFF858A044B120467A
:104E2800FFF714FE044618B94FF0FF384FF0FF396A
:104E3800FFF75CFF064628B9B5B942464B465046CF
:104E480036F04AF83546E9E74FF0FF384FF0FF39BA
:104E5800D4E72B689B691BB1002228461146984766
:104E68001035BD42F5D3E8E7044DFAE7DC2C002005
:104E7800E42C00202C10002060F6050050F60500F8
:104E880013B5184841F09DFC174B1B7873B1EFF32D
:104E98001184202383F31288BFF36F8FFFF726FF57
:104EA80084F31188BFF36F8F02B010BD0F4B1B68DE
:104EB800002BF9D050B9002200230D48CDE900237A
:104EC8004FF40042002337F0A7F8EDE70928EBD1AB
:104ED800074855F0D6FF074802B0BDE8104035F046
:104EE800D5BF00BFE42C002042590020DC2C002054
:104EF800B01B00202C10002010B5064B04461B6880
:104F080098472146A060044841F097FABDE8104050
:104F1800FFF7B6BFB40200206C0D0020044A054B11
:104F28009B1AB1EBD30F34BF52F831000020704701
:104F380060F4050050F60500084B10B4C31A446825
:104F48001B110133237143689A7101224368196068
:104F580043685A7110BCFFF73DBE00BF50F605000C
:104F68002DE9F04F8FB0C1F34A2804AF0D469146A2
:104F7800B8607B600C0DB8F1000F63D000264FF0CD
:104F8800040B4FF00A0A07F11403C7F80C80C7E9AD
:104F980007667E620193CDF808B0CDF800A007F14E
:104FA8001C0332464846F968FEF7E4FCB0F5006F8A
:104FB80003461CD36C468AB0D9F8041004AB2648C3
:104FC8001A46C3E9050140F2FF71D9614FF4007137
:104FD8001984224B42F8103F4FF4125133462048AF
:104FE800FFF7BEFFA5462C37BD46BDE8F08FC0F3DE
:104FF8000A0804F11700184420F0070080083B60F5
:10500800FFF758FE68F35325044690B13B6800F15A
:105018001001C7E9083607F11403F961CDE900A3C7
:10502800CDF808B048460F4AF96807F11C03FEF7A7
:10503800A1FC68F353252A4620467B68B96841F0ED
:10504800F2FBD0E704F1170020F007008008FFF713
:1050580031FE0446EDE700BF7E440700040000016E
:1050680090F40500036804002DE9F04F87B004466A
:10507800DDE9105ADDE912690F4693469846A6B352
:105088001021334652460020CDF80090CDF81490F8
:10509800FEF79EFA014605F117000844144B04F088
:1050A80007040BF0070BE40020F0070003EA412394
:1050B80044EA8B1480081C430391FFF7FBFD44EA84
:1050C8000554054640B13EB1334652460399CDF8E2
:1050D80000901030FEF77CFA4346224639462846AF
:1050E80007B0BDE8F04F41F09EBB3146D3E700BFA3
:1050F80000FE0F00406820B1034BC01A40F3CF00F8
:1051080070474FF0FF30704760F405000EB403B5E8
:1051180003AB53F8042B01460448019341F000FC0B
:1051280002B05DF804EB03B0704700BF516904009A
:10513800CA0605D48B064CBF02490349FFF7E6BFF0
:10514800704700BFA3AB0700BD4407002DE9F04F2F
:1051580089B09A46149B9DF84CB00693159B04465B
:105168000593169B0D469046179E0493BBF1000FBE
:1051780000F09D8006F48073079341F03CFB06F035
:105188000209024600283ED020469249FFF7BEFF9A
:105198000746B9F1000F08D016F0440F35D12A465A
:1051A80020468D49FFF7B2FF074406F0010353B1CB
:1051B8008A4B204653F82B20894B8A49002A08BF7E
:1051C8001A46FFF7A3FF06F48073002B49D006F0B8
:1051D8000803002B63D1B8F1000F66D04246204681
:1051E8008149FFF793FF0546069B3D44002B6DD18F
:1051F800049B002B73D1F30700F1E580314620466C
:10520800FFF796FFD9E00746C3E7784B18680028F0
:10521800CAD0774B4FF47A791B684FF46161B5FBBC
:10522800F3F5B5FBF0F300FB135509FB05F5B3FBEC
:10523800F1F2B5FBF0FE4FF03C0C01FB123100FB24
:105248001E55B1FBFCF309FB05F5B5FBF0F50CFBAE
:10525800131120460091CDE901E56649FFF756FF95
:10526800A2E706F00803EBB1634B204653F82B2066
:105278006249FFF74BFF0546B8F1000F05D04246DB
:1052880020465949FFF742FF0544BAF1000FABD059
:10529800524620465A49FFF739FF0544A4E74FF024
:1052A800000AE1E706F00805E6E745469CE7BAF19B
:1052B800010F069B06D1002B65D1049B002B7CD0E7
:1052C80000250CE0002BF8D04E485DE04E48069BC8
:1052D80022464E4940F051FE049B002B69D0DFF86E
:1052E8003081DFF83091049F3146102F204628BFC7
:1052F80010274FF0000AFFF71BFF554546DC059BBA
:10530800494620461A78FFF701FF4FF0010A1AF0C4
:10531800070F03D141462046FFF7F8FE57453CD911
:10532800059B4946204613F80A20FFF7EFFE0AF1CD
:10533800010ABAF1100FEAD14FF0000A20463649A7
:10534800FFF7E4FE5246059B20469A5C334B995C76
:1053580011F0970F08BF2E223149FFF7D7FE0AF147
:10536800010ABAF1100F1DD01AF0070F03D14146F8
:105378002046FFF7CBFE57455246E4D84146204623
:10538800FFF7C4FEEBE720485D46A0E7414620460C
:10539800FFF7BCFE0AF1010AAFE720462149FFF7F3
:1053A800B5FEC4E7059B3B440593049BDB1B0493B4
:1053B80099D1BBF1000F7FF41EAF204609B0BDE8BC
:1053C800F04F41F0B4BA2046054A0649FFF79EFE61
:1053D80014E700BFC5440700C9440700AC11070023
:1053E800C044070073970700EE440700F02C002024
:1053F800EC2C0020D2440700C0110700F24407003B
:10540800F84407007F690400516904002969040011
:1054180005450700FD44070007450700E5FC0700B0
:1054280024D107000345070042F20F7373B58B427E
:1054380028BF0B4605680446052168460D4A40F01A
:1054480014FE0646636828460B225B680A4941F049
:1054580059FA63683246694628465B6841F052FA51
:1054680063681B2228465B68044941F04BFA02B086
:1054780070BD00BF8857070025450700094507008C
:1054880000210123064A904206D8064A01B90123A1
:105498001360054B18607047012140085B00F2E774
:1054A80040420F00EC2C0020F02C0020F8B50D46EF
:1054B8000446064F4618B44201D12846F8BD14F8F0
:1054C800011BBB6801485B689847F4E750F1050089
:1054D800014B0360002070470812070008B5044814
:1054E80040F0B6FDBDE80840024840F0B1BD00BF3D
:1054F8006B450700A045070001483CF02DB900BFE7
:105508000812070038B5044618B90F4B0F485B68F6
:1055180098476168B1F5683F10D0B1F5680F0DD0B4
:105528000B4DA9420AD011F46861206807D00146E2
:10553800084855F043F800232360656038BD1422FD
:1055480055F0AEFFF9E700BFE80C0020CE45070094
:105558002C5F5CA92032002008B560B34368B3F51E
:10556800683F0ED0B3F5680F18D0144A934220D084
:1055780000684FF0FF324FF0FF3335F0A1FB58B110
:1055880015E001220368D3E8EF1F002903D1C3E81F
:10559800E02F0028F7D10AD1002008BD0368084A87
:1055A8001B7803F5807352F82330002BF4D005489C
:1055B800F3E70548F1E76FF4E040EEE72C5F5CA9FC
:1055C80000000350E98FFFFFEA8FFFFF08B520B303
:1055D8004368B3F5683F09D0B3F5680F13D0114A93
:1055E80093421DD0006835F0E3FB14E00022036805
:1055F800D3E8EF1F012903D1C3E8E02F0028F7D132
:1056080009D0094808BD00210368084A1B7803F53A
:10561800807342F823100020F4E76FF4E040F1E7CC
:105628000348EFE72C5F5CA9E98FFFFF00000350F8
:10563800EA8FFFFF10B5044618B91D4B1D485B687B
:1056480098476368B3F5683F2FD0B3F5680F2CD03F
:10565800194A934219D1236803BB4FF0FF324FF028
:10566800FF332146154835F04BFA08B923681BB9B2
:105678000F4B13485B68984714220021206855F0A7
:105688000FFF4FF46863636008E0B3F5683F0DD817
:105698003A2B03D040F6BA629342DED1206854F028
:1056A800C6FF636843F03A03636010BD054AF3E739
:1056B800E80C0020CE4507002C5F5CA920320020B2
:1056C800F44507003A00003A08B506494023142279
:1056D800054854F065FFBDE80840044904483CF01B
:1056E800FFB800BF202D0020203200201012070034
:1056F800241207002DE9F04706460C4600AF0029A2
:1057080036D0D1E90012E9468AB06D46A3684FF059
:10571800050AA8461F48C5E90723C5E9050148F851
:1057280010AF002342464FF421511B48FFF718FCE5
:10573800D4E90312CD466369AD461848C5E9072385
:10574800C5E90501C5F810A0002342464FF42151D0
:105758001148FFF705FCCD46E3690121104A0E48C0
:1057680041F0BAF8A36901210E4A0B4841F0B4F898
:10577800012E07D1EFF305830B4A31460648103B4B
:1057880041F0AAF82146304634F0F4FFBD46BDE8A2
:10579800F08700BF21460700B0F505005046070016
:1057A8007F4607008E460700BC46070030BFFFF75C
:1057B800FDBF00BF074A936893F90E10002907DB65
:1057C800926993421FBF044A536843F08053536061
:1057D80035F030BE244E002000ED00E070B52A4CB4
:1057E80006460D4629482A4941F03CF9A36ADB06DA
:1057F80047D52648274941F035F91120A36A1C07E7
:1058080004D52248244941F02DF912201E4CA36AE0
:10581800990712D521491D4841F024F9636BA26A02
:10582800120609D501211E4A184841F055F81EB143
:10583800A36A23F08003A3621320134CA36ADE0734
:1058480004D51248174941F00DF91420A36A9C06A3
:1058580004D50E48144941F005F915200A4B9A6AF7
:10586800D10658BF9A6A9A6A920642BF5A6A22F4C7
:1058780000525A629A6A42F0FF029A6200232B7021
:1058880070BD1020BAE700BF00ED00E0B0F50500DC
:10589800CF460700E5460700184707002B470700D3
:1058A80043470700594707007847070010B5244CBD
:1058B8002449254841F0D6F8A36A99013ED52248E3
:1058C800224941F0CFF81E20A36ADA0104D51E4808
:1058D8001F4941F0C7F81F20194CA36ADB0204D501
:1058E80019481C4941F0BEF80220A36A1C0304D5DC
:1058F8001548194941F0B6F82120114CA36A5903FB
:1059080004D51148154941F0ADF82220A36A9A033D
:1059180004D50D48124941F0A5F82320084CA36A84
:10592800DB0304D508480F4941F09CF82420A36AFA
:105938006FEA03436FEA1343A36210BD1D20C3E758
:1059480000ED00E0A7470700B0F50500BF470700D6
:10595800D2470700EC4707001648070034480700FD
:10596800594807007348070070B5294C06460D468C
:105978002848294941F076F8A36AD9043CD5254836
:10598800264941F06FF81720A36A1A0504D5214863
:10599800234941F067F818201D4CA36A9B0512D5CE
:1059A8001C48204941F05EF8A36BA26A100409D58F
:1059B80001211D4A174840F08FFF1EB1A36A23F446
:1059C8000043A3621920124CA36A590504D5114853
:1059D800164941F047F81A20A36ADA050ED50D4892
:1059E800134941F03FF81B20094A936A43F47F4367
:1059F800936200232B7070BD1620C5E7A36A9B0431
:105A0800F2D504480B4941F02DF81C20ECE700BF03
:105A180000ED00E0B0F505009E480700B448070017
:105A280018470700C5480700DE480700F348070085
:105A38000E490700784707002DE9F0418AB0664B08
:105A48000446D3F80480002600AFC8F3080586F39F
:105A58001188BFF36F8F02F07F43B3F17F4F07D1F7
:105A680002F00C03082B14D15C495D4840F0FAFFA2
:105A7800002634465B4B1C600023FB71EB1E092B90
:105A880000F28980DFE803F00A7F827C87878787B6
:105A9800878510074CBF0C460126EBE75249504852
:105AA80040F0E0FF00234C4DFB71EB6A9A0705D5E7
:105AB8004E494B4840F0D6FF002332E0EB6A002BFA
:105AC80001DA4B49F5E7EB6A5B00F5D549494448EB
